{
  "contracts/utils/DateTime.sol": {
    "DateTime": {
      "abi": [
        {
          "inputs": [
            {
              "internalType": "uint256",
              "name": "timestamp",
              "type": "uint256"
            }
          ],
          "name": "getDay",
          "outputs": [
            {
              "internalType": "uint8",
              "name": "",
              "type": "uint8"
            }
          ],
          "stateMutability": "pure",
          "type": "function"
        },
        {
          "inputs": [
            {
              "internalType": "uint8",
              "name": "month",
              "type": "uint8"
            },
            {
              "internalType": "uint16",
              "name": "year",
              "type": "uint16"
            }
          ],
          "name": "getDaysInMonth",
          "outputs": [
            {
              "internalType": "uint8",
              "name": "",
              "type": "uint8"
            }
          ],
          "stateMutability": "pure",
          "type": "function"
        },
        {
          "inputs": [
            {
              "internalType": "uint256",
              "name": "timestamp",
              "type": "uint256"
            }
          ],
          "name": "getHour",
          "outputs": [
            {
              "internalType": "uint8",
              "name": "",
              "type": "uint8"
            }
          ],
          "stateMutability": "pure",
          "type": "function"
        },
        {
          "inputs": [
            {
              "internalType": "uint256",
              "name": "timestamp",
              "type": "uint256"
            }
          ],
          "name": "getMinute",
          "outputs": [
            {
              "internalType": "uint8",
              "name": "",
              "type": "uint8"
            }
          ],
          "stateMutability": "pure",
          "type": "function"
        },
        {
          "inputs": [
            {
              "internalType": "uint256",
              "name": "timestamp",
              "type": "uint256"
            }
          ],
          "name": "getMonth",
          "outputs": [
            {
              "internalType": "uint8",
              "name": "",
              "type": "uint8"
            }
          ],
          "stateMutability": "pure",
          "type": "function"
        },
        {
          "inputs": [
            {
              "internalType": "uint256",
              "name": "timestamp",
              "type": "uint256"
            }
          ],
          "name": "getSecond",
          "outputs": [
            {
              "internalType": "uint8",
              "name": "",
              "type": "uint8"
            }
          ],
          "stateMutability": "pure",
          "type": "function"
        },
        {
          "inputs": [
            {
              "internalType": "uint256",
              "name": "timestamp",
              "type": "uint256"
            }
          ],
          "name": "getWeekday",
          "outputs": [
            {
              "internalType": "uint8",
              "name": "",
              "type": "uint8"
            }
          ],
          "stateMutability": "pure",
          "type": "function"
        },
        {
          "inputs": [
            {
              "internalType": "uint256",
              "name": "timestamp",
              "type": "uint256"
            }
          ],
          "name": "getYear",
          "outputs": [
            {
              "internalType": "uint16",
              "name": "",
              "type": "uint16"
            }
          ],
          "stateMutability": "pure",
          "type": "function"
        },
        {
          "inputs": [
            {
              "internalType": "uint16",
              "name": "year",
              "type": "uint16"
            }
          ],
          "name": "isLeapYear",
          "outputs": [
            {
              "internalType": "bool",
              "name": "",
              "type": "bool"
            }
          ],
          "stateMutability": "pure",
          "type": "function"
        },
        {
          "inputs": [
            {
              "internalType": "uint256",
              "name": "year",
              "type": "uint256"
            }
          ],
          "name": "leapYearsBefore",
          "outputs": [
            {
              "internalType": "uint256",
              "name": "",
              "type": "uint256"
            }
          ],
          "stateMutability": "pure",
          "type": "function"
        },
        {
          "inputs": [
            {
              "internalType": "uint16",
              "name": "year",
              "type": "uint16"
            },
            {
              "internalType": "uint8",
              "name": "month",
              "type": "uint8"
            },
            {
              "internalType": "uint8",
              "name": "day",
              "type": "uint8"
            },
            {
              "internalType": "uint8",
              "name": "hour",
              "type": "uint8"
            },
            {
              "internalType": "uint8",
              "name": "minute",
              "type": "uint8"
            }
          ],
          "name": "toTimestamp",
          "outputs": [
            {
              "internalType": "uint256",
              "name": "timestamp",
              "type": "uint256"
            }
          ],
          "stateMutability": "pure",
          "type": "function"
        },
        {
          "inputs": [
            {
              "internalType": "uint16",
              "name": "year",
              "type": "uint16"
            },
            {
              "internalType": "uint8",
              "name": "month",
              "type": "uint8"
            },
            {
              "internalType": "uint8",
              "name": "day",
              "type": "uint8"
            },
            {
              "internalType": "uint8",
              "name": "hour",
              "type": "uint8"
            }
          ],
          "name": "toTimestamp",
          "outputs": [
            {
              "internalType": "uint256",
              "name": "timestamp",
              "type": "uint256"
            }
          ],
          "stateMutability": "pure",
          "type": "function"
        },
        {
          "inputs": [
            {
              "internalType": "uint16",
              "name": "year",
              "type": "uint16"
            },
            {
              "internalType": "uint8",
              "name": "month",
              "type": "uint8"
            },
            {
              "internalType": "uint8",
              "name": "day",
              "type": "uint8"
            }
          ],
          "name": "toTimestamp",
          "outputs": [
            {
              "internalType": "uint256",
              "name": "timestamp",
              "type": "uint256"
            }
          ],
          "stateMutability": "pure",
          "type": "function"
        },
        {
          "inputs": [
            {
              "internalType": "uint16",
              "name": "year",
              "type": "uint16"
            },
            {
              "internalType": "uint8",
              "name": "month",
              "type": "uint8"
            },
            {
              "internalType": "uint8",
              "name": "day",
              "type": "uint8"
            },
            {
              "internalType": "uint8",
              "name": "hour",
              "type": "uint8"
            },
            {
              "internalType": "uint8",
              "name": "minute",
              "type": "uint8"
            },
            {
              "internalType": "uint8",
              "name": "second",
              "type": "uint8"
            }
          ],
          "name": "toTimestamp",
          "outputs": [
            {
              "internalType": "uint256",
              "name": "timestamp",
              "type": "uint256"
            }
          ],
          "stateMutability": "pure",
          "type": "function"
        }
      ],
      "devdoc": {
        "details": "code from https://github.com/pipermerriam/ethereum-datetime updated to solidity 0.8.0 ",
        "kind": "dev",
        "methods": {},
        "version": 1
      },
      "evm": {
        "bytecode": {
          "linkReferences": {},
          "object": "608060405234801561001057600080fd5b506115b2806100206000396000f3fe608060405234801561001057600080fd5b50600436106100ea5760003560e01c80639054bdec1161008c578063a6f0e57711610066578063a6f0e577146102cf578063b1999937146102ff578063b238ad0e1461032f578063fa93f8831461035f576100ea565b80639054bdec1461023f57806392d663131461026f578063a324ad241461029f576100ea565b806365c72840116100c857806365c728401461017f5780637f791833146101af5780638aa001fc146101df5780638c8d98a01461020f576100ea565b80633e239e1a146100ef5780634ac1ad781461011f57806362ba96871461014f575b600080fd5b61010960048036038101906101049190611167565b61038f565b6040516101169190611259565b60405180910390f35b61013960048036038101906101349190611167565b6103bc565b6040516101469190611259565b60405180910390f35b61016960048036038101906101649190611067565b6103ec565b604051610176919061123e565b60405180910390f35b61019960048036038101906101949190611167565b610408565b6040516101a69190611259565b60405180910390f35b6101c960048036038101906101c49190611004565b61041e565b6040516101d6919061123e565b60405180910390f35b6101f960048036038101906101f49190611167565b610439565b6040516102069190611259565b60405180910390f35b61022960048036038101906102249190610fb5565b61044f565b604051610236919061123e565b60405180910390f35b610259600480360381019061025491906110de565b61046a565b604051610266919061123e565b60405180910390f35b61028960048036038101906102849190611167565b6109e9565b6040516102969190611223565b60405180910390f35b6102b960048036038101906102b49190611167565b610b00565b6040516102c69190611259565b60405180910390f35b6102e960048036038101906102e49190610f8c565b610b16565b6040516102f69190611208565b60405180910390f35b61031960048036038101906103149190611167565b610b85565b604051610326919061123e565b60405180910390f35b61034960048036038101906103449190611190565b610bd9565b6040516103569190611259565b60405180910390f35b61037960048036038101906103749190611167565b610ca5565b6040516103869190611259565b60405180910390f35b60006018603c80846103a191906112ca565b6103ab91906112ca565b6103b591906114a8565b9050919050565b60006007600462015180846103d191906112ca565b6103db9190611274565b6103e591906114a8565b9050919050565b60006103fd8686868686600061046a565b905095945050505050565b600061041382610cc6565b604001519050919050565b600061042f8585858560008061046a565b9050949350505050565b6000603c8261044891906114a8565b9050919050565b6000610461848484600080600061046a565b90509392505050565b6000806107b290505b8761ffff168161ffff1610156104ce5761048c81610b16565b156104a8576301e28500826104a19190611274565b91506104bb565b6301e13380826104b89190611274565b91505b80806104c690611422565b915050610473565b6104d6610ed7565b601f816000600c8110610512577f4e487b7100000000000000000000000000000000000000000000000000000000600052603260045260246000fd5b602002019060ff16908160ff168152505061052c89610b16565b1561058357601d816001600c811061056d577f4e487b7100000000000000000000000000000000000000000000000000000000600052603260045260246000fd5b602002019060ff16908160ff16815250506105d1565b601c816001600c81106105bf577f4e487b7100000000000000000000000000000000000000000000000000000000600052603260045260246000fd5b602002019060ff16908160ff16815250505b601f816002600c811061060d577f4e487b7100000000000000000000000000000000000000000000000000000000600052603260045260246000fd5b602002019060ff16908160ff1681525050601e816003600c811061065a577f4e487b7100000000000000000000000000000000000000000000000000000000600052603260045260246000fd5b602002019060ff16908160ff1681525050601f816004600c81106106a7577f4e487b7100000000000000000000000000000000000000000000000000000000600052603260045260246000fd5b602002019060ff16908160ff1681525050601e816005600c81106106f4577f4e487b7100000000000000000000000000000000000000000000000000000000600052603260045260246000fd5b602002019060ff16908160ff1681525050601f816006600c8110610741577f4e487b7100000000000000000000000000000000000000000000000000000000600052603260045260246000fd5b602002019060ff16908160ff1681525050601f816007600c811061078e577f4e487b7100000000000000000000000000000000000000000000000000000000600052603260045260246000fd5b602002019060ff16908160ff1681525050601e816008600c81106107db577f4e487b7100000000000000000000000000000000000000000000000000000000600052603260045260246000fd5b602002019060ff16908160ff1681525050601f816009600c8110610828577f4e487b7100000000000000000000000000000000000000000000000000000000600052603260045260246000fd5b602002019060ff16908160ff1681525050601e81600a600c8110610875577f4e487b7100000000000000000000000000000000000000000000000000000000600052603260045260246000fd5b602002019060ff16908160ff1681525050601f81600b600c81106108c2577f4e487b7100000000000000000000000000000000000000000000000000000000600052603260045260246000fd5b602002019060ff16908160ff1681525050600191505b8760ff168261ffff16101561096657806001836108f59190611355565b61ffff16600c8110610930577f4e487b7100000000000000000000000000000000000000000000000000000000600052603260045260246000fd5b602002015160ff166201518061094691906112fb565b836109519190611274565b9250818061095e90611422565b9250506108d8565b60018761097391906113bd565b60ff166201518061098491906112fb565b8361098f9190611274565b92508560ff16610e106109a291906112fb565b836109ad9190611274565b92508460ff16603c6109bf91906112fb565b836109ca9190611274565b92508360ff16836109db9190611274565b925050509695505050505050565b600080600090506000806301e1338085610a0391906112ca565b6107b261ffff16610a149190611274565b9150610a256107b261ffff16610b85565b610a328361ffff16610b85565b610a3c9190611389565b9050806301e28500610a4e91906112fb565b83610a599190611274565b9250806107b283610a6a9190611355565b61ffff16610a789190611389565b6301e13380610a8791906112fb565b83610a929190611274565b92505b84831115610af557610ab2600183610aad9190611355565b610b16565b15610ace576301e2850083610ac79190611389565b9250610ae1565b6301e1338083610ade9190611389565b92505b600182610aee9190611355565b9150610a95565b819350505050919050565b6000610b0b82610cc6565b602001519050919050565b600080600483610b269190611477565b61ffff1614610b385760009050610b80565b6000606483610b479190611477565b61ffff1614610b595760019050610b80565b600061019083610b699190611477565b61ffff1614610b7b5760009050610b80565b600190505b919050565b6000600182610b949190611389565b915061019082610ba491906112ca565b606483610bb191906112ca565b600484610bbe91906112ca565b610bc89190611389565b610bd29190611274565b9050919050565b600060018360ff161480610bf0575060038360ff16145b80610bfe575060058360ff16145b80610c0c575060078360ff16145b80610c1a575060088360ff16145b80610c285750600a8360ff16145b80610c365750600c8360ff16145b15610c4457601f9050610c9f565b60048360ff161480610c59575060068360ff16145b80610c67575060098360ff16145b80610c755750600b8360ff16145b15610c8357601e9050610c9f565b610c8c82610b16565b15610c9a57601d9050610c9f565b601c90505b92915050565b6000603c8083610cb591906112ca565b610cbf91906114a8565b9050919050565b610cce610efa565b60008080610cdb856109e9565b846000019061ffff16908161ffff1681525050610cfd6107b261ffff16610b85565b610d0e856000015161ffff16610b85565b610d189190611389565b9150816301e28500610d2a91906112fb565b83610d359190611274565b9250816107b28560000151610d4a9190611355565b61ffff16610d589190611389565b6301e13380610d6791906112fb565b83610d729190611274565b92506000600191505b600c8260ff1611610df257610d94828660000151610bd9565b60ff1662015180610da591906112fb565b9050858482610db49190611274565b1115610dd15781856020019060ff16908160ff1681525050610df2565b8084610ddd9190611274565b93508180610dea9061144d565b925050610d7b565b600191505b610e0985602001518660000151610bd9565b60ff168260ff1611610e6657858462015180610e259190611274565b1115610e425781856040019060ff16908160ff1681525050610e66565b6201518084610e519190611274565b93508180610e5e9061144d565b925050610df7565b610e6f8661038f565b856060019060ff16908160ff1681525050610e8986610ca5565b856080019060ff16908160ff1681525050610ea386610439565b8560a0019060ff16908160ff1681525050610ebd866103bc565b8560c0019060ff16908160ff168152505050505050919050565b604051806101800160405280600c90602082028036833780820191505090505090565b6040518060e00160405280600061ffff168152602001600060ff168152602001600060ff168152602001600060ff168152602001600060ff168152602001600060ff168152602001600060ff1681525090565b600081359050610f5c81611537565b92915050565b600081359050610f718161154e565b92915050565b600081359050610f8681611565565b92915050565b600060208284031215610f9e57600080fd5b6000610fac84828501610f4d565b91505092915050565b600080600060608486031215610fca57600080fd5b6000610fd886828701610f4d565b9350506020610fe986828701610f77565b9250506040610ffa86828701610f77565b9150509250925092565b6000806000806080858703121561101a57600080fd5b600061102887828801610f4d565b945050602061103987828801610f77565b935050604061104a87828801610f77565b925050606061105b87828801610f77565b91505092959194509250565b600080600080600060a0868803121561107f57600080fd5b600061108d88828901610f4d565b955050602061109e88828901610f77565b94505060406110af88828901610f77565b93505060606110c088828901610f77565b92505060806110d188828901610f77565b9150509295509295909350565b60008060008060008060c087890312156110f757600080fd5b600061110589828a01610f4d565b965050602061111689828a01610f77565b955050604061112789828a01610f77565b945050606061113889828a01610f77565b935050608061114989828a01610f77565b92505060a061115a89828a01610f77565b9150509295509295509295565b60006020828403121561117957600080fd5b600061118784828501610f62565b91505092915050565b600080604083850312156111a357600080fd5b60006111b185828601610f77565b92505060206111c285828601610f4d565b9150509250929050565b6111d5816113f1565b82525050565b6111e4816113fd565b82525050565b6111f38161140b565b82525050565b61120281611415565b82525050565b600060208201905061121d60008301846111cc565b92915050565b600060208201905061123860008301846111db565b92915050565b600060208201905061125360008301846111ea565b92915050565b600060208201905061126e60008301846111f9565b92915050565b600061127f8261140b565b915061128a8361140b565b9250827fffffffffffffffffffffffffffffffffffffffffffffffffffffffffffffffff038211156112bf576112be6114d9565b5b828201905092915050565b60006112d58261140b565b91506112e08361140b565b9250826112f0576112ef611508565b5b828204905092915050565b60006113068261140b565b91506113118361140b565b9250817fffffffffffffffffffffffffffffffffffffffffffffffffffffffffffffffff048311821515161561134a576113496114d9565b5b828202905092915050565b6000611360826113fd565b915061136b836113fd565b92508282101561137e5761137d6114d9565b5b828203905092915050565b60006113948261140b565b915061139f8361140b565b9250828210156113b2576113b16114d9565b5b828203905092915050565b60006113c882611415565b91506113d383611415565b9250828210156113e6576113e56114d9565b5b828203905092915050565b60008115159050919050565b600061ffff82169050919050565b6000819050919050565b600060ff82169050919050565b600061142d826113fd565b915061ffff821415611442576114416114d9565b5b600182019050919050565b600061145882611415565b915060ff82141561146c5761146b6114d9565b5b600182019050919050565b6000611482826113fd565b915061148d836113fd565b92508261149d5761149c611508565b5b828206905092915050565b60006114b38261140b565b91506114be8361140b565b9250826114ce576114cd611508565b5b828206905092915050565b7f4e487b7100000000000000000000000000000000000000000000000000000000600052601160045260246000fd5b7f4e487b7100000000000000000000000000000000000000000000000000000000600052601260045260246000fd5b611540816113fd565b811461154b57600080fd5b50565b6115578161140b565b811461156257600080fd5b50565b61156e81611415565b811461157957600080fd5b5056fea2646970667358221220762fd4bb28513e66ec4827fe560802df0d913962e180200ed80aecdd7ec2cc9a64736f6c63430008000033",
          "opcodes": "PUSH1 0x80 PUSH1 0x40 MSTORE CALLVALUE DUP1 ISZERO PUSH2 0x10 JUMPI PUSH1 0x0 DUP1 REVERT JUMPDEST POP PUSH2 0x15B2 DUP1 PUSH2 0x20 PUSH1 0x0 CODECOPY PUSH1 0x0 RETURN INVALID PUSH1 0x80 PUSH1 0x40 MSTORE CALLVALUE DUP1 ISZERO PUSH2 0x10 JUMPI PUSH1 0x0 DUP1 REVERT JUMPDEST POP PUSH1 0x4 CALLDATASIZE LT PUSH2 0xEA JUMPI PUSH1 0x0 CALLDATALOAD PUSH1 0xE0 SHR DUP1 PUSH4 0x9054BDEC GT PUSH2 0x8C JUMPI DUP1 PUSH4 0xA6F0E577 GT PUSH2 0x66 JUMPI DUP1 PUSH4 0xA6F0E577 EQ PUSH2 0x2CF JUMPI DUP1 PUSH4 0xB1999937 EQ PUSH2 0x2FF JUMPI DUP1 PUSH4 0xB238AD0E EQ PUSH2 0x32F JUMPI DUP1 PUSH4 0xFA93F883 EQ PUSH2 0x35F JUMPI PUSH2 0xEA JUMP JUMPDEST DUP1 PUSH4 0x9054BDEC EQ PUSH2 0x23F JUMPI DUP1 PUSH4 0x92D66313 EQ PUSH2 0x26F JUMPI DUP1 PUSH4 0xA324AD24 EQ PUSH2 0x29F JUMPI PUSH2 0xEA JUMP JUMPDEST DUP1 PUSH4 0x65C72840 GT PUSH2 0xC8 JUMPI DUP1 PUSH4 0x65C72840 EQ PUSH2 0x17F JUMPI DUP1 PUSH4 0x7F791833 EQ PUSH2 0x1AF JUMPI DUP1 PUSH4 0x8AA001FC EQ PUSH2 0x1DF JUMPI DUP1 PUSH4 0x8C8D98A0 EQ PUSH2 0x20F JUMPI PUSH2 0xEA JUMP JUMPDEST DUP1 PUSH4 0x3E239E1A EQ PUSH2 0xEF JUMPI DUP1 PUSH4 0x4AC1AD78 EQ PUSH2 0x11F JUMPI DUP1 PUSH4 0x62BA9687 EQ PUSH2 0x14F JUMPI JUMPDEST PUSH1 0x0 DUP1 REVERT JUMPDEST PUSH2 0x109 PUSH1 0x4 DUP1 CALLDATASIZE SUB DUP2 ADD SWAP1 PUSH2 0x104 SWAP2 SWAP1 PUSH2 0x1167 JUMP JUMPDEST PUSH2 0x38F JUMP JUMPDEST PUSH1 0x40 MLOAD PUSH2 0x116 SWAP2 SWAP1 PUSH2 0x1259 JUMP JUMPDEST PUSH1 0x40 MLOAD DUP1 SWAP2 SUB SWAP1 RETURN JUMPDEST PUSH2 0x139 PUSH1 0x4 DUP1 CALLDATASIZE SUB DUP2 ADD SWAP1 PUSH2 0x134 SWAP2 SWAP1 PUSH2 0x1167 JUMP JUMPDEST PUSH2 0x3BC JUMP JUMPDEST PUSH1 0x40 MLOAD PUSH2 0x146 SWAP2 SWAP1 PUSH2 0x1259 JUMP JUMPDEST PUSH1 0x40 MLOAD DUP1 SWAP2 SUB SWAP1 RETURN JUMPDEST PUSH2 0x169 PUSH1 0x4 DUP1 CALLDATASIZE SUB DUP2 ADD SWAP1 PUSH2 0x164 SWAP2 SWAP1 PUSH2 0x1067 JUMP JUMPDEST PUSH2 0x3EC JUMP JUMPDEST PUSH1 0x40 MLOAD PUSH2 0x176 SWAP2 SWAP1 PUSH2 0x123E JUMP JUMPDEST PUSH1 0x40 MLOAD DUP1 SWAP2 SUB SWAP1 RETURN JUMPDEST PUSH2 0x199 PUSH1 0x4 DUP1 CALLDATASIZE SUB DUP2 ADD SWAP1 PUSH2 0x194 SWAP2 SWAP1 PUSH2 0x1167 JUMP JUMPDEST PUSH2 0x408 JUMP JUMPDEST PUSH1 0x40 MLOAD PUSH2 0x1A6 SWAP2 SWAP1 PUSH2 0x1259 JUMP JUMPDEST PUSH1 0x40 MLOAD DUP1 SWAP2 SUB SWAP1 RETURN JUMPDEST PUSH2 0x1C9 PUSH1 0x4 DUP1 CALLDATASIZE SUB DUP2 ADD SWAP1 PUSH2 0x1C4 SWAP2 SWAP1 PUSH2 0x1004 JUMP JUMPDEST PUSH2 0x41E JUMP JUMPDEST PUSH1 0x40 MLOAD PUSH2 0x1D6 SWAP2 SWAP1 PUSH2 0x123E JUMP JUMPDEST PUSH1 0x40 MLOAD DUP1 SWAP2 SUB SWAP1 RETURN JUMPDEST PUSH2 0x1F9 PUSH1 0x4 DUP1 CALLDATASIZE SUB DUP2 ADD SWAP1 PUSH2 0x1F4 SWAP2 SWAP1 PUSH2 0x1167 JUMP JUMPDEST PUSH2 0x439 JUMP JUMPDEST PUSH1 0x40 MLOAD PUSH2 0x206 SWAP2 SWAP1 PUSH2 0x1259 JUMP JUMPDEST PUSH1 0x40 MLOAD DUP1 SWAP2 SUB SWAP1 RETURN JUMPDEST PUSH2 0x229 PUSH1 0x4 DUP1 CALLDATASIZE SUB DUP2 ADD SWAP1 PUSH2 0x224 SWAP2 SWAP1 PUSH2 0xFB5 JUMP JUMPDEST PUSH2 0x44F JUMP JUMPDEST PUSH1 0x40 MLOAD PUSH2 0x236 SWAP2 SWAP1 PUSH2 0x123E JUMP JUMPDEST PUSH1 0x40 MLOAD DUP1 SWAP2 SUB SWAP1 RETURN JUMPDEST PUSH2 0x259 PUSH1 0x4 DUP1 CALLDATASIZE SUB DUP2 ADD SWAP1 PUSH2 0x254 SWAP2 SWAP1 PUSH2 0x10DE JUMP JUMPDEST PUSH2 0x46A JUMP JUMPDEST PUSH1 0x40 MLOAD PUSH2 0x266 SWAP2 SWAP1 PUSH2 0x123E JUMP JUMPDEST PUSH1 0x40 MLOAD DUP1 SWAP2 SUB SWAP1 RETURN JUMPDEST PUSH2 0x289 PUSH1 0x4 DUP1 CALLDATASIZE SUB DUP2 ADD SWAP1 PUSH2 0x284 SWAP2 SWAP1 PUSH2 0x1167 JUMP JUMPDEST PUSH2 0x9E9 JUMP JUMPDEST PUSH1 0x40 MLOAD PUSH2 0x296 SWAP2 SWAP1 PUSH2 0x1223 JUMP JUMPDEST PUSH1 0x40 MLOAD DUP1 SWAP2 SUB SWAP1 RETURN JUMPDEST PUSH2 0x2B9 PUSH1 0x4 DUP1 CALLDATASIZE SUB DUP2 ADD SWAP1 PUSH2 0x2B4 SWAP2 SWAP1 PUSH2 0x1167 JUMP JUMPDEST PUSH2 0xB00 JUMP JUMPDEST PUSH1 0x40 MLOAD PUSH2 0x2C6 SWAP2 SWAP1 PUSH2 0x1259 JUMP JUMPDEST PUSH1 0x40 MLOAD DUP1 SWAP2 SUB SWAP1 RETURN JUMPDEST PUSH2 0x2E9 PUSH1 0x4 DUP1 CALLDATASIZE SUB DUP2 ADD SWAP1 PUSH2 0x2E4 SWAP2 SWAP1 PUSH2 0xF8C JUMP JUMPDEST PUSH2 0xB16 JUMP JUMPDEST PUSH1 0x40 MLOAD PUSH2 0x2F6 SWAP2 SWAP1 PUSH2 0x1208 JUMP JUMPDEST PUSH1 0x40 MLOAD DUP1 SWAP2 SUB SWAP1 RETURN JUMPDEST PUSH2 0x319 PUSH1 0x4 DUP1 CALLDATASIZE SUB DUP2 ADD SWAP1 PUSH2 0x314 SWAP2 SWAP1 PUSH2 0x1167 JUMP JUMPDEST PUSH2 0xB85 JUMP JUMPDEST PUSH1 0x40 MLOAD PUSH2 0x326 SWAP2 SWAP1 PUSH2 0x123E JUMP JUMPDEST PUSH1 0x40 MLOAD DUP1 SWAP2 SUB SWAP1 RETURN JUMPDEST PUSH2 0x349 PUSH1 0x4 DUP1 CALLDATASIZE SUB DUP2 ADD SWAP1 PUSH2 0x344 SWAP2 SWAP1 PUSH2 0x1190 JUMP JUMPDEST PUSH2 0xBD9 JUMP JUMPDEST PUSH1 0x40 MLOAD PUSH2 0x356 SWAP2 SWAP1 PUSH2 0x1259 JUMP JUMPDEST PUSH1 0x40 MLOAD DUP1 SWAP2 SUB SWAP1 RETURN JUMPDEST PUSH2 0x379 PUSH1 0x4 DUP1 CALLDATASIZE SUB DUP2 ADD SWAP1 PUSH2 0x374 SWAP2 SWAP1 PUSH2 0x1167 JUMP JUMPDEST PUSH2 0xCA5 JUMP JUMPDEST PUSH1 0x40 MLOAD PUSH2 0x386 SWAP2 SWAP1 PUSH2 0x1259 JUMP JUMPDEST PUSH1 0x40 MLOAD DUP1 SWAP2 SUB SWAP1 RETURN JUMPDEST PUSH1 0x0 PUSH1 0x18 PUSH1 0x3C DUP1 DUP5 PUSH2 0x3A1 SWAP2 SWAP1 PUSH2 0x12CA JUMP JUMPDEST PUSH2 0x3AB SWAP2 SWAP1 PUSH2 0x12CA JUMP JUMPDEST PUSH2 0x3B5 SWAP2 SWAP1 PUSH2 0x14A8 JUMP JUMPDEST SWAP1 POP SWAP2 SWAP1 POP JUMP JUMPDEST PUSH1 0x0 PUSH1 0x7 PUSH1 0x4 PUSH3 0x15180 DUP5 PUSH2 0x3D1 SWAP2 SWAP1 PUSH2 0x12CA JUMP JUMPDEST PUSH2 0x3DB SWAP2 SWAP1 PUSH2 0x1274 JUMP JUMPDEST PUSH2 0x3E5 SWAP2 SWAP1 PUSH2 0x14A8 JUMP JUMPDEST SWAP1 POP SWAP2 SWAP1 POP JUMP JUMPDEST PUSH1 0x0 PUSH2 0x3FD DUP7 DUP7 DUP7 DUP7 DUP7 PUSH1 0x0 PUSH2 0x46A JUMP JUMPDEST SWAP1 POP SWAP6 SWAP5 POP POP POP POP POP JUMP JUMPDEST PUSH1 0x0 PUSH2 0x413 DUP3 PUSH2 0xCC6 JUMP JUMPDEST PUSH1 0x40 ADD MLOAD SWAP1 POP SWAP2 SWAP1 POP JUMP JUMPDEST PUSH1 0x0 PUSH2 0x42F DUP6 DUP6 DUP6 DUP6 PUSH1 0x0 DUP1 PUSH2 0x46A JUMP JUMPDEST SWAP1 POP SWAP5 SWAP4 POP POP POP POP JUMP JUMPDEST PUSH1 0x0 PUSH1 0x3C DUP3 PUSH2 0x448 SWAP2 SWAP1 PUSH2 0x14A8 JUMP JUMPDEST SWAP1 POP SWAP2 SWAP1 POP JUMP JUMPDEST PUSH1 0x0 PUSH2 0x461 DUP5 DUP5 DUP5 PUSH1 0x0 DUP1 PUSH1 0x0 PUSH2 0x46A JUMP JUMPDEST SWAP1 POP SWAP4 SWAP3 POP POP POP JUMP JUMPDEST PUSH1 0x0 DUP1 PUSH2 0x7B2 SWAP1 POP JUMPDEST DUP8 PUSH2 0xFFFF AND DUP2 PUSH2 0xFFFF AND LT ISZERO PUSH2 0x4CE JUMPI PUSH2 0x48C DUP2 PUSH2 0xB16 JUMP JUMPDEST ISZERO PUSH2 0x4A8 JUMPI PUSH4 0x1E28500 DUP3 PUSH2 0x4A1 SWAP2 SWAP1 PUSH2 0x1274 JUMP JUMPDEST SWAP2 POP PUSH2 0x4BB JUMP JUMPDEST PUSH4 0x1E13380 DUP3 PUSH2 0x4B8 SWAP2 SWAP1 PUSH2 0x1274 JUMP JUMPDEST SWAP2 POP JUMPDEST DUP1 DUP1 PUSH2 0x4C6 SWAP1 PUSH2 0x1422 JUMP JUMPDEST SWAP2 POP POP PUSH2 0x473 JUMP JUMPDEST PUSH2 0x4D6 PUSH2 0xED7 JUMP JUMPDEST PUSH1 0x1F DUP2 PUSH1 0x0 PUSH1 0xC DUP2 LT PUSH2 0x512 JUMPI PUSH32 0x4E487B7100000000000000000000000000000000000000000000000000000000 PUSH1 0x0 MSTORE PUSH1 0x32 PUSH1 0x4 MSTORE PUSH1 0x24 PUSH1 0x0 REVERT JUMPDEST PUSH1 0x20 MUL ADD SWAP1 PUSH1 0xFF AND SWAP1 DUP2 PUSH1 0xFF AND DUP2 MSTORE POP POP PUSH2 0x52C DUP10 PUSH2 0xB16 JUMP JUMPDEST ISZERO PUSH2 0x583 JUMPI PUSH1 0x1D DUP2 PUSH1 0x1 PUSH1 0xC DUP2 LT PUSH2 0x56D JUMPI PUSH32 0x4E487B7100000000000000000000000000000000000000000000000000000000 PUSH1 0x0 MSTORE PUSH1 0x32 PUSH1 0x4 MSTORE PUSH1 0x24 PUSH1 0x0 REVERT JUMPDEST PUSH1 0x20 MUL ADD SWAP1 PUSH1 0xFF AND SWAP1 DUP2 PUSH1 0xFF AND DUP2 MSTORE POP POP PUSH2 0x5D1 JUMP JUMPDEST PUSH1 0x1C DUP2 PUSH1 0x1 PUSH1 0xC DUP2 LT PUSH2 0x5BF JUMPI PUSH32 0x4E487B7100000000000000000000000000000000000000000000000000000000 PUSH1 0x0 MSTORE PUSH1 0x32 PUSH1 0x4 MSTORE PUSH1 0x24 PUSH1 0x0 REVERT JUMPDEST PUSH1 0x20 MUL ADD SWAP1 PUSH1 0xFF AND SWAP1 DUP2 PUSH1 0xFF AND DUP2 MSTORE POP POP JUMPDEST PUSH1 0x1F DUP2 PUSH1 0x2 PUSH1 0xC DUP2 LT PUSH2 0x60D JUMPI PUSH32 0x4E487B7100000000000000000000000000000000000000000000000000000000 PUSH1 0x0 MSTORE PUSH1 0x32 PUSH1 0x4 MSTORE PUSH1 0x24 PUSH1 0x0 REVERT JUMPDEST PUSH1 0x20 MUL ADD SWAP1 PUSH1 0xFF AND SWAP1 DUP2 PUSH1 0xFF AND DUP2 MSTORE POP POP PUSH1 0x1E DUP2 PUSH1 0x3 PUSH1 0xC DUP2 LT PUSH2 0x65A JUMPI PUSH32 0x4E487B7100000000000000000000000000000000000000000000000000000000 PUSH1 0x0 MSTORE PUSH1 0x32 PUSH1 0x4 MSTORE PUSH1 0x24 PUSH1 0x0 REVERT JUMPDEST PUSH1 0x20 MUL ADD SWAP1 PUSH1 0xFF AND SWAP1 DUP2 PUSH1 0xFF AND DUP2 MSTORE POP POP PUSH1 0x1F DUP2 PUSH1 0x4 PUSH1 0xC DUP2 LT PUSH2 0x6A7 JUMPI PUSH32 0x4E487B7100000000000000000000000000000000000000000000000000000000 PUSH1 0x0 MSTORE PUSH1 0x32 PUSH1 0x4 MSTORE PUSH1 0x24 PUSH1 0x0 REVERT JUMPDEST PUSH1 0x20 MUL ADD SWAP1 PUSH1 0xFF AND SWAP1 DUP2 PUSH1 0xFF AND DUP2 MSTORE POP POP PUSH1 0x1E DUP2 PUSH1 0x5 PUSH1 0xC DUP2 LT PUSH2 0x6F4 JUMPI PUSH32 0x4E487B7100000000000000000000000000000000000000000000000000000000 PUSH1 0x0 MSTORE PUSH1 0x32 PUSH1 0x4 MSTORE PUSH1 0x24 PUSH1 0x0 REVERT JUMPDEST PUSH1 0x20 MUL ADD SWAP1 PUSH1 0xFF AND SWAP1 DUP2 PUSH1 0xFF AND DUP2 MSTORE POP POP PUSH1 0x1F DUP2 PUSH1 0x6 PUSH1 0xC DUP2 LT PUSH2 0x741 JUMPI PUSH32 0x4E487B7100000000000000000000000000000000000000000000000000000000 PUSH1 0x0 MSTORE PUSH1 0x32 PUSH1 0x4 MSTORE PUSH1 0x24 PUSH1 0x0 REVERT JUMPDEST PUSH1 0x20 MUL ADD SWAP1 PUSH1 0xFF AND SWAP1 DUP2 PUSH1 0xFF AND DUP2 MSTORE POP POP PUSH1 0x1F DUP2 PUSH1 0x7 PUSH1 0xC DUP2 LT PUSH2 0x78E JUMPI PUSH32 0x4E487B7100000000000000000000000000000000000000000000000000000000 PUSH1 0x0 MSTORE PUSH1 0x32 PUSH1 0x4 MSTORE PUSH1 0x24 PUSH1 0x0 REVERT JUMPDEST PUSH1 0x20 MUL ADD SWAP1 PUSH1 0xFF AND SWAP1 DUP2 PUSH1 0xFF AND DUP2 MSTORE POP POP PUSH1 0x1E DUP2 PUSH1 0x8 PUSH1 0xC DUP2 LT PUSH2 0x7DB JUMPI PUSH32 0x4E487B7100000000000000000000000000000000000000000000000000000000 PUSH1 0x0 MSTORE PUSH1 0x32 PUSH1 0x4 MSTORE PUSH1 0x24 PUSH1 0x0 REVERT JUMPDEST PUSH1 0x20 MUL ADD SWAP1 PUSH1 0xFF AND SWAP1 DUP2 PUSH1 0xFF AND DUP2 MSTORE POP POP PUSH1 0x1F DUP2 PUSH1 0x9 PUSH1 0xC DUP2 LT PUSH2 0x828 JUMPI PUSH32 0x4E487B7100000000000000000000000000000000000000000000000000000000 PUSH1 0x0 MSTORE PUSH1 0x32 PUSH1 0x4 MSTORE PUSH1 0x24 PUSH1 0x0 REVERT JUMPDEST PUSH1 0x20 MUL ADD SWAP1 PUSH1 0xFF AND SWAP1 DUP2 PUSH1 0xFF AND DUP2 MSTORE POP POP PUSH1 0x1E DUP2 PUSH1 0xA PUSH1 0xC DUP2 LT PUSH2 0x875 JUMPI PUSH32 0x4E487B7100000000000000000000000000000000000000000000000000000000 PUSH1 0x0 MSTORE PUSH1 0x32 PUSH1 0x4 MSTORE PUSH1 0x24 PUSH1 0x0 REVERT JUMPDEST PUSH1 0x20 MUL ADD SWAP1 PUSH1 0xFF AND SWAP1 DUP2 PUSH1 0xFF AND DUP2 MSTORE POP POP PUSH1 0x1F DUP2 PUSH1 0xB PUSH1 0xC DUP2 LT PUSH2 0x8C2 JUMPI PUSH32 0x4E487B7100000000000000000000000000000000000000000000000000000000 PUSH1 0x0 MSTORE PUSH1 0x32 PUSH1 0x4 MSTORE PUSH1 0x24 PUSH1 0x0 REVERT JUMPDEST PUSH1 0x20 MUL ADD SWAP1 PUSH1 0xFF AND SWAP1 DUP2 PUSH1 0xFF AND DUP2 MSTORE POP POP PUSH1 0x1 SWAP2 POP JUMPDEST DUP8 PUSH1 0xFF AND DUP3 PUSH2 0xFFFF AND LT ISZERO PUSH2 0x966 JUMPI DUP1 PUSH1 0x1 DUP4 PUSH2 0x8F5 SWAP2 SWAP1 PUSH2 0x1355 JUMP JUMPDEST PUSH2 0xFFFF AND PUSH1 0xC DUP2 LT PUSH2 0x930 JUMPI PUSH32 0x4E487B7100000000000000000000000000000000000000000000000000000000 PUSH1 0x0 MSTORE PUSH1 0x32 PUSH1 0x4 MSTORE PUSH1 0x24 PUSH1 0x0 REVERT JUMPDEST PUSH1 0x20 MUL ADD MLOAD PUSH1 0xFF AND PUSH3 0x15180 PUSH2 0x946 SWAP2 SWAP1 PUSH2 0x12FB JUMP JUMPDEST DUP4 PUSH2 0x951 SWAP2 SWAP1 PUSH2 0x1274 JUMP JUMPDEST SWAP3 POP DUP2 DUP1 PUSH2 0x95E SWAP1 PUSH2 0x1422 JUMP JUMPDEST SWAP3 POP POP PUSH2 0x8D8 JUMP JUMPDEST PUSH1 0x1 DUP8 PUSH2 0x973 SWAP2 SWAP1 PUSH2 0x13BD JUMP JUMPDEST PUSH1 0xFF AND PUSH3 0x15180 PUSH2 0x984 SWAP2 SWAP1 PUSH2 0x12FB JUMP JUMPDEST DUP4 PUSH2 0x98F SWAP2 SWAP1 PUSH2 0x1274 JUMP JUMPDEST SWAP3 POP DUP6 PUSH1 0xFF AND PUSH2 0xE10 PUSH2 0x9A2 SWAP2 SWAP1 PUSH2 0x12FB JUMP JUMPDEST DUP4 PUSH2 0x9AD SWAP2 SWAP1 PUSH2 0x1274 JUMP JUMPDEST SWAP3 POP DUP5 PUSH1 0xFF AND PUSH1 0x3C PUSH2 0x9BF SWAP2 SWAP1 PUSH2 0x12FB JUMP JUMPDEST DUP4 PUSH2 0x9CA SWAP2 SWAP1 PUSH2 0x1274 JUMP JUMPDEST SWAP3 POP DUP4 PUSH1 0xFF AND DUP4 PUSH2 0x9DB SWAP2 SWAP1 PUSH2 0x1274 JUMP JUMPDEST SWAP3 POP POP POP SWAP7 SWAP6 POP POP POP POP POP POP JUMP JUMPDEST PUSH1 0x0 DUP1 PUSH1 0x0 SWAP1 POP PUSH1 0x0 DUP1 PUSH4 0x1E13380 DUP6 PUSH2 0xA03 SWAP2 SWAP1 PUSH2 0x12CA JUMP JUMPDEST PUSH2 0x7B2 PUSH2 0xFFFF AND PUSH2 0xA14 SWAP2 SWAP1 PUSH2 0x1274 JUMP JUMPDEST SWAP2 POP PUSH2 0xA25 PUSH2 0x7B2 PUSH2 0xFFFF AND PUSH2 0xB85 JUMP JUMPDEST PUSH2 0xA32 DUP4 PUSH2 0xFFFF AND PUSH2 0xB85 JUMP JUMPDEST PUSH2 0xA3C SWAP2 SWAP1 PUSH2 0x1389 JUMP JUMPDEST SWAP1 POP DUP1 PUSH4 0x1E28500 PUSH2 0xA4E SWAP2 SWAP1 PUSH2 0x12FB JUMP JUMPDEST DUP4 PUSH2 0xA59 SWAP2 SWAP1 PUSH2 0x1274 JUMP JUMPDEST SWAP3 POP DUP1 PUSH2 0x7B2 DUP4 PUSH2 0xA6A SWAP2 SWAP1 PUSH2 0x1355 JUMP JUMPDEST PUSH2 0xFFFF AND PUSH2 0xA78 SWAP2 SWAP1 PUSH2 0x1389 JUMP JUMPDEST PUSH4 0x1E13380 PUSH2 0xA87 SWAP2 SWAP1 PUSH2 0x12FB JUMP JUMPDEST DUP4 PUSH2 0xA92 SWAP2 SWAP1 PUSH2 0x1274 JUMP JUMPDEST SWAP3 POP JUMPDEST DUP5 DUP4 GT ISZERO PUSH2 0xAF5 JUMPI PUSH2 0xAB2 PUSH1 0x1 DUP4 PUSH2 0xAAD SWAP2 SWAP1 PUSH2 0x1355 JUMP JUMPDEST PUSH2 0xB16 JUMP JUMPDEST ISZERO PUSH2 0xACE JUMPI PUSH4 0x1E28500 DUP4 PUSH2 0xAC7 SWAP2 SWAP1 PUSH2 0x1389 JUMP JUMPDEST SWAP3 POP PUSH2 0xAE1 JUMP JUMPDEST PUSH4 0x1E13380 DUP4 PUSH2 0xADE SWAP2 SWAP1 PUSH2 0x1389 JUMP JUMPDEST SWAP3 POP JUMPDEST PUSH1 0x1 DUP3 PUSH2 0xAEE SWAP2 SWAP1 PUSH2 0x1355 JUMP JUMPDEST SWAP2 POP PUSH2 0xA95 JUMP JUMPDEST DUP2 SWAP4 POP POP POP POP SWAP2 SWAP1 POP JUMP JUMPDEST PUSH1 0x0 PUSH2 0xB0B DUP3 PUSH2 0xCC6 JUMP JUMPDEST PUSH1 0x20 ADD MLOAD SWAP1 POP SWAP2 SWAP1 POP JUMP JUMPDEST PUSH1 0x0 DUP1 PUSH1 0x4 DUP4 PUSH2 0xB26 SWAP2 SWAP1 PUSH2 0x1477 JUMP JUMPDEST PUSH2 0xFFFF AND EQ PUSH2 0xB38 JUMPI PUSH1 0x0 SWAP1 POP PUSH2 0xB80 JUMP JUMPDEST PUSH1 0x0 PUSH1 0x64 DUP4 PUSH2 0xB47 SWAP2 SWAP1 PUSH2 0x1477 JUMP JUMPDEST PUSH2 0xFFFF AND EQ PUSH2 0xB59 JUMPI PUSH1 0x1 SWAP1 POP PUSH2 0xB80 JUMP JUMPDEST PUSH1 0x0 PUSH2 0x190 DUP4 PUSH2 0xB69 SWAP2 SWAP1 PUSH2 0x1477 JUMP JUMPDEST PUSH2 0xFFFF AND EQ PUSH2 0xB7B JUMPI PUSH1 0x0 SWAP1 POP PUSH2 0xB80 JUMP JUMPDEST PUSH1 0x1 SWAP1 POP JUMPDEST SWAP2 SWAP1 POP JUMP JUMPDEST PUSH1 0x0 PUSH1 0x1 DUP3 PUSH2 0xB94 SWAP2 SWAP1 PUSH2 0x1389 JUMP JUMPDEST SWAP2 POP PUSH2 0x190 DUP3 PUSH2 0xBA4 SWAP2 SWAP1 PUSH2 0x12CA JUMP JUMPDEST PUSH1 0x64 DUP4 PUSH2 0xBB1 SWAP2 SWAP1 PUSH2 0x12CA JUMP JUMPDEST PUSH1 0x4 DUP5 PUSH2 0xBBE SWAP2 SWAP1 PUSH2 0x12CA JUMP JUMPDEST PUSH2 0xBC8 SWAP2 SWAP1 PUSH2 0x1389 JUMP JUMPDEST PUSH2 0xBD2 SWAP2 SWAP1 PUSH2 0x1274 JUMP JUMPDEST SWAP1 POP SWAP2 SWAP1 POP JUMP JUMPDEST PUSH1 0x0 PUSH1 0x1 DUP4 PUSH1 0xFF AND EQ DUP1 PUSH2 0xBF0 JUMPI POP PUSH1 0x3 DUP4 PUSH1 0xFF AND EQ JUMPDEST DUP1 PUSH2 0xBFE JUMPI POP PUSH1 0x5 DUP4 PUSH1 0xFF AND EQ JUMPDEST DUP1 PUSH2 0xC0C JUMPI POP PUSH1 0x7 DUP4 PUSH1 0xFF AND EQ JUMPDEST DUP1 PUSH2 0xC1A JUMPI POP PUSH1 0x8 DUP4 PUSH1 0xFF AND EQ JUMPDEST DUP1 PUSH2 0xC28 JUMPI POP PUSH1 0xA DUP4 PUSH1 0xFF AND EQ JUMPDEST DUP1 PUSH2 0xC36 JUMPI POP PUSH1 0xC DUP4 PUSH1 0xFF AND EQ JUMPDEST ISZERO PUSH2 0xC44 JUMPI PUSH1 0x1F SWAP1 POP PUSH2 0xC9F JUMP JUMPDEST PUSH1 0x4 DUP4 PUSH1 0xFF AND EQ DUP1 PUSH2 0xC59 JUMPI POP PUSH1 0x6 DUP4 PUSH1 0xFF AND EQ JUMPDEST DUP1 PUSH2 0xC67 JUMPI POP PUSH1 0x9 DUP4 PUSH1 0xFF AND EQ JUMPDEST DUP1 PUSH2 0xC75 JUMPI POP PUSH1 0xB DUP4 PUSH1 0xFF AND EQ JUMPDEST ISZERO PUSH2 0xC83 JUMPI PUSH1 0x1E SWAP1 POP PUSH2 0xC9F JUMP JUMPDEST PUSH2 0xC8C DUP3 PUSH2 0xB16 JUMP JUMPDEST ISZERO PUSH2 0xC9A JUMPI PUSH1 0x1D SWAP1 POP PUSH2 0xC9F JUMP JUMPDEST PUSH1 0x1C SWAP1 POP JUMPDEST SWAP3 SWAP2 POP POP JUMP JUMPDEST PUSH1 0x0 PUSH1 0x3C DUP1 DUP4 PUSH2 0xCB5 SWAP2 SWAP1 PUSH2 0x12CA JUMP JUMPDEST PUSH2 0xCBF SWAP2 SWAP1 PUSH2 0x14A8 JUMP JUMPDEST SWAP1 POP SWAP2 SWAP1 POP JUMP JUMPDEST PUSH2 0xCCE PUSH2 0xEFA JUMP JUMPDEST PUSH1 0x0 DUP1 DUP1 PUSH2 0xCDB DUP6 PUSH2 0x9E9 JUMP JUMPDEST DUP5 PUSH1 0x0 ADD SWAP1 PUSH2 0xFFFF AND SWAP1 DUP2 PUSH2 0xFFFF AND DUP2 MSTORE POP POP PUSH2 0xCFD PUSH2 0x7B2 PUSH2 0xFFFF AND PUSH2 0xB85 JUMP JUMPDEST PUSH2 0xD0E DUP6 PUSH1 0x0 ADD MLOAD PUSH2 0xFFFF AND PUSH2 0xB85 JUMP JUMPDEST PUSH2 0xD18 SWAP2 SWAP1 PUSH2 0x1389 JUMP JUMPDEST SWAP2 POP DUP2 PUSH4 0x1E28500 PUSH2 0xD2A SWAP2 SWAP1 PUSH2 0x12FB JUMP JUMPDEST DUP4 PUSH2 0xD35 SWAP2 SWAP1 PUSH2 0x1274 JUMP JUMPDEST SWAP3 POP DUP2 PUSH2 0x7B2 DUP6 PUSH1 0x0 ADD MLOAD PUSH2 0xD4A SWAP2 SWAP1 PUSH2 0x1355 JUMP JUMPDEST PUSH2 0xFFFF AND PUSH2 0xD58 SWAP2 SWAP1 PUSH2 0x1389 JUMP JUMPDEST PUSH4 0x1E13380 PUSH2 0xD67 SWAP2 SWAP1 PUSH2 0x12FB JUMP JUMPDEST DUP4 PUSH2 0xD72 SWAP2 SWAP1 PUSH2 0x1274 JUMP JUMPDEST SWAP3 POP PUSH1 0x0 PUSH1 0x1 SWAP2 POP JUMPDEST PUSH1 0xC DUP3 PUSH1 0xFF AND GT PUSH2 0xDF2 JUMPI PUSH2 0xD94 DUP3 DUP7 PUSH1 0x0 ADD MLOAD PUSH2 0xBD9 JUMP JUMPDEST PUSH1 0xFF AND PUSH3 0x15180 PUSH2 0xDA5 SWAP2 SWAP1 PUSH2 0x12FB JUMP JUMPDEST SWAP1 POP DUP6 DUP5 DUP3 PUSH2 0xDB4 SWAP2 SWAP1 PUSH2 0x1274 JUMP JUMPDEST GT ISZERO PUSH2 0xDD1 JUMPI DUP2 DUP6 PUSH1 0x20 ADD SWAP1 PUSH1 0xFF AND SWAP1 DUP2 PUSH1 0xFF AND DUP2 MSTORE POP POP PUSH2 0xDF2 JUMP JUMPDEST DUP1 DUP5 PUSH2 0xDDD SWAP2 SWAP1 PUSH2 0x1274 JUMP JUMPDEST SWAP4 POP DUP2 DUP1 PUSH2 0xDEA SWAP1 PUSH2 0x144D JUMP JUMPDEST SWAP3 POP POP PUSH2 0xD7B JUMP JUMPDEST PUSH1 0x1 SWAP2 POP JUMPDEST PUSH2 0xE09 DUP6 PUSH1 0x20 ADD MLOAD DUP7 PUSH1 0x0 ADD MLOAD PUSH2 0xBD9 JUMP JUMPDEST PUSH1 0xFF AND DUP3 PUSH1 0xFF AND GT PUSH2 0xE66 JUMPI DUP6 DUP5 PUSH3 0x15180 PUSH2 0xE25 SWAP2 SWAP1 PUSH2 0x1274 JUMP JUMPDEST GT ISZERO PUSH2 0xE42 JUMPI DUP2 DUP6 PUSH1 0x40 ADD SWAP1 PUSH1 0xFF AND SWAP1 DUP2 PUSH1 0xFF AND DUP2 MSTORE POP POP PUSH2 0xE66 JUMP JUMPDEST PUSH3 0x15180 DUP5 PUSH2 0xE51 SWAP2 SWAP1 PUSH2 0x1274 JUMP JUMPDEST SWAP4 POP DUP2 DUP1 PUSH2 0xE5E SWAP1 PUSH2 0x144D JUMP JUMPDEST SWAP3 POP POP PUSH2 0xDF7 JUMP JUMPDEST PUSH2 0xE6F DUP7 PUSH2 0x38F JUMP JUMPDEST DUP6 PUSH1 0x60 ADD SWAP1 PUSH1 0xFF AND SWAP1 DUP2 PUSH1 0xFF AND DUP2 MSTORE POP POP PUSH2 0xE89 DUP7 PUSH2 0xCA5 JUMP JUMPDEST DUP6 PUSH1 0x80 ADD SWAP1 PUSH1 0xFF AND SWAP1 DUP2 PUSH1 0xFF AND DUP2 MSTORE POP POP PUSH2 0xEA3 DUP7 PUSH2 0x439 JUMP JUMPDEST DUP6 PUSH1 0xA0 ADD SWAP1 PUSH1 0xFF AND SWAP1 DUP2 PUSH1 0xFF AND DUP2 MSTORE POP POP PUSH2 0xEBD DUP7 PUSH2 0x3BC JUMP JUMPDEST DUP6 PUSH1 0xC0 ADD SWAP1 PUSH1 0xFF AND SWAP1 DUP2 PUSH1 0xFF AND DUP2 MSTORE POP POP POP POP POP POP SWAP2 SWAP1 POP JUMP JUMPDEST PUSH1 0x40 MLOAD DUP1 PUSH2 0x180 ADD PUSH1 0x40 MSTORE DUP1 PUSH1 0xC SWAP1 PUSH1 0x20 DUP3 MUL DUP1 CALLDATASIZE DUP4 CALLDATACOPY DUP1 DUP3 ADD SWAP2 POP POP SWAP1 POP POP SWAP1 JUMP JUMPDEST PUSH1 0x40 MLOAD DUP1 PUSH1 0xE0 ADD PUSH1 0x40 MSTORE DUP1 PUSH1 0x0 PUSH2 0xFFFF AND DUP2 MSTORE PUSH1 0x20 ADD PUSH1 0x0 PUSH1 0xFF AND DUP2 MSTORE PUSH1 0x20 ADD PUSH1 0x0 PUSH1 0xFF AND DUP2 MSTORE PUSH1 0x20 ADD PUSH1 0x0 PUSH1 0xFF AND DUP2 MSTORE PUSH1 0x20 ADD PUSH1 0x0 PUSH1 0xFF AND DUP2 MSTORE PUSH1 0x20 ADD PUSH1 0x0 PUSH1 0xFF AND DUP2 MSTORE PUSH1 0x20 ADD PUSH1 0x0 PUSH1 0xFF AND DUP2 MSTORE POP SWAP1 JUMP JUMPDEST PUSH1 0x0 DUP2 CALLDATALOAD SWAP1 POP PUSH2 0xF5C DUP2 PUSH2 0x1537 JUMP JUMPDEST SWAP3 SWAP2 POP POP JUMP JUMPDEST PUSH1 0x0 DUP2 CALLDATALOAD SWAP1 POP PUSH2 0xF71 DUP2 PUSH2 0x154E JUMP JUMPDEST SWAP3 SWAP2 POP POP JUMP JUMPDEST PUSH1 0x0 DUP2 CALLDATALOAD SWAP1 POP PUSH2 0xF86 DUP2 PUSH2 0x1565 JUMP JUMPDEST SWAP3 SWAP2 POP POP JUMP JUMPDEST PUSH1 0x0 PUSH1 0x20 DUP3 DUP5 SUB SLT ISZERO PUSH2 0xF9E JUMPI PUSH1 0x0 DUP1 REVERT JUMPDEST PUSH1 0x0 PUSH2 0xFAC DUP5 DUP3 DUP6 ADD PUSH2 0xF4D JUMP JUMPDEST SWAP2 POP POP SWAP3 SWAP2 POP POP JUMP JUMPDEST PUSH1 0x0 DUP1 PUSH1 0x0 PUSH1 0x60 DUP5 DUP7 SUB SLT ISZERO PUSH2 0xFCA JUMPI PUSH1 0x0 DUP1 REVERT JUMPDEST PUSH1 0x0 PUSH2 0xFD8 DUP7 DUP3 DUP8 ADD PUSH2 0xF4D JUMP JUMPDEST SWAP4 POP POP PUSH1 0x20 PUSH2 0xFE9 DUP7 DUP3 DUP8 ADD PUSH2 0xF77 JUMP JUMPDEST SWAP3 POP POP PUSH1 0x40 PUSH2 0xFFA DUP7 DUP3 DUP8 ADD PUSH2 0xF77 JUMP JUMPDEST SWAP2 POP POP SWAP3 POP SWAP3 POP SWAP3 JUMP JUMPDEST PUSH1 0x0 DUP1 PUSH1 0x0 DUP1 PUSH1 0x80 DUP6 DUP8 SUB SLT ISZERO PUSH2 0x101A JUMPI PUSH1 0x0 DUP1 REVERT JUMPDEST PUSH1 0x0 PUSH2 0x1028 DUP8 DUP3 DUP9 ADD PUSH2 0xF4D JUMP JUMPDEST SWAP5 POP POP PUSH1 0x20 PUSH2 0x1039 DUP8 DUP3 DUP9 ADD PUSH2 0xF77 JUMP JUMPDEST SWAP4 POP POP PUSH1 0x40 PUSH2 0x104A DUP8 DUP3 DUP9 ADD PUSH2 0xF77 JUMP JUMPDEST SWAP3 POP POP PUSH1 0x60 PUSH2 0x105B DUP8 DUP3 DUP9 ADD PUSH2 0xF77 JUMP JUMPDEST SWAP2 POP POP SWAP3 SWAP6 SWAP2 SWAP5 POP SWAP3 POP JUMP JUMPDEST PUSH1 0x0 DUP1 PUSH1 0x0 DUP1 PUSH1 0x0 PUSH1 0xA0 DUP7 DUP9 SUB SLT ISZERO PUSH2 0x107F JUMPI PUSH1 0x0 DUP1 REVERT JUMPDEST PUSH1 0x0 PUSH2 0x108D DUP9 DUP3 DUP10 ADD PUSH2 0xF4D JUMP JUMPDEST SWAP6 POP POP PUSH1 0x20 PUSH2 0x109E DUP9 DUP3 DUP10 ADD PUSH2 0xF77 JUMP JUMPDEST SWAP5 POP POP PUSH1 0x40 PUSH2 0x10AF DUP9 DUP3 DUP10 ADD PUSH2 0xF77 JUMP JUMPDEST SWAP4 POP POP PUSH1 0x60 PUSH2 0x10C0 DUP9 DUP3 DUP10 ADD PUSH2 0xF77 JUMP JUMPDEST SWAP3 POP POP PUSH1 0x80 PUSH2 0x10D1 DUP9 DUP3 DUP10 ADD PUSH2 0xF77 JUMP JUMPDEST SWAP2 POP POP SWAP3 SWAP6 POP SWAP3 SWAP6 SWAP1 SWAP4 POP JUMP JUMPDEST PUSH1 0x0 DUP1 PUSH1 0x0 DUP1 PUSH1 0x0 DUP1 PUSH1 0xC0 DUP8 DUP10 SUB SLT ISZERO PUSH2 0x10F7 JUMPI PUSH1 0x0 DUP1 REVERT JUMPDEST PUSH1 0x0 PUSH2 0x1105 DUP10 DUP3 DUP11 ADD PUSH2 0xF4D JUMP JUMPDEST SWAP7 POP POP PUSH1 0x20 PUSH2 0x1116 DUP10 DUP3 DUP11 ADD PUSH2 0xF77 JUMP JUMPDEST SWAP6 POP POP PUSH1 0x40 PUSH2 0x1127 DUP10 DUP3 DUP11 ADD PUSH2 0xF77 JUMP JUMPDEST SWAP5 POP POP PUSH1 0x60 PUSH2 0x1138 DUP10 DUP3 DUP11 ADD PUSH2 0xF77 JUMP JUMPDEST SWAP4 POP POP PUSH1 0x80 PUSH2 0x1149 DUP10 DUP3 DUP11 ADD PUSH2 0xF77 JUMP JUMPDEST SWAP3 POP POP PUSH1 0xA0 PUSH2 0x115A DUP10 DUP3 DUP11 ADD PUSH2 0xF77 JUMP JUMPDEST SWAP2 POP POP SWAP3 SWAP6 POP SWAP3 SWAP6 POP SWAP3 SWAP6 JUMP JUMPDEST PUSH1 0x0 PUSH1 0x20 DUP3 DUP5 SUB SLT ISZERO PUSH2 0x1179 JUMPI PUSH1 0x0 DUP1 REVERT JUMPDEST PUSH1 0x0 PUSH2 0x1187 DUP5 DUP3 DUP6 ADD PUSH2 0xF62 JUMP JUMPDEST SWAP2 POP POP SWAP3 SWAP2 POP POP JUMP JUMPDEST PUSH1 0x0 DUP1 PUSH1 0x40 DUP4 DUP6 SUB SLT ISZERO PUSH2 0x11A3 JUMPI PUSH1 0x0 DUP1 REVERT JUMPDEST PUSH1 0x0 PUSH2 0x11B1 DUP6 DUP3 DUP7 ADD PUSH2 0xF77 JUMP JUMPDEST SWAP3 POP POP PUSH1 0x20 PUSH2 0x11C2 DUP6 DUP3 DUP7 ADD PUSH2 0xF4D JUMP JUMPDEST SWAP2 POP POP SWAP3 POP SWAP3 SWAP1 POP JUMP JUMPDEST PUSH2 0x11D5 DUP2 PUSH2 0x13F1 JUMP JUMPDEST DUP3 MSTORE POP POP JUMP JUMPDEST PUSH2 0x11E4 DUP2 PUSH2 0x13FD JUMP JUMPDEST DUP3 MSTORE POP POP JUMP JUMPDEST PUSH2 0x11F3 DUP2 PUSH2 0x140B JUMP JUMPDEST DUP3 MSTORE POP POP JUMP JUMPDEST PUSH2 0x1202 DUP2 PUSH2 0x1415 JUMP JUMPDEST DUP3 MSTORE POP POP JUMP JUMPDEST PUSH1 0x0 PUSH1 0x20 DUP3 ADD SWAP1 POP PUSH2 0x121D PUSH1 0x0 DUP4 ADD DUP5 PUSH2 0x11CC JUMP JUMPDEST SWAP3 SWAP2 POP POP JUMP JUMPDEST PUSH1 0x0 PUSH1 0x20 DUP3 ADD SWAP1 POP PUSH2 0x1238 PUSH1 0x0 DUP4 ADD DUP5 PUSH2 0x11DB JUMP JUMPDEST SWAP3 SWAP2 POP POP JUMP JUMPDEST PUSH1 0x0 PUSH1 0x20 DUP3 ADD SWAP1 POP PUSH2 0x1253 PUSH1 0x0 DUP4 ADD DUP5 PUSH2 0x11EA JUMP JUMPDEST SWAP3 SWAP2 POP POP JUMP JUMPDEST PUSH1 0x0 PUSH1 0x20 DUP3 ADD SWAP1 POP PUSH2 0x126E PUSH1 0x0 DUP4 ADD DUP5 PUSH2 0x11F9 JUMP JUMPDEST SWAP3 SWAP2 POP POP JUMP JUMPDEST PUSH1 0x0 PUSH2 0x127F DUP3 PUSH2 0x140B JUMP JUMPDEST SWAP2 POP PUSH2 0x128A DUP4 PUSH2 0x140B JUMP JUMPDEST SWAP3 POP DUP3 PUSH32 0xFFFFFFFFFFFFFFFFFFFFFFFFFFFFFFFFFFFFFFFFFFFFFFFFFFFFFFFFFFFFFFFF SUB DUP3 GT ISZERO PUSH2 0x12BF JUMPI PUSH2 0x12BE PUSH2 0x14D9 JUMP JUMPDEST JUMPDEST DUP3 DUP3 ADD SWAP1 POP SWAP3 SWAP2 POP POP JUMP JUMPDEST PUSH1 0x0 PUSH2 0x12D5 DUP3 PUSH2 0x140B JUMP JUMPDEST SWAP2 POP PUSH2 0x12E0 DUP4 PUSH2 0x140B JUMP JUMPDEST SWAP3 POP DUP3 PUSH2 0x12F0 JUMPI PUSH2 0x12EF PUSH2 0x1508 JUMP JUMPDEST JUMPDEST DUP3 DUP3 DIV SWAP1 POP SWAP3 SWAP2 POP POP JUMP JUMPDEST PUSH1 0x0 PUSH2 0x1306 DUP3 PUSH2 0x140B JUMP JUMPDEST SWAP2 POP PUSH2 0x1311 DUP4 PUSH2 0x140B JUMP JUMPDEST SWAP3 POP DUP2 PUSH32 0xFFFFFFFFFFFFFFFFFFFFFFFFFFFFFFFFFFFFFFFFFFFFFFFFFFFFFFFFFFFFFFFF DIV DUP4 GT DUP3 ISZERO ISZERO AND ISZERO PUSH2 0x134A JUMPI PUSH2 0x1349 PUSH2 0x14D9 JUMP JUMPDEST JUMPDEST DUP3 DUP3 MUL SWAP1 POP SWAP3 SWAP2 POP POP JUMP JUMPDEST PUSH1 0x0 PUSH2 0x1360 DUP3 PUSH2 0x13FD JUMP JUMPDEST SWAP2 POP PUSH2 0x136B DUP4 PUSH2 0x13FD JUMP JUMPDEST SWAP3 POP DUP3 DUP3 LT ISZERO PUSH2 0x137E JUMPI PUSH2 0x137D PUSH2 0x14D9 JUMP JUMPDEST JUMPDEST DUP3 DUP3 SUB SWAP1 POP SWAP3 SWAP2 POP POP JUMP JUMPDEST PUSH1 0x0 PUSH2 0x1394 DUP3 PUSH2 0x140B JUMP JUMPDEST SWAP2 POP PUSH2 0x139F DUP4 PUSH2 0x140B JUMP JUMPDEST SWAP3 POP DUP3 DUP3 LT ISZERO PUSH2 0x13B2 JUMPI PUSH2 0x13B1 PUSH2 0x14D9 JUMP JUMPDEST JUMPDEST DUP3 DUP3 SUB SWAP1 POP SWAP3 SWAP2 POP POP JUMP JUMPDEST PUSH1 0x0 PUSH2 0x13C8 DUP3 PUSH2 0x1415 JUMP JUMPDEST SWAP2 POP PUSH2 0x13D3 DUP4 PUSH2 0x1415 JUMP JUMPDEST SWAP3 POP DUP3 DUP3 LT ISZERO PUSH2 0x13E6 JUMPI PUSH2 0x13E5 PUSH2 0x14D9 JUMP JUMPDEST JUMPDEST DUP3 DUP3 SUB SWAP1 POP SWAP3 SWAP2 POP POP JUMP JUMPDEST PUSH1 0x0 DUP2 ISZERO ISZERO SWAP1 POP SWAP2 SWAP1 POP JUMP JUMPDEST PUSH1 0x0 PUSH2 0xFFFF DUP3 AND SWAP1 POP SWAP2 SWAP1 POP JUMP JUMPDEST PUSH1 0x0 DUP2 SWAP1 POP SWAP2 SWAP1 POP JUMP JUMPDEST PUSH1 0x0 PUSH1 0xFF DUP3 AND SWAP1 POP SWAP2 SWAP1 POP JUMP JUMPDEST PUSH1 0x0 PUSH2 0x142D DUP3 PUSH2 0x13FD JUMP JUMPDEST SWAP2 POP PUSH2 0xFFFF DUP3 EQ ISZERO PUSH2 0x1442 JUMPI PUSH2 0x1441 PUSH2 0x14D9 JUMP JUMPDEST JUMPDEST PUSH1 0x1 DUP3 ADD SWAP1 POP SWAP2 SWAP1 POP JUMP JUMPDEST PUSH1 0x0 PUSH2 0x1458 DUP3 PUSH2 0x1415 JUMP JUMPDEST SWAP2 POP PUSH1 0xFF DUP3 EQ ISZERO PUSH2 0x146C JUMPI PUSH2 0x146B PUSH2 0x14D9 JUMP JUMPDEST JUMPDEST PUSH1 0x1 DUP3 ADD SWAP1 POP SWAP2 SWAP1 POP JUMP JUMPDEST PUSH1 0x0 PUSH2 0x1482 DUP3 PUSH2 0x13FD JUMP JUMPDEST SWAP2 POP PUSH2 0x148D DUP4 PUSH2 0x13FD JUMP JUMPDEST SWAP3 POP DUP3 PUSH2 0x149D JUMPI PUSH2 0x149C PUSH2 0x1508 JUMP JUMPDEST JUMPDEST DUP3 DUP3 MOD SWAP1 POP SWAP3 SWAP2 POP POP JUMP JUMPDEST PUSH1 0x0 PUSH2 0x14B3 DUP3 PUSH2 0x140B JUMP JUMPDEST SWAP2 POP PUSH2 0x14BE DUP4 PUSH2 0x140B JUMP JUMPDEST SWAP3 POP DUP3 PUSH2 0x14CE JUMPI PUSH2 0x14CD PUSH2 0x1508 JUMP JUMPDEST JUMPDEST DUP3 DUP3 MOD SWAP1 POP SWAP3 SWAP2 POP POP JUMP JUMPDEST PUSH32 0x4E487B7100000000000000000000000000000000000000000000000000000000 PUSH1 0x0 MSTORE PUSH1 0x11 PUSH1 0x4 MSTORE PUSH1 0x24 PUSH1 0x0 REVERT JUMPDEST PUSH32 0x4E487B7100000000000000000000000000000000000000000000000000000000 PUSH1 0x0 MSTORE PUSH1 0x12 PUSH1 0x4 MSTORE PUSH1 0x24 PUSH1 0x0 REVERT JUMPDEST PUSH2 0x1540 DUP2 PUSH2 0x13FD JUMP JUMPDEST DUP2 EQ PUSH2 0x154B JUMPI PUSH1 0x0 DUP1 REVERT JUMPDEST POP JUMP JUMPDEST PUSH2 0x1557 DUP2 PUSH2 0x140B JUMP JUMPDEST DUP2 EQ PUSH2 0x1562 JUMPI PUSH1 0x0 DUP1 REVERT JUMPDEST POP JUMP JUMPDEST PUSH2 0x156E DUP2 PUSH2 0x1415 JUMP JUMPDEST DUP2 EQ PUSH2 0x1579 JUMPI PUSH1 0x0 DUP1 REVERT JUMPDEST POP JUMP INVALID LOG2 PUSH5 0x6970667358 0x22 SLT KECCAK256 PUSH23 0x2FD4BB28513E66EC4827FE560802DF0D913962E180200E 0xD8 EXP 0xEC 0xDD PUSH31 0xC2CC9A64736F6C634300080000330000000000000000000000000000000000 "
        },
        "gasEstimates": {
          "creation": {
            "codeDepositCost": "1110800",
            "executionCost": "1154",
            "totalCost": "1111954"
          },
          "external": {
            "getDay(uint256)": "infinite",
            "getDaysInMonth(uint8,uint16)": "infinite",
            "getHour(uint256)": "infinite",
            "getMinute(uint256)": "infinite",
            "getMonth(uint256)": "infinite",
            "getSecond(uint256)": "infinite",
            "getWeekday(uint256)": "infinite",
            "getYear(uint256)": "infinite",
            "isLeapYear(uint16)": "infinite",
            "leapYearsBefore(uint256)": "infinite",
            "toTimestamp(uint16,uint8,uint8)": "infinite",
            "toTimestamp(uint16,uint8,uint8,uint8)": "infinite",
            "toTimestamp(uint16,uint8,uint8,uint8,uint8)": "infinite",
            "toTimestamp(uint16,uint8,uint8,uint8,uint8,uint8)": "infinite"
          },
          "internal": {
            "parseTimestamp(uint256)": "infinite"
          }
        },
        "methodIdentifiers": {
          "getDay(uint256)": "65c72840",
          "getDaysInMonth(uint8,uint16)": "b238ad0e",
          "getHour(uint256)": "3e239e1a",
          "getMinute(uint256)": "fa93f883",
          "getMonth(uint256)": "a324ad24",
          "getSecond(uint256)": "8aa001fc",
          "getWeekday(uint256)": "4ac1ad78",
          "getYear(uint256)": "92d66313",
          "isLeapYear(uint16)": "a6f0e577",
          "leapYearsBefore(uint256)": "b1999937",
          "toTimestamp(uint16,uint8,uint8)": "8c8d98a0",
          "toTimestamp(uint16,uint8,uint8,uint8)": "7f791833",
          "toTimestamp(uint16,uint8,uint8,uint8,uint8)": "62ba9687",
          "toTimestamp(uint16,uint8,uint8,uint8,uint8,uint8)": "9054bdec"
        }
      },
      "storageLayout": {
        "storage": [],
        "types": null
      },
      "userdoc": {
        "kind": "user",
        "methods": {},
        "version": 1
      }
    }
  }
}