{
  "address": "0xBe086794f6787b5Bf95FAE476E75986DDBbAA42f",
  "abi": [
    {
      "inputs": [
        {
          "internalType": "contract FakeUSDToken",
          "name": "token",
          "type": "address"
        }
      ],
      "stateMutability": "nonpayable",
      "type": "constructor"
    },
    {
      "anonymous": false,
      "inputs": [
        {
          "indexed": true,
          "internalType": "address",
          "name": "_boss",
          "type": "address"
        },
        {
          "indexed": true,
          "internalType": "address",
          "name": "_employee",
          "type": "address"
        }
      ],
      "name": "fireEvent",
      "type": "event"
    },
    {
      "anonymous": false,
      "inputs": [
        {
          "indexed": true,
          "internalType": "address",
          "name": "_boss",
          "type": "address"
        },
        {
          "indexed": true,
          "internalType": "address",
          "name": "_employee",
          "type": "address"
        }
      ],
      "name": "hireEvent",
      "type": "event"
    },
    {
      "anonymous": false,
      "inputs": [
        {
          "indexed": true,
          "internalType": "address",
          "name": "_boss",
          "type": "address"
        },
        {
          "indexed": true,
          "internalType": "address",
          "name": "_employee",
          "type": "address"
        }
      ],
      "name": "payEmployeeEvent",
      "type": "event"
    },
    {
      "anonymous": false,
      "inputs": [
        {
          "indexed": true,
          "internalType": "address",
          "name": "_address",
          "type": "address"
        }
      ],
      "name": "quitJobAndWithDrawAllEvent",
      "type": "event"
    },
    {
      "anonymous": false,
      "inputs": [
        {
          "indexed": true,
          "internalType": "address",
          "name": "_boss",
          "type": "address"
        }
      ],
      "name": "sharedBonusDepositEvent",
      "type": "event"
    },
    {
      "anonymous": false,
      "inputs": [
        {
          "indexed": true,
          "internalType": "address",
          "name": "_address",
          "type": "address"
        }
      ],
      "name": "withDrawnAllEvent",
      "type": "event"
    },
    {
      "inputs": [
        {
          "internalType": "address",
          "name": "_address",
          "type": "address"
        }
      ],
      "name": "alreadyPaid",
      "outputs": [
        {
          "internalType": "bool",
          "name": "",
          "type": "bool"
        }
      ],
      "stateMutability": "view",
      "type": "function"
    },
    {
      "inputs": [],
      "name": "currency",
      "outputs": [
        {
          "internalType": "contract FakeUSDToken",
          "name": "",
          "type": "address"
        }
      ],
      "stateMutability": "view",
      "type": "function"
    },
    {
      "inputs": [
        {
          "internalType": "address",
          "name": "",
          "type": "address"
        }
      ],
      "name": "employee",
      "outputs": [
        {
          "internalType": "address",
          "name": "boss",
          "type": "address"
        },
        {
          "internalType": "string",
          "name": "name",
          "type": "string"
        },
        {
          "internalType": "string",
          "name": "position",
          "type": "string"
        },
        {
          "internalType": "address",
          "name": "_address",
          "type": "address"
        },
        {
          "internalType": "bool",
          "name": "employed",
          "type": "bool"
        },
        {
          "internalType": "uint256",
          "name": "salary",
          "type": "uint256"
        },
        {
          "internalType": "uint256",
          "name": "paymentDate",
          "type": "uint256"
        },
        {
          "internalType": "uint256",
          "name": "balance",
          "type": "uint256"
        },
        {
          "internalType": "uint256",
          "name": "oldBalance",
          "type": "uint256"
        }
      ],
      "stateMutability": "view",
      "type": "function"
    },
    {
      "inputs": [
        {
          "internalType": "address",
          "name": "_address",
          "type": "address"
        }
      ],
      "name": "fire",
      "outputs": [],
      "stateMutability": "nonpayable",
      "type": "function"
    },
    {
      "inputs": [
        {
          "internalType": "address",
          "name": "_address",
          "type": "address"
        },
        {
          "internalType": "string",
          "name": "_name",
          "type": "string"
        },
        {
          "internalType": "string",
          "name": "_position",
          "type": "string"
        },
        {
          "internalType": "uint256",
          "name": "_salary",
          "type": "uint256"
        }
      ],
      "name": "hire",
      "outputs": [],
      "stateMutability": "nonpayable",
      "type": "function"
    },
    {
      "inputs": [
        {
          "internalType": "address",
          "name": "",
          "type": "address"
        }
      ],
      "name": "job",
      "outputs": [
        {
          "internalType": "address",
          "name": "boss",
          "type": "address"
        },
        {
          "internalType": "uint256",
          "name": "balance",
          "type": "uint256"
        }
      ],
      "stateMutability": "view",
      "type": "function"
    },
    {
      "inputs": [],
      "name": "myEmployees",
      "outputs": [
        {
          "components": [
            {
              "internalType": "address",
              "name": "boss",
              "type": "address"
            },
            {
              "internalType": "string",
              "name": "name",
              "type": "string"
            },
            {
              "internalType": "string",
              "name": "position",
              "type": "string"
            },
            {
              "internalType": "address",
              "name": "_address",
              "type": "address"
            },
            {
              "internalType": "bool",
              "name": "employed",
              "type": "bool"
            },
            {
              "internalType": "uint256",
              "name": "salary",
              "type": "uint256"
            },
            {
              "internalType": "uint256",
              "name": "paymentDate",
              "type": "uint256"
            },
            {
              "internalType": "uint256",
              "name": "balance",
              "type": "uint256"
            },
            {
              "internalType": "uint256",
              "name": "oldBalance",
              "type": "uint256"
            }
          ],
          "internalType": "struct Allowance.Employee[]",
          "name": "",
          "type": "tuple[]"
        }
      ],
      "stateMutability": "view",
      "type": "function"
    },
    {
      "inputs": [
        {
          "internalType": "address",
          "name": "_address",
          "type": "address"
        }
      ],
      "name": "payEmployee",
      "outputs": [],
      "stateMutability": "nonpayable",
      "type": "function"
    },
    {
      "inputs": [],
      "name": "quitJobAndWithDrawAll",
      "outputs": [],
      "stateMutability": "nonpayable",
      "type": "function"
    },
    {
      "inputs": [
        {
          "internalType": "uint256",
          "name": "_amount",
          "type": "uint256"
        }
      ],
      "name": "sharedBonusDeposit",
      "outputs": [],
      "stateMutability": "nonpayable",
      "type": "function"
    },
    {
      "inputs": [],
      "name": "withdrawAll",
      "outputs": [],
      "stateMutability": "nonpayable",
      "type": "function"
    }
  ],
  "transactionHash": "0x842496137aeda7555397084bafd930b5f55da8b09821bdf590baa58738a128ed",
  "args": [
    "0x966Ac7Fbad28f8096a3f2bF147614A84BA1218a0"
  ],
  "solcInputHash": "4896f991a3e7ec63124876b727549ad2",
  "bytecode": "0x60806040523480156200001157600080fd5b50604051620044fd380380620044fd833981810160405281019062000037919062000095565b806000806101000a81548173ffffffffffffffffffffffffffffffffffffffff021916908373ffffffffffffffffffffffffffffffffffffffff1602179055505062000123565b6000815190506200008f8162000109565b92915050565b600060208284031215620000a857600080fd5b6000620000b8848285016200007e565b91505092915050565b6000620000ce82620000e9565b9050919050565b6000620000e282620000c1565b9050919050565b600073ffffffffffffffffffffffffffffffffffffffff82169050919050565b6200011481620000d5565b81146200012057600080fd5b50565b6143ca80620001336000396000f3fe608060405234801561001057600080fd5b50600436106100a95760003560e01c80637885c960116100715780637885c9601461017f57806384f6c6b01461019b578063853828b6146101b9578063a8fd99a7146101c3578063d83e6af6146101cd578063e5a6b10f146101e9576100a9565b80630947d0d0146100ae57806309d495fd146100df5780631f3d793e146101175780631f50ad1614610147578063657b53a914610163575b600080fd5b6100c860048036038101906100c39190613479565b610207565b6040516100d6929190613c5f565b60405180910390f35b6100f960048036038101906100f49190613479565b61024b565b60405161010e99989796959493929190613bc4565b60405180910390f35b610131600480360381019061012c9190613479565b6103f6565b60405161013e9190613caa565b60405180910390f35b610161600480360381019061015c9190613479565b6106fc565b005b61017d600480360381019061017891906134a2565b610c1c565b005b61019960048036038101906101949190613479565b6112d4565b005b6101a3611646565b6040516101b09190613c88565b60405180910390f35b6101c1611a87565b005b6101cb611ce2565b005b6101e760048036038101906101e2919061355e565b611fee565b005b6101f1612c03565b6040516101fe9190613cc5565b60405180910390f35b60016020528060005260406000206000915090508060000160009054906101000a900473ffffffffffffffffffffffffffffffffffffffff16908060020154905082565b60026020528060005260406000206000915090508060000160009054906101000a900473ffffffffffffffffffffffffffffffffffffffff16908060010180546102949061417b565b80601f01602080910402602001604051908101604052809291908181526020018280546102c09061417b565b801561030d5780601f106102e25761010080835404028352916020019161030d565b820191906000526020600020905b8154815290600101906020018083116102f057829003601f168201915b5050505050908060020180546103229061417b565b80601f016020809104026020016040519081016040528092919081815260200182805461034e9061417b565b801561039b5780601f106103705761010080835404028352916020019161039b565b820191906000526020600020905b81548152906001019060200180831161037e57829003601f168201915b5050505050908060030160009054906101000a900473ffffffffffffffffffffffffffffffffffffffff16908060030160149054906101000a900460ff16908060040154908060050154908060060154908060070154905089565b60008160011515600260008373ffffffffffffffffffffffffffffffffffffffff1673ffffffffffffffffffffffffffffffffffffffff16815260200190815260200160002060030160149054906101000a900460ff1615151461048f576040517f08c379a000000000000000000000000000000000000000000000000000000000815260040161048690613df0565b60405180910390fd5b3373ffffffffffffffffffffffffffffffffffffffff16600260008373ffffffffffffffffffffffffffffffffffffffff1673ffffffffffffffffffffffffffffffffffffffff16815260200190815260200160002060000160009054906101000a900473ffffffffffffffffffffffffffffffffffffffff1673ffffffffffffffffffffffffffffffffffffffff161461055f576040517f08c379a000000000000000000000000000000000000000000000000000000000815260040161055690613db0565b60405180910390fd5b6105eb6040518060400160405280601181526020017f7061796d656e74206d6f6e7468202573200000000000000000000000000000008152506105e3600260008773ffffffffffffffffffffffffffffffffffffffff1673ffffffffffffffffffffffffffffffffffffffff16815260200190815260200160002060050154612c27565b60ff16612c3d565b6106356040518060400160405280601181526020017f63757272656e74206d6f6e74682025732000000000000000000000000000000081525061062d42612c27565b60ff16612c3d565b6000600260008573ffffffffffffffffffffffffffffffffffffffff1673ffffffffffffffffffffffffffffffffffffffff16815260200190815260200160002060050154141561068957600091506106f6565b61069242612c27565b60ff166106e0600260008673ffffffffffffffffffffffffffffffffffffffff1673ffffffffffffffffffffffffffffffffffffffff16815260200190815260200160002060050154612c27565b60ff16146106f157600091506106f6565b600191505b50919050565b8060011515600260008373ffffffffffffffffffffffffffffffffffffffff1673ffffffffffffffffffffffffffffffffffffffff16815260200190815260200160002060030160149054906101000a900460ff16151514610793576040517f08c379a000000000000000000000000000000000000000000000000000000000815260040161078a90613df0565b60405180910390fd5b3373ffffffffffffffffffffffffffffffffffffffff16600260008373ffffffffffffffffffffffffffffffffffffffff1673ffffffffffffffffffffffffffffffffffffffff16815260200190815260200160002060000160009054906101000a900473ffffffffffffffffffffffffffffffffffffffff1673ffffffffffffffffffffffffffffffffffffffff1614610863576040517f08c379a000000000000000000000000000000000000000000000000000000000815260040161085a90613db0565b60405180910390fd5b8160001515610871826103f6565b1515146108b3576040517f08c379a00000000000000000000000000000000000000000000000000000000081526004016108aa90613d10565b60405180910390fd5b60008060009054906101000a900473ffffffffffffffffffffffffffffffffffffffff1673ffffffffffffffffffffffffffffffffffffffff1663dd62ed3e33306040518363ffffffff1660e01b8152600401610911929190613b3b565b60206040518083038186803b15801561092957600080fd5b505afa15801561093d573d6000803e3d6000fd5b505050506040513d601f19601f820116820180604052508101906109619190613587565b9050600260008573ffffffffffffffffffffffffffffffffffffffff1673ffffffffffffffffffffffffffffffffffffffff168152602001908152602001600020600401548110156109e8576040517f08c379a00000000000000000000000000000000000000000000000000000000081526004016109df90613e70565b60405180910390fd5b42600260008673ffffffffffffffffffffffffffffffffffffffff1673ffffffffffffffffffffffffffffffffffffffff16815260200190815260200160002060050181905550600260008573ffffffffffffffffffffffffffffffffffffffff1673ffffffffffffffffffffffffffffffffffffffff16815260200190815260200160002060040154600260008673ffffffffffffffffffffffffffffffffffffffff1673ffffffffffffffffffffffffffffffffffffffff1681526020019081526020016000206006016000828254610ac39190613f57565b9250508190555060008054906101000a900473ffffffffffffffffffffffffffffffffffffffff1673ffffffffffffffffffffffffffffffffffffffff166323b872dd3330600260008973ffffffffffffffffffffffffffffffffffffffff1673ffffffffffffffffffffffffffffffffffffffff168152602001908152602001600020600401546040518463ffffffff1660e01b8152600401610b6993929190613b64565b602060405180830381600087803b158015610b8357600080fd5b505af1158015610b97573d6000803e3d6000fd5b505050506040513d601f19601f82011682018060405250810190610bbb9190613535565b508373ffffffffffffffffffffffffffffffffffffffff163373ffffffffffffffffffffffffffffffffffffffff167f16c5f0bd1ec5ee2da1864c33fe61107acbb5e390898eb24526a5714eddc9cd5460405160405180910390a350505050565b8360001515600260008373ffffffffffffffffffffffffffffffffffffffff1673ffffffffffffffffffffffffffffffffffffffff16815260200190815260200160002060030160149054906101000a900460ff16151514610cb3576040517f08c379a0000000000000000000000000000000000000000000000000000000008152600401610caa90613d50565b60405180910390fd5b8473ffffffffffffffffffffffffffffffffffffffff163373ffffffffffffffffffffffffffffffffffffffff161415610d22576040517f08c379a0000000000000000000000000000000000000000000000000000000008152600401610d1990613d70565b60405180910390fd5b600073ffffffffffffffffffffffffffffffffffffffff16600160003373ffffffffffffffffffffffffffffffffffffffff1673ffffffffffffffffffffffffffffffffffffffff16815260200190815260200160002060000160009054906101000a900473ffffffffffffffffffffffffffffffffffffffff1673ffffffffffffffffffffffffffffffffffffffff161415610ed25733600160003373ffffffffffffffffffffffffffffffffffffffff1673ffffffffffffffffffffffffffffffffffffffff16815260200190815260200160002060000160006101000a81548173ffffffffffffffffffffffffffffffffffffffff021916908373ffffffffffffffffffffffffffffffffffffffff16021790555060008054906101000a900473ffffffffffffffffffffffffffffffffffffffff1673ffffffffffffffffffffffffffffffffffffffff16636bdbc96a3369010f0cf064dd592000006040518363ffffffff1660e01b8152600401610e9f929190613b9b565b600060405180830381600087803b158015610eb957600080fd5b505af1158015610ecd573d6000803e3d6000fd5b505050505b60008573ffffffffffffffffffffffffffffffffffffffff16600260008873ffffffffffffffffffffffffffffffffffffffff1673ffffffffffffffffffffffffffffffffffffffff16815260200190815260200160002060030160009054906101000a900473ffffffffffffffffffffffffffffffffffffffff1673ffffffffffffffffffffffffffffffffffffffff161415610f6f57600190505b6001600260008873ffffffffffffffffffffffffffffffffffffffff1673ffffffffffffffffffffffffffffffffffffffff16815260200190815260200160002060030160146101000a81548160ff02191690831515021790555084600260008873ffffffffffffffffffffffffffffffffffffffff1673ffffffffffffffffffffffffffffffffffffffff168152602001908152602001600020600101908051906020019061102092919061324d565b5083600260008873ffffffffffffffffffffffffffffffffffffffff1673ffffffffffffffffffffffffffffffffffffffff168152602001908152602001600020600201908051906020019061107792919061324d565b5085600260008873ffffffffffffffffffffffffffffffffffffffff1673ffffffffffffffffffffffffffffffffffffffff16815260200190815260200160002060030160006101000a81548173ffffffffffffffffffffffffffffffffffffffff021916908373ffffffffffffffffffffffffffffffffffffffff16021790555033600260008873ffffffffffffffffffffffffffffffffffffffff1673ffffffffffffffffffffffffffffffffffffffff16815260200190815260200160002060000160006101000a81548173ffffffffffffffffffffffffffffffffffffffff021916908373ffffffffffffffffffffffffffffffffffffffff16021790555082600260008873ffffffffffffffffffffffffffffffffffffffff1673ffffffffffffffffffffffffffffffffffffffff1681526020019081526020016000206004018190555060001515811515141561127257600160003373ffffffffffffffffffffffffffffffffffffffff1673ffffffffffffffffffffffffffffffffffffffff168152602001908152602001600020600101869080600181540180825580915050600190039060005260206000200160009091909190916101000a81548173ffffffffffffffffffffffffffffffffffffffff021916908373ffffffffffffffffffffffffffffffffffffffff1602179055505b8573ffffffffffffffffffffffffffffffffffffffff163373ffffffffffffffffffffffffffffffffffffffff167f369b6e3c130f986c4a453dcd509e39a79917bd9fd9b097c659b5c9515f66065360405160405180910390a3505050505050565b8060011515600260008373ffffffffffffffffffffffffffffffffffffffff1673ffffffffffffffffffffffffffffffffffffffff16815260200190815260200160002060030160149054906101000a900460ff1615151461136b576040517f08c379a000000000000000000000000000000000000000000000000000000000815260040161136290613df0565b60405180910390fd5b3373ffffffffffffffffffffffffffffffffffffffff16600260008373ffffffffffffffffffffffffffffffffffffffff1673ffffffffffffffffffffffffffffffffffffffff16815260200190815260200160002060000160009054906101000a900473ffffffffffffffffffffffffffffffffffffffff1673ffffffffffffffffffffffffffffffffffffffff161461143b576040517f08c379a000000000000000000000000000000000000000000000000000000000815260040161143290613db0565b60405180910390fd5b8173ffffffffffffffffffffffffffffffffffffffff163373ffffffffffffffffffffffffffffffffffffffff1614156114aa576040517f08c379a00000000000000000000000000000000000000000000000000000000081526004016114a190613e10565b60405180910390fd5b600260008373ffffffffffffffffffffffffffffffffffffffff1673ffffffffffffffffffffffffffffffffffffffff16815260200190815260200160002060060154600260008473ffffffffffffffffffffffffffffffffffffffff1673ffffffffffffffffffffffffffffffffffffffff168152602001908152602001600020600701600082825461153e9190613f57565b925050819055506000600260008473ffffffffffffffffffffffffffffffffffffffff1673ffffffffffffffffffffffffffffffffffffffff168152602001908152602001600020600601819055506000600260008473ffffffffffffffffffffffffffffffffffffffff1673ffffffffffffffffffffffffffffffffffffffff16815260200190815260200160002060030160146101000a81548160ff0219169083151502179055508173ffffffffffffffffffffffffffffffffffffffff163373ffffffffffffffffffffffffffffffffffffffff167f9dcdfd5d58dcbea327218959fef04c5ab61baa5e136d3928d5fc5546258a106360405160405180910390a35050565b60606000600160003373ffffffffffffffffffffffffffffffffffffffff1673ffffffffffffffffffffffffffffffffffffffff16815260200190815260200160002060010180549050905060008167ffffffffffffffff8111156116d4577f4e487b7100000000000000000000000000000000000000000000000000000000600052604160045260246000fd5b60405190808252806020026020018201604052801561170d57816020015b6116fa6132d3565b8152602001906001900390816116f25790505b5090506000821115611a7f5760005b82811015611a7d5760026000600160003373ffffffffffffffffffffffffffffffffffffffff1673ffffffffffffffffffffffffffffffffffffffff16815260200190815260200160002060010183815481106117a2577f4e487b7100000000000000000000000000000000000000000000000000000000600052603260045260246000fd5b9060005260206000200160009054906101000a900473ffffffffffffffffffffffffffffffffffffffff1673ffffffffffffffffffffffffffffffffffffffff1673ffffffffffffffffffffffffffffffffffffffff168152602001908152602001600020604051806101200160405290816000820160009054906101000a900473ffffffffffffffffffffffffffffffffffffffff1673ffffffffffffffffffffffffffffffffffffffff1673ffffffffffffffffffffffffffffffffffffffff1681526020016001820180546118799061417b565b80601f01602080910402602001604051908101604052809291908181526020018280546118a59061417b565b80156118f25780601f106118c7576101008083540402835291602001916118f2565b820191906000526020600020905b8154815290600101906020018083116118d557829003601f168201915b5050505050815260200160028201805461190b9061417b565b80601f01602080910402602001604051908101604052809291908181526020018280546119379061417b565b80156119845780601f1061195957610100808354040283529160200191611984565b820191906000526020600020905b81548152906001019060200180831161196757829003601f168201915b505050505081526020016003820160009054906101000a900473ffffffffffffffffffffffffffffffffffffffff1673ffffffffffffffffffffffffffffffffffffffff1673ffffffffffffffffffffffffffffffffffffffff1681526020016003820160149054906101000a900460ff16151515158152602001600482015481526020016005820154815260200160068201548152602001600782015481525050828281518110611a5f577f4e487b7100000000000000000000000000000000000000000000000000000000600052603260045260246000fd5b60200260200101819052508080611a75906141ad565b91505061171c565b505b809250505090565b6000600260003373ffffffffffffffffffffffffffffffffffffffff1673ffffffffffffffffffffffffffffffffffffffff16815260200190815260200160002060060154600260003373ffffffffffffffffffffffffffffffffffffffff1673ffffffffffffffffffffffffffffffffffffffff16815260200190815260200160002060070154611b199190613f57565b905060008111611b5e576040517f08c379a0000000000000000000000000000000000000000000000000000000008152600401611b5590613d90565b60405180910390fd5b6000600260003373ffffffffffffffffffffffffffffffffffffffff1673ffffffffffffffffffffffffffffffffffffffff168152602001908152602001600020600701819055506000600260003373ffffffffffffffffffffffffffffffffffffffff1673ffffffffffffffffffffffffffffffffffffffff1681526020019081526020016000206006018190555060008054906101000a900473ffffffffffffffffffffffffffffffffffffffff1673ffffffffffffffffffffffffffffffffffffffff1663a9059cbb33836040518363ffffffff1660e01b8152600401611c49929190613c5f565b602060405180830381600087803b158015611c6357600080fd5b505af1158015611c77573d6000803e3d6000fd5b505050506040513d601f19601f82011682018060405250810190611c9b9190613535565b503373ffffffffffffffffffffffffffffffffffffffff167f7678c2d8b2965183bfc855a87dc6a0bf5e3bf225496eca113e05ea2ac8e3215c60405160405180910390a250565b600260003373ffffffffffffffffffffffffffffffffffffffff1673ffffffffffffffffffffffffffffffffffffffff16815260200190815260200160002060030160149054906101000a900460ff16611d71576040517f08c379a0000000000000000000000000000000000000000000000000000000008152600401611d6890613e50565b60405180910390fd5b6000600260003373ffffffffffffffffffffffffffffffffffffffff1673ffffffffffffffffffffffffffffffffffffffff16815260200190815260200160002060060154600260003373ffffffffffffffffffffffffffffffffffffffff1673ffffffffffffffffffffffffffffffffffffffff16815260200190815260200160002060070154611e039190613f57565b90506000600260003373ffffffffffffffffffffffffffffffffffffffff1673ffffffffffffffffffffffffffffffffffffffff168152602001908152602001600020600701819055506000600260003373ffffffffffffffffffffffffffffffffffffffff1673ffffffffffffffffffffffffffffffffffffffff168152602001908152602001600020600601819055506000600260003373ffffffffffffffffffffffffffffffffffffffff1673ffffffffffffffffffffffffffffffffffffffff16815260200190815260200160002060030160146101000a81548160ff0219169083151502179055506000811115611fa85760008054906101000a900473ffffffffffffffffffffffffffffffffffffffff1673ffffffffffffffffffffffffffffffffffffffff1663a9059cbb33836040518363ffffffff1660e01b8152600401611f54929190613c5f565b602060405180830381600087803b158015611f6e57600080fd5b505af1158015611f82573d6000803e3d6000fd5b505050506040513d601f19601f82011682018060405250810190611fa69190613535565b505b3373ffffffffffffffffffffffffffffffffffffffff167fe46f5cd247d06a7a5e6ae0d7d02d2b9102b68f4cb5749c36bcf7938d21488c1960405160405180910390a250565b600080600160003373ffffffffffffffffffffffffffffffffffffffff1673ffffffffffffffffffffffffffffffffffffffff1681526020019081526020016000206001018054905011156122e15760005b600160003373ffffffffffffffffffffffffffffffffffffffff1673ffffffffffffffffffffffffffffffffffffffff168152602001908152602001600020600101805490508110156122df5760026000600160003373ffffffffffffffffffffffffffffffffffffffff1673ffffffffffffffffffffffffffffffffffffffff168152602001908152602001600020600101838154811061210b577f4e487b7100000000000000000000000000000000000000000000000000000000600052603260045260246000fd5b9060005260206000200160009054906101000a900473ffffffffffffffffffffffffffffffffffffffff1673ffffffffffffffffffffffffffffffffffffffff1673ffffffffffffffffffffffffffffffffffffffff16815260200190815260200160002060030160149054906101000a900460ff1680156122be57503373ffffffffffffffffffffffffffffffffffffffff1660026000600160003373ffffffffffffffffffffffffffffffffffffffff1673ffffffffffffffffffffffffffffffffffffffff168152602001908152602001600020600101848154811061221d577f4e487b7100000000000000000000000000000000000000000000000000000000600052603260045260246000fd5b9060005260206000200160009054906101000a900473ffffffffffffffffffffffffffffffffffffffff1673ffffffffffffffffffffffffffffffffffffffff1673ffffffffffffffffffffffffffffffffffffffff16815260200190815260200160002060000160009054906101000a900473ffffffffffffffffffffffffffffffffffffffff1673ffffffffffffffffffffffffffffffffffffffff16145b156122cc57600191506122df565b80806122d7906141ad565b915050612040565b505b6001151581151514612328576040517f08c379a000000000000000000000000000000000000000000000000000000000815260040161231f90613d30565b60405180910390fd5b6000600160003373ffffffffffffffffffffffffffffffffffffffff1673ffffffffffffffffffffffffffffffffffffffff16815260200190815260200160002060010180549050116123b0576040517f08c379a00000000000000000000000000000000000000000000000000000000081526004016123a790613e30565b60405180910390fd5b600082116123f3576040517f08c379a00000000000000000000000000000000000000000000000000000000081526004016123ea90613dd0565b60405180910390fd5b60008060009054906101000a900473ffffffffffffffffffffffffffffffffffffffff1673ffffffffffffffffffffffffffffffffffffffff1663dd62ed3e33306040518363ffffffff1660e01b8152600401612451929190613b3b565b60206040518083038186803b15801561246957600080fd5b505afa15801561247d573d6000803e3d6000fd5b505050506040513d601f19601f820116820180604052508101906124a19190613587565b9050828110156124e6576040517f08c379a00000000000000000000000000000000000000000000000000000000081526004016124dd90613e70565b60405180910390fd5b60008054906101000a900473ffffffffffffffffffffffffffffffffffffffff1673ffffffffffffffffffffffffffffffffffffffff166323b872dd3330866040518463ffffffff1660e01b815260040161254393929190613b64565b602060405180830381600087803b15801561255d57600080fd5b505af1158015612571573d6000803e3d6000fd5b505050506040513d601f19601f820116820180604052508101906125959190613535565b5060008060005b600160003373ffffffffffffffffffffffffffffffffffffffff1673ffffffffffffffffffffffffffffffffffffffff168152602001908152602001600020600101805490508110156129675760026000600160003373ffffffffffffffffffffffffffffffffffffffff1673ffffffffffffffffffffffffffffffffffffffff1681526020019081526020016000206001018381548110612667577f4e487b7100000000000000000000000000000000000000000000000000000000600052603260045260246000fd5b9060005260206000200160009054906101000a900473ffffffffffffffffffffffffffffffffffffffff1673ffffffffffffffffffffffffffffffffffffffff1673ffffffffffffffffffffffffffffffffffffffff16815260200190815260200160002060030160149054906101000a900460ff16801561281a57503373ffffffffffffffffffffffffffffffffffffffff1660026000600160003373ffffffffffffffffffffffffffffffffffffffff1673ffffffffffffffffffffffffffffffffffffffff1681526020019081526020016000206001018481548110612779577f4e487b7100000000000000000000000000000000000000000000000000000000600052603260045260246000fd5b9060005260206000200160009054906101000a900473ffffffffffffffffffffffffffffffffffffffff1673ffffffffffffffffffffffffffffffffffffffff1673ffffffffffffffffffffffffffffffffffffffff16815260200190815260200160002060000160009054906101000a900473ffffffffffffffffffffffffffffffffffffffff1673ffffffffffffffffffffffffffffffffffffffff16145b1561295457600160003373ffffffffffffffffffffffffffffffffffffffff1673ffffffffffffffffffffffffffffffffffffffff1681526020019081526020016000206001018181548110612899577f4e487b7100000000000000000000000000000000000000000000000000000000600052603260045260246000fd5b9060005260206000200160009054906101000a900473ffffffffffffffffffffffffffffffffffffffff168383815481106128fd577f4e487b7100000000000000000000000000000000000000000000000000000000600052603260045260246000fd5b9060005260206000200160006101000a81548173ffffffffffffffffffffffffffffffffffffffff021916908373ffffffffffffffffffffffffffffffffffffffff1602179055508180612950906141ad565b9250505b808061295f906141ad565b91505061259c565b506000811115612b5f57600081600160003373ffffffffffffffffffffffffffffffffffffffff1673ffffffffffffffffffffffffffffffffffffffff16815260200190815260200160002060020154876129c29190613f57565b6129cc9190613fad565b9050600082826129dc9190613fde565b600160003373ffffffffffffffffffffffffffffffffffffffff1673ffffffffffffffffffffffffffffffffffffffff1681526020019081526020016000206002015488612a2a9190613f57565b612a34919061406c565b905080600160003373ffffffffffffffffffffffffffffffffffffffff1673ffffffffffffffffffffffffffffffffffffffff1681526020019081526020016000206002018190555060005b83811015612b57578260026000878481548110612ac6577f4e487b7100000000000000000000000000000000000000000000000000000000600052603260045260246000fd5b9060005260206000200160009054906101000a900473ffffffffffffffffffffffffffffffffffffffff1673ffffffffffffffffffffffffffffffffffffffff1673ffffffffffffffffffffffffffffffffffffffff1681526020019081526020016000206006016000828254612b3d9190613f57565b925050819055508080612b4f906141ad565b915050612a80565b505050612bb9565b84600160003373ffffffffffffffffffffffffffffffffffffffff1673ffffffffffffffffffffffffffffffffffffffff1681526020019081526020016000206002016000828254612bb19190613f57565b925050819055505b3373ffffffffffffffffffffffffffffffffffffffff167fad35e0b2d33866883fc5e5ceaa195ca1bcffd4e48a81323065c77288c9529a6260405160405180910390a25050505050565b60008054906101000a900473ffffffffffffffffffffffffffffffffffffffff1681565b6000612c3282612cd9565b602001519050919050565b612cd58282604051602401612c53929190613ce0565b6040516020818303038152906040527f9710a9d0000000000000000000000000000000000000000000000000000000007bffffffffffffffffffffffffffffffffffffffffffffffffffffffff19166020820180517bffffffffffffffffffffffffffffffffffffffffffffffffffffffff8381831617835250505050612eea565b5050565b612ce161334d565b60008080612cee85612f13565b846000019061ffff16908161ffff1681525050612d106107b261ffff1661302a565b612d21856000015161ffff1661302a565b612d2b919061406c565b9150816301e28500612d3d9190613fde565b83612d489190613f57565b9250816107b28560000151612d5d9190614038565b61ffff16612d6b919061406c565b6301e13380612d7a9190613fde565b83612d859190613f57565b92506000600191505b600c8260ff1611612e0557612da782866000015161307e565b60ff1662015180612db89190613fde565b9050858482612dc79190613f57565b1115612de45781856020019060ff16908160ff1681525050612e05565b8084612df09190613f57565b93508180612dfd906141f6565b925050612d8e565b600191505b612e1c8560200151866000015161307e565b60ff168260ff1611612e7957858462015180612e389190613f57565b1115612e555781856040019060ff16908160ff1681525050612e79565b6201518084612e649190613f57565b93508180612e71906141f6565b925050612e0a565b612e828661314a565b856060019060ff16908160ff1681525050612e9c86613177565b856080019060ff16908160ff1681525050612eb686613198565b8560a0019060ff16908160ff1681525050612ed0866131ae565b8560c0019060ff16908160ff168152505050505050919050565b60008151905060006a636f6e736f6c652e6c6f679050602083016000808483855afa5050505050565b600080600090506000806301e1338085612f2d9190613fad565b6107b261ffff16612f3e9190613f57565b9150612f4f6107b261ffff1661302a565b612f5c8361ffff1661302a565b612f66919061406c565b9050806301e28500612f789190613fde565b83612f839190613f57565b9250806107b283612f949190614038565b61ffff16612fa2919061406c565b6301e13380612fb19190613fde565b83612fbc9190613f57565b92505b8483111561301f57612fdc600183612fd79190614038565b6131de565b15612ff8576301e2850083612ff1919061406c565b925061300b565b6301e1338083613008919061406c565b92505b6001826130189190614038565b9150612fbf565b819350505050919050565b6000600182613039919061406c565b9150610190826130499190613fad565b6064836130569190613fad565b6004846130639190613fad565b61306d919061406c565b6130779190613f57565b9050919050565b600060018360ff161480613095575060038360ff16145b806130a3575060058360ff16145b806130b1575060078360ff16145b806130bf575060088360ff16145b806130cd5750600a8360ff16145b806130db5750600c8360ff16145b156130e957601f9050613144565b60048360ff1614806130fe575060068360ff16145b8061310c575060098360ff16145b8061311a5750600b8360ff16145b1561312857601e9050613144565b613131826131de565b1561313f57601d9050613144565b601c90505b92915050565b60006018603c808461315c9190613fad565b6131669190613fad565b6131709190614251565b9050919050565b6000603c80836131879190613fad565b6131919190614251565b9050919050565b6000603c826131a79190614251565b9050919050565b60006007600462015180846131c39190613fad565b6131cd9190613f57565b6131d79190614251565b9050919050565b6000806004836131ee9190614220565b61ffff16146132005760009050613248565b600060648361320f9190614220565b61ffff16146132215760019050613248565b6000610190836132319190614220565b61ffff16146132435760009050613248565b600190505b919050565b8280546132599061417b565b90600052602060002090601f01602090048101928261327b57600085556132c2565b82601f1061329457805160ff19168380011785556132c2565b828001600101855582156132c2579182015b828111156132c15782518255916020019190600101906132a6565b5b5090506132cf91906133a0565b5090565b604051806101200160405280600073ffffffffffffffffffffffffffffffffffffffff1681526020016060815260200160608152602001600073ffffffffffffffffffffffffffffffffffffffff168152602001600015158152602001600081526020016000815260200160008152602001600081525090565b6040518060e00160405280600061ffff168152602001600060ff168152602001600060ff168152602001600060ff168152602001600060ff168152602001600060ff168152602001600060ff1681525090565b5b808211156133b95760008160009055506001016133a1565b5090565b60006133d06133cb84613ec1565b613e90565b9050828152602081018484840111156133e857600080fd5b6133f3848285614139565b509392505050565b60008135905061340a8161434f565b92915050565b60008151905061341f81614366565b92915050565b600082601f83011261343657600080fd5b81356134468482602086016133bd565b91505092915050565b60008135905061345e8161437d565b92915050565b6000815190506134738161437d565b92915050565b60006020828403121561348b57600080fd5b6000613499848285016133fb565b91505092915050565b600080600080608085870312156134b857600080fd5b60006134c6878288016133fb565b945050602085013567ffffffffffffffff8111156134e357600080fd5b6134ef87828801613425565b935050604085013567ffffffffffffffff81111561350c57600080fd5b61351887828801613425565b92505060606135298782880161344f565b91505092959194509250565b60006020828403121561354757600080fd5b600061355584828501613410565b91505092915050565b60006020828403121561357057600080fd5b600061357e8482850161344f565b91505092915050565b60006020828403121561359957600080fd5b60006135a784828501613464565b91505092915050565b60006135bc8383613a51565b905092915050565b6135cd816140a0565b82525050565b6135dc816140a0565b82525050565b60006135ed82613f01565b6135f78185613f24565b93508360208202850161360985613ef1565b8060005b85811015613645578484038952815161362685826135b0565b945061363183613f17565b925060208a0199505060018101905061360d565b50829750879550505050505092915050565b613660816140b2565b82525050565b61366f816140b2565b82525050565b61367e81614103565b82525050565b61368d81614127565b82525050565b600061369e82613f0c565b6136a88185613f35565b93506136b8818560208601614148565b6136c18161433e565b840191505092915050565b60006136d782613f0c565b6136e18185613f46565b93506136f1818560208601614148565b6136fa8161433e565b840191505092915050565b6000613712601a83613f46565b91507f596f7520616c7265616420706169642074686973206d6f6e74680000000000006000830152602082019050919050565b6000613752601c83613f46565b91507f4e6f626f647920776f726b7320696e20796f757220636f6d70616e79000000006000830152602082019050919050565b6000613792601d83613f46565b91507f7468697320706572736f6e20616c7265616479206861732061206a6f620000006000830152602082019050919050565b60006137d2601883613f46565b91507f596f752c2063616e2774206869726520796f757273656c6600000000000000006000830152602082019050919050565b6000613812600e83613f46565b91507f596f75206172652062726f6b65210000000000000000000000000000000000006000830152602082019050919050565b6000613852602083613f46565b91507f7468697320706572736f6e20646f206e6f7420776f726b7320666f7220796f756000830152602082019050919050565b6000613892601d83613f46565b91507f616d6f756e74206d7573742062652067726561746572207468616e20300000006000830152602082019050919050565b60006138d2601b83613f46565b91507f7468697320706572736f6e206973206e6f7420656d706c6f79656400000000006000830152602082019050919050565b6000613912603783613f46565b91507f596f752c2063616e2774206669726520796f757273656c662c20776169742e2e60008301527f2e20686f7720646f20796f75206765742068697265643f0000000000000000006020830152604082019050919050565b6000613978602383613f46565b91507f4a6f62206d7573742068617665206174206c65617374206f6e6520656d706c6f60008301527f79656500000000000000000000000000000000000000000000000000000000006020830152604082019050919050565b60006139de601883613f46565b91507f596f7520646f206e6f7420686176652061204a6f622e2e2e00000000000000006000830152602082019050919050565b6000613a1e601b83613f46565b91507f596f75206e6f7420616c6c6f776564207468697320616d6f756e7400000000006000830152602082019050919050565b600061012083016000830151613a6a60008601826135c4565b5060208301518482036020860152613a828282613693565b91505060408301518482036040860152613a9c8282613693565b9150506060830151613ab160608601826135c4565b506080830151613ac46080860182613657565b5060a0830151613ad760a0860182613b1d565b5060c0830151613aea60c0860182613b1d565b5060e0830151613afd60e0860182613b1d565b50610100830151613b12610100860182613b1d565b508091505092915050565b613b26816140ec565b82525050565b613b35816140ec565b82525050565b6000604082019050613b5060008301856135d3565b613b5d60208301846135d3565b9392505050565b6000606082019050613b7960008301866135d3565b613b8660208301856135d3565b613b936040830184613b2c565b949350505050565b6000604082019050613bb060008301856135d3565b613bbd6020830184613684565b9392505050565b600061012082019050613bda600083018c6135d3565b8181036020830152613bec818b6136cc565b90508181036040830152613c00818a6136cc565b9050613c0f60608301896135d3565b613c1c6080830188613666565b613c2960a0830187613b2c565b613c3660c0830186613b2c565b613c4360e0830185613b2c565b613c51610100830184613b2c565b9a9950505050505050505050565b6000604082019050613c7460008301856135d3565b613c816020830184613b2c565b9392505050565b60006020820190508181036000830152613ca281846135e2565b905092915050565b6000602082019050613cbf6000830184613666565b92915050565b6000602082019050613cda6000830184613675565b92915050565b60006040820190508181036000830152613cfa81856136cc565b9050613d096020830184613b2c565b9392505050565b60006020820190508181036000830152613d2981613705565b9050919050565b60006020820190508181036000830152613d4981613745565b9050919050565b60006020820190508181036000830152613d6981613785565b9050919050565b60006020820190508181036000830152613d89816137c5565b9050919050565b60006020820190508181036000830152613da981613805565b9050919050565b60006020820190508181036000830152613dc981613845565b9050919050565b60006020820190508181036000830152613de981613885565b9050919050565b60006020820190508181036000830152613e09816138c5565b9050919050565b60006020820190508181036000830152613e2981613905565b9050919050565b60006020820190508181036000830152613e498161396b565b9050919050565b60006020820190508181036000830152613e69816139d1565b9050919050565b60006020820190508181036000830152613e8981613a11565b9050919050565b6000604051905081810181811067ffffffffffffffff82111715613eb757613eb661430f565b5b8060405250919050565b600067ffffffffffffffff821115613edc57613edb61430f565b5b601f19601f8301169050602081019050919050565b6000819050602082019050919050565b600081519050919050565b600081519050919050565b6000602082019050919050565b600082825260208201905092915050565b600082825260208201905092915050565b600082825260208201905092915050565b6000613f62826140ec565b9150613f6d836140ec565b9250827fffffffffffffffffffffffffffffffffffffffffffffffffffffffffffffffff03821115613fa257613fa1614282565b5b828201905092915050565b6000613fb8826140ec565b9150613fc3836140ec565b925082613fd357613fd26142b1565b5b828204905092915050565b6000613fe9826140ec565b9150613ff4836140ec565b9250817fffffffffffffffffffffffffffffffffffffffffffffffffffffffffffffffff048311821515161561402d5761402c614282565b5b828202905092915050565b6000614043826140be565b915061404e836140be565b92508282101561406157614060614282565b5b828203905092915050565b6000614077826140ec565b9150614082836140ec565b92508282101561409557614094614282565b5b828203905092915050565b60006140ab826140cc565b9050919050565b60008115159050919050565b600061ffff82169050919050565b600073ffffffffffffffffffffffffffffffffffffffff82169050919050565b6000819050919050565b600060ff82169050919050565b600061410e82614115565b9050919050565b6000614120826140cc565b9050919050565b6000614132826140ec565b9050919050565b82818337600083830152505050565b60005b8381101561416657808201518184015260208101905061414b565b83811115614175576000848401525b50505050565b6000600282049050600182168061419357607f821691505b602082108114156141a7576141a66142e0565b5b50919050565b60006141b8826140ec565b91507fffffffffffffffffffffffffffffffffffffffffffffffffffffffffffffffff8214156141eb576141ea614282565b5b600182019050919050565b6000614201826140f6565b915060ff82141561421557614214614282565b5b600182019050919050565b600061422b826140be565b9150614236836140be565b925082614246576142456142b1565b5b828206905092915050565b600061425c826140ec565b9150614267836140ec565b925082614277576142766142b1565b5b828206905092915050565b7f4e487b7100000000000000000000000000000000000000000000000000000000600052601160045260246000fd5b7f4e487b7100000000000000000000000000000000000000000000000000000000600052601260045260246000fd5b7f4e487b7100000000000000000000000000000000000000000000000000000000600052602260045260246000fd5b7f4e487b7100000000000000000000000000000000000000000000000000000000600052604160045260246000fd5b6000601f19601f8301169050919050565b614358816140a0565b811461436357600080fd5b50565b61436f816140b2565b811461437a57600080fd5b50565b614386816140ec565b811461439157600080fd5b5056fea26469706673582212202ea3ea253dedc9ea262719e620923ade7a39d8523a25a83984d5d38cb84870ca64736f6c63430008000033",
  "devdoc": {
    "kind": "dev",
    "methods": {},
    "version": 1
  },
  "userdoc": {
    "kind": "user",
    "methods": {},
    "version": 1
  },
  "storageLayout": {
    "storage": [
      {
        "astId": 677,
        "contract": "contracts/Allowance.sol:Allowance",
        "label": "currency",
        "offset": 0,
        "slot": "0",
        "type": "t_contract(FakeUSDToken)1681"
      },
      {
        "astId": 720,
        "contract": "contracts/Allowance.sol:Allowance",
        "label": "job",
        "offset": 0,
        "slot": "1",
        "type": "t_mapping(t_address,t_struct(Job)696_storage)"
      },
      {
        "astId": 725,
        "contract": "contracts/Allowance.sol:Allowance",
        "label": "employee",
        "offset": 0,
        "slot": "2",
        "type": "t_mapping(t_address,t_struct(Employee)715_storage)"
      }
    ],
    "types": {
      "t_address": {
        "encoding": "inplace",
        "label": "address",
        "numberOfBytes": "20"
      },
      "t_array(t_address)dyn_storage": {
        "base": "t_address",
        "encoding": "dynamic_array",
        "label": "address[]",
        "numberOfBytes": "32"
      },
      "t_bool": {
        "encoding": "inplace",
        "label": "bool",
        "numberOfBytes": "1"
      },
      "t_contract(FakeUSDToken)1681": {
        "encoding": "inplace",
        "label": "contract FakeUSDToken",
        "numberOfBytes": "20"
      },
      "t_mapping(t_address,t_struct(Employee)715_storage)": {
        "encoding": "mapping",
        "key": "t_address",
        "label": "mapping(address => struct Allowance.Employee)",
        "numberOfBytes": "32",
        "value": "t_struct(Employee)715_storage"
      },
      "t_mapping(t_address,t_struct(Job)696_storage)": {
        "encoding": "mapping",
        "key": "t_address",
        "label": "mapping(address => struct Allowance.Job)",
        "numberOfBytes": "32",
        "value": "t_struct(Job)696_storage"
      },
      "t_string_storage": {
        "encoding": "bytes",
        "label": "string",
        "numberOfBytes": "32"
      },
      "t_struct(Employee)715_storage": {
        "encoding": "inplace",
        "label": "struct Allowance.Employee",
        "members": [
          {
            "astId": 698,
            "contract": "contracts/Allowance.sol:Allowance",
            "label": "boss",
            "offset": 0,
            "slot": "0",
            "type": "t_address"
          },
          {
            "astId": 700,
            "contract": "contracts/Allowance.sol:Allowance",
            "label": "name",
            "offset": 0,
            "slot": "1",
            "type": "t_string_storage"
          },
          {
            "astId": 702,
            "contract": "contracts/Allowance.sol:Allowance",
            "label": "position",
            "offset": 0,
            "slot": "2",
            "type": "t_string_storage"
          },
          {
            "astId": 704,
            "contract": "contracts/Allowance.sol:Allowance",
            "label": "_address",
            "offset": 0,
            "slot": "3",
            "type": "t_address"
          },
          {
            "astId": 706,
            "contract": "contracts/Allowance.sol:Allowance",
            "label": "employed",
            "offset": 20,
            "slot": "3",
            "type": "t_bool"
          },
          {
            "astId": 708,
            "contract": "contracts/Allowance.sol:Allowance",
            "label": "salary",
            "offset": 0,
            "slot": "4",
            "type": "t_uint256"
          },
          {
            "astId": 710,
            "contract": "contracts/Allowance.sol:Allowance",
            "label": "paymentDate",
            "offset": 0,
            "slot": "5",
            "type": "t_uint256"
          },
          {
            "astId": 712,
            "contract": "contracts/Allowance.sol:Allowance",
            "label": "balance",
            "offset": 0,
            "slot": "6",
            "type": "t_uint256"
          },
          {
            "astId": 714,
            "contract": "contracts/Allowance.sol:Allowance",
            "label": "oldBalance",
            "offset": 0,
            "slot": "7",
            "type": "t_uint256"
          }
        ],
        "numberOfBytes": "256"
      },
      "t_struct(Job)696_storage": {
        "encoding": "inplace",
        "label": "struct Allowance.Job",
        "members": [
          {
            "astId": 690,
            "contract": "contracts/Allowance.sol:Allowance",
            "label": "boss",
            "offset": 0,
            "slot": "0",
            "type": "t_address"
          },
          {
            "astId": 693,
            "contract": "contracts/Allowance.sol:Allowance",
            "label": "employees",
            "offset": 0,
            "slot": "1",
            "type": "t_array(t_address)dyn_storage"
          },
          {
            "astId": 695,
            "contract": "contracts/Allowance.sol:Allowance",
            "label": "balance",
            "offset": 0,
            "slot": "2",
            "type": "t_uint256"
          }
        ],
        "numberOfBytes": "96"
      },
      "t_uint256": {
        "encoding": "inplace",
        "label": "uint256",
        "numberOfBytes": "32"
      }
    }
  }
}