{
  "address": "0x5E07D513a28fb6A1Ef13F754aCD44BadB808efFe",
  "abi": [
    {
      "inputs": [
        {
          "internalType": "contract IERC20",
          "name": "token",
          "type": "address"
        }
      ],
      "stateMutability": "nonpayable",
      "type": "constructor"
    },
    {
      "inputs": [
        {
          "internalType": "address",
          "name": "_address",
          "type": "address"
        }
      ],
      "name": "alreadyPaid",
      "outputs": [
        {
          "internalType": "bool",
          "name": "",
          "type": "bool"
        }
      ],
      "stateMutability": "view",
      "type": "function"
    },
    {
      "inputs": [],
      "name": "currency",
      "outputs": [
        {
          "internalType": "contract IERC20",
          "name": "",
          "type": "address"
        }
      ],
      "stateMutability": "view",
      "type": "function"
    },
    {
      "inputs": [
        {
          "internalType": "address",
          "name": "",
          "type": "address"
        }
      ],
      "name": "employee",
      "outputs": [
        {
          "internalType": "address",
          "name": "boss",
          "type": "address"
        },
        {
          "internalType": "string",
          "name": "name",
          "type": "string"
        },
        {
          "internalType": "string",
          "name": "position",
          "type": "string"
        },
        {
          "internalType": "address",
          "name": "_address",
          "type": "address"
        },
        {
          "internalType": "bool",
          "name": "employed",
          "type": "bool"
        },
        {
          "internalType": "uint256",
          "name": "salary",
          "type": "uint256"
        },
        {
          "internalType": "uint256",
          "name": "paymentDate",
          "type": "uint256"
        },
        {
          "internalType": "uint256",
          "name": "balance",
          "type": "uint256"
        },
        {
          "internalType": "uint256",
          "name": "oldBalance",
          "type": "uint256"
        }
      ],
      "stateMutability": "view",
      "type": "function"
    },
    {
      "inputs": [
        {
          "internalType": "address",
          "name": "_address",
          "type": "address"
        }
      ],
      "name": "fire",
      "outputs": [],
      "stateMutability": "nonpayable",
      "type": "function"
    },
    {
      "inputs": [
        {
          "internalType": "address",
          "name": "_address",
          "type": "address"
        },
        {
          "internalType": "string",
          "name": "_name",
          "type": "string"
        },
        {
          "internalType": "string",
          "name": "_position",
          "type": "string"
        },
        {
          "internalType": "uint256",
          "name": "_salary",
          "type": "uint256"
        }
      ],
      "name": "hire",
      "outputs": [],
      "stateMutability": "nonpayable",
      "type": "function"
    },
    {
      "inputs": [
        {
          "internalType": "address",
          "name": "",
          "type": "address"
        }
      ],
      "name": "job",
      "outputs": [
        {
          "internalType": "address",
          "name": "boss",
          "type": "address"
        },
        {
          "internalType": "uint256",
          "name": "balance",
          "type": "uint256"
        }
      ],
      "stateMutability": "view",
      "type": "function"
    },
    {
      "inputs": [],
      "name": "myEmployees",
      "outputs": [
        {
          "components": [
            {
              "internalType": "address",
              "name": "boss",
              "type": "address"
            },
            {
              "internalType": "string",
              "name": "name",
              "type": "string"
            },
            {
              "internalType": "string",
              "name": "position",
              "type": "string"
            },
            {
              "internalType": "address",
              "name": "_address",
              "type": "address"
            },
            {
              "internalType": "bool",
              "name": "employed",
              "type": "bool"
            },
            {
              "internalType": "uint256",
              "name": "salary",
              "type": "uint256"
            },
            {
              "internalType": "uint256",
              "name": "paymentDate",
              "type": "uint256"
            },
            {
              "internalType": "uint256",
              "name": "balance",
              "type": "uint256"
            },
            {
              "internalType": "uint256",
              "name": "oldBalance",
              "type": "uint256"
            }
          ],
          "internalType": "struct Allowance.Employee[]",
          "name": "",
          "type": "tuple[]"
        }
      ],
      "stateMutability": "view",
      "type": "function"
    },
    {
      "inputs": [
        {
          "internalType": "address",
          "name": "_address",
          "type": "address"
        }
      ],
      "name": "payEmployee",
      "outputs": [],
      "stateMutability": "nonpayable",
      "type": "function"
    },
    {
      "inputs": [
        {
          "internalType": "uint256",
          "name": "_amount",
          "type": "uint256"
        }
      ],
      "name": "sharedBonusDeposit",
      "outputs": [],
      "stateMutability": "nonpayable",
      "type": "function"
    },
    {
      "inputs": [],
      "name": "withdrawAll",
      "outputs": [],
      "stateMutability": "nonpayable",
      "type": "function"
    }
  ],
  "transactionHash": "0x5e357fe50f8ae9cefaaf3c2df32cdc8b820de6fb76f47a7d9090ed404c81ebd2",
  "args": [
    "0xf84Aeb80c7701A3e05AE3fAaE082158665F99F21"
  ],
  "solcInputHash": "683ea24d7f5f633f16333ea461d73f4c",
  "bytecode": "0x60806040523480156200001157600080fd5b50604051620036aa380380620036aa833981810160405281019062000037919062000095565b806000806101000a81548173ffffffffffffffffffffffffffffffffffffffff021916908373ffffffffffffffffffffffffffffffffffffffff1602179055505062000123565b6000815190506200008f8162000109565b92915050565b600060208284031215620000a857600080fd5b6000620000b8848285016200007e565b91505092915050565b6000620000ce82620000e9565b9050919050565b6000620000e282620000c1565b9050919050565b600073ffffffffffffffffffffffffffffffffffffffff82169050919050565b6200011481620000d5565b81146200012057600080fd5b50565b61357780620001336000396000f3fe608060405234801561001057600080fd5b506004361061009e5760003560e01c80637885c960116100665780637885c9601461017457806384f6c6b014610190578063853828b6146101ae578063d83e6af6146101b8578063e5a6b10f146101d45761009e565b80630947d0d0146100a357806309d495fd146100d45780631f3d793e1461010c5780631f50ad161461013c578063657b53a914610158575b600080fd5b6100bd60048036038101906100b891906127b5565b6101f2565b6040516100cb929190612f49565b60405180910390f35b6100ee60048036038101906100e991906127b5565b610236565b60405161010399989796959493929190612eae565b60405180910390f35b610126600480360381019061012191906127b5565b6103e1565b6040516101339190612f94565b60405180910390f35b610156600480360381019061015191906127b5565b610603565b005b610172600480360381019061016d91906127de565b610b57565b005b61018e600480360381019061018991906127b5565b611146565b005b61019861145e565b6040516101a59190612f72565b60405180910390f35b6101b66118a6565b005b6101d260048036038101906101cd919061289a565b611abe565b005b6101dc61252b565b6040516101e99190612faf565b60405180910390f35b60016020528060005260406000206000915090508060000160009054906101000a900473ffffffffffffffffffffffffffffffffffffffff16908060020154905082565b60026020528060005260406000206000915090508060000160009054906101000a900473ffffffffffffffffffffffffffffffffffffffff169080600101805461027f906133b4565b80601f01602080910402602001604051908101604052809291908181526020018280546102ab906133b4565b80156102f85780601f106102cd576101008083540402835291602001916102f8565b820191906000526020600020905b8154815290600101906020018083116102db57829003601f168201915b50505050509080600201805461030d906133b4565b80601f0160208091040260200160405190810160405280929190818152602001828054610339906133b4565b80156103865780601f1061035b57610100808354040283529160200191610386565b820191906000526020600020905b81548152906001019060200180831161036957829003601f168201915b5050505050908060030160009054906101000a900473ffffffffffffffffffffffffffffffffffffffff16908060030160149054906101000a900460ff16908060040154908060050154908060060154908060070154905089565b60008160011515600260008373ffffffffffffffffffffffffffffffffffffffff1673ffffffffffffffffffffffffffffffffffffffff16815260200190815260200160002060030160149054906101000a900460ff1615151461047a576040517f08c379a0000000000000000000000000000000000000000000000000000000008152600401610471906130aa565b60405180910390fd5b3373ffffffffffffffffffffffffffffffffffffffff16600260008373ffffffffffffffffffffffffffffffffffffffff1673ffffffffffffffffffffffffffffffffffffffff16815260200190815260200160002060000160009054906101000a900473ffffffffffffffffffffffffffffffffffffffff1673ffffffffffffffffffffffffffffffffffffffff161461054a576040517f08c379a00000000000000000000000000000000000000000000000000000000081526004016105419061306a565b60405180910390fd5b6000600260008573ffffffffffffffffffffffffffffffffffffffff1673ffffffffffffffffffffffffffffffffffffffff1681526020019081526020016000206005015414806105ea575062278d00426105a591906132d2565b600260008573ffffffffffffffffffffffffffffffffffffffff1673ffffffffffffffffffffffffffffffffffffffff16815260200190815260200160002060050154105b156105f857600091506105fd565b600191505b50919050565b8060011515600260008373ffffffffffffffffffffffffffffffffffffffff1673ffffffffffffffffffffffffffffffffffffffff16815260200190815260200160002060030160149054906101000a900460ff1615151461069a576040517f08c379a0000000000000000000000000000000000000000000000000000000008152600401610691906130aa565b60405180910390fd5b3373ffffffffffffffffffffffffffffffffffffffff16600260008373ffffffffffffffffffffffffffffffffffffffff1673ffffffffffffffffffffffffffffffffffffffff16815260200190815260200160002060000160009054906101000a900473ffffffffffffffffffffffffffffffffffffffff1673ffffffffffffffffffffffffffffffffffffffff161461076a576040517f08c379a00000000000000000000000000000000000000000000000000000000081526004016107619061306a565b60405180910390fd5b6000600260008473ffffffffffffffffffffffffffffffffffffffff1673ffffffffffffffffffffffffffffffffffffffff16815260200190815260200160002060050154148061080a575062278d00426107c591906132d2565b600260008473ffffffffffffffffffffffffffffffffffffffff1673ffffffffffffffffffffffffffffffffffffffff16815260200190815260200160002060050154105b610849576040517f08c379a00000000000000000000000000000000000000000000000000000000081526004016108409061304a565b60405180910390fd5b60008060009054906101000a900473ffffffffffffffffffffffffffffffffffffffff1673ffffffffffffffffffffffffffffffffffffffff1663dd62ed3e33306040518363ffffffff1660e01b81526004016108a7929190612e4e565b60206040518083038186803b1580156108bf57600080fd5b505afa1580156108d3573d6000803e3d6000fd5b505050506040513d601f19601f820116820180604052508101906108f791906128c3565b9050600260008473ffffffffffffffffffffffffffffffffffffffff1673ffffffffffffffffffffffffffffffffffffffff1681526020019081526020016000206004015481101561097e576040517f08c379a00000000000000000000000000000000000000000000000000000000081526004016109759061310a565b60405180910390fd5b42600260008573ffffffffffffffffffffffffffffffffffffffff1673ffffffffffffffffffffffffffffffffffffffff16815260200190815260200160002060050181905550600260008473ffffffffffffffffffffffffffffffffffffffff1673ffffffffffffffffffffffffffffffffffffffff16815260200190815260200160002060040154600260008573ffffffffffffffffffffffffffffffffffffffff1673ffffffffffffffffffffffffffffffffffffffff1681526020019081526020016000206006016000828254610a5991906131f1565b9250508190555060008054906101000a900473ffffffffffffffffffffffffffffffffffffffff1673ffffffffffffffffffffffffffffffffffffffff166323b872dd3330600260008873ffffffffffffffffffffffffffffffffffffffff1673ffffffffffffffffffffffffffffffffffffffff168152602001908152602001600020600401546040518463ffffffff1660e01b8152600401610aff93929190612e77565b602060405180830381600087803b158015610b1957600080fd5b505af1158015610b2d573d6000803e3d6000fd5b505050506040513d601f19601f82011682018060405250810190610b519190612871565b50505050565b8360001515600260008373ffffffffffffffffffffffffffffffffffffffff1673ffffffffffffffffffffffffffffffffffffffff16815260200190815260200160002060030160149054906101000a900460ff16151514610bee576040517f08c379a0000000000000000000000000000000000000000000000000000000008152600401610be590612fea565b60405180910390fd5b8473ffffffffffffffffffffffffffffffffffffffff163373ffffffffffffffffffffffffffffffffffffffff161415610c5d576040517f08c379a0000000000000000000000000000000000000000000000000000000008152600401610c549061300a565b60405180910390fd5b33600160003373ffffffffffffffffffffffffffffffffffffffff1673ffffffffffffffffffffffffffffffffffffffff16815260200190815260200160002060000160006101000a81548173ffffffffffffffffffffffffffffffffffffffff021916908373ffffffffffffffffffffffffffffffffffffffff1602179055506001600260008773ffffffffffffffffffffffffffffffffffffffff1673ffffffffffffffffffffffffffffffffffffffff16815260200190815260200160002060030160146101000a81548160ff02191690831515021790555083600260008773ffffffffffffffffffffffffffffffffffffffff1673ffffffffffffffffffffffffffffffffffffffff1681526020019081526020016000206001019080519060200190610d8f92919061254f565b5082600260008773ffffffffffffffffffffffffffffffffffffffff1673ffffffffffffffffffffffffffffffffffffffff1681526020019081526020016000206002019080519060200190610de692919061254f565b5084600260008773ffffffffffffffffffffffffffffffffffffffff1673ffffffffffffffffffffffffffffffffffffffff16815260200190815260200160002060030160006101000a81548173ffffffffffffffffffffffffffffffffffffffff021916908373ffffffffffffffffffffffffffffffffffffffff16021790555033600260008773ffffffffffffffffffffffffffffffffffffffff1673ffffffffffffffffffffffffffffffffffffffff16815260200190815260200160002060000160006101000a81548173ffffffffffffffffffffffffffffffffffffffff021916908373ffffffffffffffffffffffffffffffffffffffff16021790555081600260008773ffffffffffffffffffffffffffffffffffffffff1673ffffffffffffffffffffffffffffffffffffffff16815260200190815260200160002060040181905550600160003373ffffffffffffffffffffffffffffffffffffffff1673ffffffffffffffffffffffffffffffffffffffff168152602001908152602001600020600101600260008773ffffffffffffffffffffffffffffffffffffffff1673ffffffffffffffffffffffffffffffffffffffff16815260200190815260200160002090806001815401808255809150506001900390600052602060002090600802016000909190919091506000820160009054906101000a900473ffffffffffffffffffffffffffffffffffffffff168160000160006101000a81548173ffffffffffffffffffffffffffffffffffffffff021916908373ffffffffffffffffffffffffffffffffffffffff1602179055506001820181600101908054611055906133b4565b6110609291906125d5565b506002820181600201908054611075906133b4565b6110809291906125d5565b506003820160009054906101000a900473ffffffffffffffffffffffffffffffffffffffff168160030160006101000a81548173ffffffffffffffffffffffffffffffffffffffff021916908373ffffffffffffffffffffffffffffffffffffffff1602179055506003820160149054906101000a900460ff168160030160146101000a81548160ff0219169083151502179055506004820154816004015560058201548160050155600682015481600601556007820154816007015550505050505050565b8060011515600260008373ffffffffffffffffffffffffffffffffffffffff1673ffffffffffffffffffffffffffffffffffffffff16815260200190815260200160002060030160149054906101000a900460ff161515146111dd576040517f08c379a00000000000000000000000000000000000000000000000000000000081526004016111d4906130aa565b60405180910390fd5b3373ffffffffffffffffffffffffffffffffffffffff16600260008373ffffffffffffffffffffffffffffffffffffffff1673ffffffffffffffffffffffffffffffffffffffff16815260200190815260200160002060000160009054906101000a900473ffffffffffffffffffffffffffffffffffffffff1673ffffffffffffffffffffffffffffffffffffffff16146112ad576040517f08c379a00000000000000000000000000000000000000000000000000000000081526004016112a49061306a565b60405180910390fd5b8173ffffffffffffffffffffffffffffffffffffffff163373ffffffffffffffffffffffffffffffffffffffff16141561131c576040517f08c379a0000000000000000000000000000000000000000000000000000000008152600401611313906130ca565b60405180910390fd5b600260008373ffffffffffffffffffffffffffffffffffffffff1673ffffffffffffffffffffffffffffffffffffffff16815260200190815260200160002060060154600260008473ffffffffffffffffffffffffffffffffffffffff1673ffffffffffffffffffffffffffffffffffffffff16815260200190815260200160002060070160008282546113b091906131f1565b925050819055506000600260008473ffffffffffffffffffffffffffffffffffffffff1673ffffffffffffffffffffffffffffffffffffffff168152602001908152602001600020600601819055506000600260008473ffffffffffffffffffffffffffffffffffffffff1673ffffffffffffffffffffffffffffffffffffffff16815260200190815260200160002060030160146101000a81548160ff0219169083151502179055505050565b60606000600160003373ffffffffffffffffffffffffffffffffffffffff1673ffffffffffffffffffffffffffffffffffffffff16815260200190815260200160002060010180549050905060008167ffffffffffffffff8111156114ec577f4e487b7100000000000000000000000000000000000000000000000000000000600052604160045260246000fd5b60405190808252806020026020018201604052801561152557816020015b611512612662565b81526020019060019003908161150a5790505b509050600082111561189e5760005b8281101561189c5760026000600160003373ffffffffffffffffffffffffffffffffffffffff1673ffffffffffffffffffffffffffffffffffffffff16815260200190815260200160002060010183815481106115ba577f4e487b7100000000000000000000000000000000000000000000000000000000600052603260045260246000fd5b906000526020600020906008020160030160009054906101000a900473ffffffffffffffffffffffffffffffffffffffff1673ffffffffffffffffffffffffffffffffffffffff1673ffffffffffffffffffffffffffffffffffffffff168152602001908152602001600020604051806101200160405290816000820160009054906101000a900473ffffffffffffffffffffffffffffffffffffffff1673ffffffffffffffffffffffffffffffffffffffff1673ffffffffffffffffffffffffffffffffffffffff168152602001600182018054611698906133b4565b80601f01602080910402602001604051908101604052809291908181526020018280546116c4906133b4565b80156117115780601f106116e657610100808354040283529160200191611711565b820191906000526020600020905b8154815290600101906020018083116116f457829003601f168201915b5050505050815260200160028201805461172a906133b4565b80601f0160208091040260200160405190810160405280929190818152602001828054611756906133b4565b80156117a35780601f10611778576101008083540402835291602001916117a3565b820191906000526020600020905b81548152906001019060200180831161178657829003601f168201915b505050505081526020016003820160009054906101000a900473ffffffffffffffffffffffffffffffffffffffff1673ffffffffffffffffffffffffffffffffffffffff1673ffffffffffffffffffffffffffffffffffffffff1681526020016003820160149054906101000a900460ff1615151515815260200160048201548152602001600582015481526020016006820154815260200160078201548152505082828151811061187e577f4e487b7100000000000000000000000000000000000000000000000000000000600052603260045260246000fd5b60200260200101819052508080611894906133e6565b915050611534565b505b809250505090565b6000600260003373ffffffffffffffffffffffffffffffffffffffff1673ffffffffffffffffffffffffffffffffffffffff16815260200190815260200160002060060154600260003373ffffffffffffffffffffffffffffffffffffffff1673ffffffffffffffffffffffffffffffffffffffff1681526020019081526020016000206007015461193891906131f1565b90506000811161197d576040517f08c379a00000000000000000000000000000000000000000000000000000000081526004016119749061302a565b60405180910390fd5b6000600260003373ffffffffffffffffffffffffffffffffffffffff1673ffffffffffffffffffffffffffffffffffffffff168152602001908152602001600020600701819055506000600260003373ffffffffffffffffffffffffffffffffffffffff1673ffffffffffffffffffffffffffffffffffffffff1681526020019081526020016000206006018190555060008054906101000a900473ffffffffffffffffffffffffffffffffffffffff1673ffffffffffffffffffffffffffffffffffffffff1663a9059cbb33836040518363ffffffff1660e01b8152600401611a68929190612f49565b602060405180830381600087803b158015611a8257600080fd5b505af1158015611a96573d6000803e3d6000fd5b505050506040513d601f19601f82011682018060405250810190611aba9190612871565b5050565b600080600160003373ffffffffffffffffffffffffffffffffffffffff1673ffffffffffffffffffffffffffffffffffffffff168152602001908152602001600020600101805490501115611cfb5760005b600160003373ffffffffffffffffffffffffffffffffffffffff1673ffffffffffffffffffffffffffffffffffffffff16815260200190815260200160002060010180549050811015611cf957600160003373ffffffffffffffffffffffffffffffffffffffff1673ffffffffffffffffffffffffffffffffffffffff1681526020019081526020016000206001018181548110611bd7577f4e487b7100000000000000000000000000000000000000000000000000000000600052603260045260246000fd5b906000526020600020906008020160030160149054906101000a900460ff168015611cd857503373ffffffffffffffffffffffffffffffffffffffff16600160003373ffffffffffffffffffffffffffffffffffffffff1673ffffffffffffffffffffffffffffffffffffffff1681526020019081526020016000206001018281548110611c8e577f4e487b7100000000000000000000000000000000000000000000000000000000600052603260045260246000fd5b906000526020600020906008020160000160009054906101000a900473ffffffffffffffffffffffffffffffffffffffff1673ffffffffffffffffffffffffffffffffffffffff16145b15611ce65760019150611cf9565b8080611cf1906133e6565b915050611b10565b505b6001151581151514611d42576040517f08c379a0000000000000000000000000000000000000000000000000000000008152600401611d3990612fca565b60405180910390fd5b6000600160003373ffffffffffffffffffffffffffffffffffffffff1673ffffffffffffffffffffffffffffffffffffffff1681526020019081526020016000206001018054905011611dca576040517f08c379a0000000000000000000000000000000000000000000000000000000008152600401611dc1906130ea565b60405180910390fd5b60008211611e0d576040517f08c379a0000000000000000000000000000000000000000000000000000000008152600401611e049061308a565b60405180910390fd5b60008060009054906101000a900473ffffffffffffffffffffffffffffffffffffffff1673ffffffffffffffffffffffffffffffffffffffff1663dd62ed3e33306040518363ffffffff1660e01b8152600401611e6b929190612e4e565b60206040518083038186803b158015611e8357600080fd5b505afa158015611e97573d6000803e3d6000fd5b505050506040513d601f19601f82011682018060405250810190611ebb91906128c3565b905082811015611f00576040517f08c379a0000000000000000000000000000000000000000000000000000000008152600401611ef79061310a565b60405180910390fd5b60008054906101000a900473ffffffffffffffffffffffffffffffffffffffff1673ffffffffffffffffffffffffffffffffffffffff166323b872dd3330866040518463ffffffff1660e01b8152600401611f5d93929190612e77565b602060405180830381600087803b158015611f7757600080fd5b505af1158015611f8b573d6000803e3d6000fd5b505050506040513d601f19601f82011682018060405250810190611faf9190612871565b5060008060005b600160003373ffffffffffffffffffffffffffffffffffffffff1673ffffffffffffffffffffffffffffffffffffffff168152602001908152602001600020600101805490508110156122d257600160003373ffffffffffffffffffffffffffffffffffffffff1673ffffffffffffffffffffffffffffffffffffffff168152602001908152602001600020600101818154811061207d577f4e487b7100000000000000000000000000000000000000000000000000000000600052603260045260246000fd5b906000526020600020906008020160030160149054906101000a900460ff16801561217e57503373ffffffffffffffffffffffffffffffffffffffff16600160003373ffffffffffffffffffffffffffffffffffffffff1673ffffffffffffffffffffffffffffffffffffffff1681526020019081526020016000206001018281548110612134577f4e487b7100000000000000000000000000000000000000000000000000000000600052603260045260246000fd5b906000526020600020906008020160000160009054906101000a900473ffffffffffffffffffffffffffffffffffffffff1673ffffffffffffffffffffffffffffffffffffffff16145b156122bf57600160003373ffffffffffffffffffffffffffffffffffffffff1673ffffffffffffffffffffffffffffffffffffffff16815260200190815260200160002060010181815481106121fd577f4e487b7100000000000000000000000000000000000000000000000000000000600052603260045260246000fd5b906000526020600020906008020160030160009054906101000a900473ffffffffffffffffffffffffffffffffffffffff16838381548110612268577f4e487b7100000000000000000000000000000000000000000000000000000000600052603260045260246000fd5b9060005260206000200160006101000a81548173ffffffffffffffffffffffffffffffffffffffff021916908373ffffffffffffffffffffffffffffffffffffffff16021790555081806122bb906133e6565b9250505b80806122ca906133e6565b915050611fb6565b5060008111156124ca57600081600160003373ffffffffffffffffffffffffffffffffffffffff1673ffffffffffffffffffffffffffffffffffffffff168152602001908152602001600020600201548761232d91906131f1565b6123379190613247565b9050600082826123479190613278565b600160003373ffffffffffffffffffffffffffffffffffffffff1673ffffffffffffffffffffffffffffffffffffffff168152602001908152602001600020600201548861239591906131f1565b61239f91906132d2565b905080600160003373ffffffffffffffffffffffffffffffffffffffff1673ffffffffffffffffffffffffffffffffffffffff1681526020019081526020016000206002018190555060005b838110156124c2578260026000878481548110612431577f4e487b7100000000000000000000000000000000000000000000000000000000600052603260045260246000fd5b9060005260206000200160009054906101000a900473ffffffffffffffffffffffffffffffffffffffff1673ffffffffffffffffffffffffffffffffffffffff1673ffffffffffffffffffffffffffffffffffffffff16815260200190815260200160002060060160008282546124a891906131f1565b9250508190555080806124ba906133e6565b9150506123eb565b505050612524565b84600160003373ffffffffffffffffffffffffffffffffffffffff1673ffffffffffffffffffffffffffffffffffffffff168152602001908152602001600020600201600082825461251c91906131f1565b925050819055505b5050505050565b60008054906101000a900473ffffffffffffffffffffffffffffffffffffffff1681565b82805461255b906133b4565b90600052602060002090601f01602090048101928261257d57600085556125c4565b82601f1061259657805160ff19168380011785556125c4565b828001600101855582156125c4579182015b828111156125c35782518255916020019190600101906125a8565b5b5090506125d191906126dc565b5090565b8280546125e1906133b4565b90600052602060002090601f0160209004810192826126035760008555612651565b82601f106126145780548555612651565b8280016001018555821561265157600052602060002091601f016020900482015b82811115612650578254825591600101919060010190612635565b5b50905061265e91906126dc565b5090565b604051806101200160405280600073ffffffffffffffffffffffffffffffffffffffff1681526020016060815260200160608152602001600073ffffffffffffffffffffffffffffffffffffffff168152602001600015158152602001600081526020016000815260200160008152602001600081525090565b5b808211156126f55760008160009055506001016126dd565b5090565b600061270c6127078461315b565b61312a565b90508281526020810184848401111561272457600080fd5b61272f848285613372565b509392505050565b600081359050612746816134fc565b92915050565b60008151905061275b81613513565b92915050565b600082601f83011261277257600080fd5b81356127828482602086016126f9565b91505092915050565b60008135905061279a8161352a565b92915050565b6000815190506127af8161352a565b92915050565b6000602082840312156127c757600080fd5b60006127d584828501612737565b91505092915050565b600080600080608085870312156127f457600080fd5b600061280287828801612737565b945050602085013567ffffffffffffffff81111561281f57600080fd5b61282b87828801612761565b935050604085013567ffffffffffffffff81111561284857600080fd5b61285487828801612761565b92505060606128658782880161278b565b91505092959194509250565b60006020828403121561288357600080fd5b60006128918482850161274c565b91505092915050565b6000602082840312156128ac57600080fd5b60006128ba8482850161278b565b91505092915050565b6000602082840312156128d557600080fd5b60006128e3848285016127a0565b91505092915050565b60006128f88383612d64565b905092915050565b61290981613306565b82525050565b61291881613306565b82525050565b60006129298261319b565b61293381856131be565b9350836020820285016129458561318b565b8060005b85811015612981578484038952815161296285826128ec565b945061296d836131b1565b925060208a01995050600181019050612949565b50829750879550505050505092915050565b61299c81613318565b82525050565b6129ab81613318565b82525050565b6129ba8161334e565b82525050565b60006129cb826131a6565b6129d581856131cf565b93506129e5818560208601613381565b6129ee816134eb565b840191505092915050565b6000612a04826131a6565b612a0e81856131e0565b9350612a1e818560208601613381565b612a27816134eb565b840191505092915050565b6000612a3f601c836131e0565b91507f4e6f626f647920776f726b7320696e20796f757220636f6d70616e79000000006000830152602082019050919050565b6000612a7f601d836131e0565b91507f7468697320706572736f6e20616c7265616479206861732061206a6f620000006000830152602082019050919050565b6000612abf6018836131e0565b91507f596f752c2063616e2774206869726520796f757273656c6600000000000000006000830152602082019050919050565b6000612aff600e836131e0565b91507f596f75206172652062726f6b65210000000000000000000000000000000000006000830152602082019050919050565b6000612b3f6023836131e0565b91507f596f7520616c72656164207061696420696e20746865206c617374203330206460008301527f61797300000000000000000000000000000000000000000000000000000000006020830152604082019050919050565b6000612ba56020836131e0565b91507f7468697320706572736f6e20646f206e6f7420776f726b7320666f7220796f756000830152602082019050919050565b6000612be5601d836131e0565b91507f616d6f756e74206d7573742062652067726561746572207468616e20300000006000830152602082019050919050565b6000612c25601b836131e0565b91507f7468697320706572736f6e206973206e6f7420656d706c6f79656400000000006000830152602082019050919050565b6000612c656037836131e0565b91507f596f752c2063616e2774206669726520796f757273656c662c20776169742e2e60008301527f2e20686f7720646f20796f75206765742068697265643f0000000000000000006020830152604082019050919050565b6000612ccb6023836131e0565b91507f4a6f62206d7573742068617665206174206c65617374206f6e6520656d706c6f60008301527f79656500000000000000000000000000000000000000000000000000000000006020830152604082019050919050565b6000612d31601b836131e0565b91507f596f75206e6f7420616c6c6f776564207468697320616d6f756e7400000000006000830152602082019050919050565b600061012083016000830151612d7d6000860182612900565b5060208301518482036020860152612d9582826129c0565b91505060408301518482036040860152612daf82826129c0565b9150506060830151612dc46060860182612900565b506080830151612dd76080860182612993565b5060a0830151612dea60a0860182612e30565b5060c0830151612dfd60c0860182612e30565b5060e0830151612e1060e0860182612e30565b50610100830151612e25610100860182612e30565b508091505092915050565b612e3981613344565b82525050565b612e4881613344565b82525050565b6000604082019050612e63600083018561290f565b612e70602083018461290f565b9392505050565b6000606082019050612e8c600083018661290f565b612e99602083018561290f565b612ea66040830184612e3f565b949350505050565b600061012082019050612ec4600083018c61290f565b8181036020830152612ed6818b6129f9565b90508181036040830152612eea818a6129f9565b9050612ef9606083018961290f565b612f0660808301886129a2565b612f1360a0830187612e3f565b612f2060c0830186612e3f565b612f2d60e0830185612e3f565b612f3b610100830184612e3f565b9a9950505050505050505050565b6000604082019050612f5e600083018561290f565b612f6b6020830184612e3f565b9392505050565b60006020820190508181036000830152612f8c818461291e565b905092915050565b6000602082019050612fa960008301846129a2565b92915050565b6000602082019050612fc460008301846129b1565b92915050565b60006020820190508181036000830152612fe381612a32565b9050919050565b6000602082019050818103600083015261300381612a72565b9050919050565b6000602082019050818103600083015261302381612ab2565b9050919050565b6000602082019050818103600083015261304381612af2565b9050919050565b6000602082019050818103600083015261306381612b32565b9050919050565b6000602082019050818103600083015261308381612b98565b9050919050565b600060208201905081810360008301526130a381612bd8565b9050919050565b600060208201905081810360008301526130c381612c18565b9050919050565b600060208201905081810360008301526130e381612c58565b9050919050565b6000602082019050818103600083015261310381612cbe565b9050919050565b6000602082019050818103600083015261312381612d24565b9050919050565b6000604051905081810181811067ffffffffffffffff82111715613151576131506134bc565b5b8060405250919050565b600067ffffffffffffffff821115613176576131756134bc565b5b601f19601f8301169050602081019050919050565b6000819050602082019050919050565b600081519050919050565b600081519050919050565b6000602082019050919050565b600082825260208201905092915050565b600082825260208201905092915050565b600082825260208201905092915050565b60006131fc82613344565b915061320783613344565b9250827fffffffffffffffffffffffffffffffffffffffffffffffffffffffffffffffff0382111561323c5761323b61342f565b5b828201905092915050565b600061325282613344565b915061325d83613344565b92508261326d5761326c61345e565b5b828204905092915050565b600061328382613344565b915061328e83613344565b9250817fffffffffffffffffffffffffffffffffffffffffffffffffffffffffffffffff04831182151516156132c7576132c661342f565b5b828202905092915050565b60006132dd82613344565b91506132e883613344565b9250828210156132fb576132fa61342f565b5b828203905092915050565b600061331182613324565b9050919050565b60008115159050919050565b600073ffffffffffffffffffffffffffffffffffffffff82169050919050565b6000819050919050565b600061335982613360565b9050919050565b600061336b82613324565b9050919050565b82818337600083830152505050565b60005b8381101561339f578082015181840152602081019050613384565b838111156133ae576000848401525b50505050565b600060028204905060018216806133cc57607f821691505b602082108114156133e0576133df61348d565b5b50919050565b60006133f182613344565b91507fffffffffffffffffffffffffffffffffffffffffffffffffffffffffffffffff8214156134245761342361342f565b5b600182019050919050565b7f4e487b7100000000000000000000000000000000000000000000000000000000600052601160045260246000fd5b7f4e487b7100000000000000000000000000000000000000000000000000000000600052601260045260246000fd5b7f4e487b7100000000000000000000000000000000000000000000000000000000600052602260045260246000fd5b7f4e487b7100000000000000000000000000000000000000000000000000000000600052604160045260246000fd5b6000601f19601f8301169050919050565b61350581613306565b811461351057600080fd5b50565b61351c81613318565b811461352757600080fd5b50565b61353381613344565b811461353e57600080fd5b5056fea264697066735822122026ce536316a2ecfe0470ad73bd81ef3879f92f22819561db069bd17e983d278c64736f6c63430008000033",
  "devdoc": {
    "kind": "dev",
    "methods": {},
    "version": 1
  },
  "userdoc": {
    "kind": "user",
    "methods": {},
    "version": 1
  },
  "storageLayout": {
    "storage": [
      {
        "astId": 83,
        "contract": "contracts/Allowance.sol:Allowance",
        "label": "currency",
        "offset": 0,
        "slot": "0",
        "type": "t_contract(IERC20)77"
      },
      {
        "astId": 127,
        "contract": "contracts/Allowance.sol:Allowance",
        "label": "job",
        "offset": 0,
        "slot": "1",
        "type": "t_mapping(t_address,t_struct(Job)103_storage)"
      },
      {
        "astId": 132,
        "contract": "contracts/Allowance.sol:Allowance",
        "label": "employee",
        "offset": 0,
        "slot": "2",
        "type": "t_mapping(t_address,t_struct(Employee)122_storage)"
      }
    ],
    "types": {
      "t_address": {
        "encoding": "inplace",
        "label": "address",
        "numberOfBytes": "20"
      },
      "t_array(t_struct(Employee)122_storage)dyn_storage": {
        "base": "t_struct(Employee)122_storage",
        "encoding": "dynamic_array",
        "label": "struct Allowance.Employee[]",
        "numberOfBytes": "32"
      },
      "t_bool": {
        "encoding": "inplace",
        "label": "bool",
        "numberOfBytes": "1"
      },
      "t_contract(IERC20)77": {
        "encoding": "inplace",
        "label": "contract IERC20",
        "numberOfBytes": "20"
      },
      "t_mapping(t_address,t_struct(Employee)122_storage)": {
        "encoding": "mapping",
        "key": "t_address",
        "label": "mapping(address => struct Allowance.Employee)",
        "numberOfBytes": "32",
        "value": "t_struct(Employee)122_storage"
      },
      "t_mapping(t_address,t_struct(Job)103_storage)": {
        "encoding": "mapping",
        "key": "t_address",
        "label": "mapping(address => struct Allowance.Job)",
        "numberOfBytes": "32",
        "value": "t_struct(Job)103_storage"
      },
      "t_string_storage": {
        "encoding": "bytes",
        "label": "string",
        "numberOfBytes": "32"
      },
      "t_struct(Employee)122_storage": {
        "encoding": "inplace",
        "label": "struct Allowance.Employee",
        "members": [
          {
            "astId": 105,
            "contract": "contracts/Allowance.sol:Allowance",
            "label": "boss",
            "offset": 0,
            "slot": "0",
            "type": "t_address"
          },
          {
            "astId": 107,
            "contract": "contracts/Allowance.sol:Allowance",
            "label": "name",
            "offset": 0,
            "slot": "1",
            "type": "t_string_storage"
          },
          {
            "astId": 109,
            "contract": "contracts/Allowance.sol:Allowance",
            "label": "position",
            "offset": 0,
            "slot": "2",
            "type": "t_string_storage"
          },
          {
            "astId": 111,
            "contract": "contracts/Allowance.sol:Allowance",
            "label": "_address",
            "offset": 0,
            "slot": "3",
            "type": "t_address"
          },
          {
            "astId": 113,
            "contract": "contracts/Allowance.sol:Allowance",
            "label": "employed",
            "offset": 20,
            "slot": "3",
            "type": "t_bool"
          },
          {
            "astId": 115,
            "contract": "contracts/Allowance.sol:Allowance",
            "label": "salary",
            "offset": 0,
            "slot": "4",
            "type": "t_uint256"
          },
          {
            "astId": 117,
            "contract": "contracts/Allowance.sol:Allowance",
            "label": "paymentDate",
            "offset": 0,
            "slot": "5",
            "type": "t_uint256"
          },
          {
            "astId": 119,
            "contract": "contracts/Allowance.sol:Allowance",
            "label": "balance",
            "offset": 0,
            "slot": "6",
            "type": "t_uint256"
          },
          {
            "astId": 121,
            "contract": "contracts/Allowance.sol:Allowance",
            "label": "oldBalance",
            "offset": 0,
            "slot": "7",
            "type": "t_uint256"
          }
        ],
        "numberOfBytes": "256"
      },
      "t_struct(Job)103_storage": {
        "encoding": "inplace",
        "label": "struct Allowance.Job",
        "members": [
          {
            "astId": 96,
            "contract": "contracts/Allowance.sol:Allowance",
            "label": "boss",
            "offset": 0,
            "slot": "0",
            "type": "t_address"
          },
          {
            "astId": 100,
            "contract": "contracts/Allowance.sol:Allowance",
            "label": "employees",
            "offset": 0,
            "slot": "1",
            "type": "t_array(t_struct(Employee)122_storage)dyn_storage"
          },
          {
            "astId": 102,
            "contract": "contracts/Allowance.sol:Allowance",
            "label": "balance",
            "offset": 0,
            "slot": "2",
            "type": "t_uint256"
          }
        ],
        "numberOfBytes": "96"
      },
      "t_uint256": {
        "encoding": "inplace",
        "label": "uint256",
        "numberOfBytes": "32"
      }
    }
  }
}