{
  "address": "0x18912cE855f25673a204Fc2F6FE98245Baa76554",
  "abi": [
    {
      "inputs": [
        {
          "internalType": "contract IERC20",
          "name": "token",
          "type": "address"
        }
      ],
      "stateMutability": "nonpayable",
      "type": "constructor"
    },
    {
      "inputs": [],
      "name": "currency",
      "outputs": [
        {
          "internalType": "contract IERC20",
          "name": "",
          "type": "address"
        }
      ],
      "stateMutability": "view",
      "type": "function"
    },
    {
      "inputs": [
        {
          "internalType": "address",
          "name": "",
          "type": "address"
        }
      ],
      "name": "employee",
      "outputs": [
        {
          "internalType": "address",
          "name": "boss",
          "type": "address"
        },
        {
          "internalType": "string",
          "name": "name",
          "type": "string"
        },
        {
          "internalType": "string",
          "name": "position",
          "type": "string"
        },
        {
          "internalType": "address",
          "name": "_address",
          "type": "address"
        },
        {
          "internalType": "bool",
          "name": "employed",
          "type": "bool"
        },
        {
          "internalType": "uint256",
          "name": "salary",
          "type": "uint256"
        },
        {
          "internalType": "uint256",
          "name": "paymentDate",
          "type": "uint256"
        },
        {
          "internalType": "uint256",
          "name": "balance",
          "type": "uint256"
        },
        {
          "internalType": "uint256",
          "name": "oldBalance",
          "type": "uint256"
        }
      ],
      "stateMutability": "view",
      "type": "function"
    },
    {
      "inputs": [
        {
          "internalType": "address",
          "name": "_address",
          "type": "address"
        }
      ],
      "name": "fire",
      "outputs": [],
      "stateMutability": "nonpayable",
      "type": "function"
    },
    {
      "inputs": [
        {
          "internalType": "address",
          "name": "_address",
          "type": "address"
        },
        {
          "internalType": "string",
          "name": "_name",
          "type": "string"
        },
        {
          "internalType": "string",
          "name": "_position",
          "type": "string"
        },
        {
          "internalType": "uint256",
          "name": "_salary",
          "type": "uint256"
        }
      ],
      "name": "hire",
      "outputs": [],
      "stateMutability": "nonpayable",
      "type": "function"
    },
    {
      "inputs": [
        {
          "internalType": "address",
          "name": "",
          "type": "address"
        }
      ],
      "name": "job",
      "outputs": [
        {
          "internalType": "address",
          "name": "boss",
          "type": "address"
        },
        {
          "internalType": "uint256",
          "name": "balance",
          "type": "uint256"
        }
      ],
      "stateMutability": "view",
      "type": "function"
    },
    {
      "inputs": [
        {
          "internalType": "address",
          "name": "_address",
          "type": "address"
        }
      ],
      "name": "payEmployee",
      "outputs": [],
      "stateMutability": "nonpayable",
      "type": "function"
    },
    {
      "inputs": [
        {
          "internalType": "uint256",
          "name": "_amount",
          "type": "uint256"
        }
      ],
      "name": "sharedBonusDeposit",
      "outputs": [],
      "stateMutability": "nonpayable",
      "type": "function"
    },
    {
      "inputs": [],
      "name": "withdrawAll",
      "outputs": [],
      "stateMutability": "nonpayable",
      "type": "function"
    }
  ],
  "transactionHash": "0x3c3c7d74cf416c0d34b7b4e6f6b2b8506631d33be9709b50c0cc9072c04b8c65",
  "args": [
    "0x9161864cc3e54B45149267A71c8d90be8fdA5D90"
  ],
  "solcInputHash": "fa0d22f6b7769a7d1a7303ab9c08eff0",
  "bytecode": "0x60806040523480156200001157600080fd5b5060405162002d2038038062002d20833981810160405281019062000037919062000095565b806000806101000a81548173ffffffffffffffffffffffffffffffffffffffff021916908373ffffffffffffffffffffffffffffffffffffffff1602179055505062000123565b6000815190506200008f8162000109565b92915050565b600060208284031215620000a857600080fd5b6000620000b8848285016200007e565b91505092915050565b6000620000ce82620000e9565b9050919050565b6000620000e282620000c1565b9050919050565b600073ffffffffffffffffffffffffffffffffffffffff82169050919050565b6200011481620000d5565b81146200012057600080fd5b50565b612bed80620001336000396000f3fe608060405234801561001057600080fd5b50600436106100885760003560e01c80637885c9601161005b5780637885c9601461012e578063853828b61461014a578063d83e6af614610154578063e5a6b10f1461017057610088565b80630947d0d01461008d57806309d495fd146100be5780631f50ad16146100f6578063657b53a914610112575b600080fd5b6100a760048036038101906100a2919061206d565b61018e565b6040516100b5929190612646565b60405180910390f35b6100d860048036038101906100d3919061206d565b6101d2565b6040516100ed999897969594939291906125ab565b60405180910390f35b610110600480360381019061010b919061206d565b61037d565b005b61012c60048036038101906101279190612096565b6108d1565b005b6101486004803603810190610143919061206d565b610ec0565b005b6101526111d8565b005b61016e60048036038101906101699190612152565b6113f0565b005b610178611e5d565b604051610185919061266f565b60405180910390f35b60016020528060005260406000206000915090508060000160009054906101000a900473ffffffffffffffffffffffffffffffffffffffff16908060020154905082565b60026020528060005260406000206000915090508060000160009054906101000a900473ffffffffffffffffffffffffffffffffffffffff169080600101805461021b90612a2a565b80601f016020809104026020016040519081016040528092919081815260200182805461024790612a2a565b80156102945780601f1061026957610100808354040283529160200191610294565b820191906000526020600020905b81548152906001019060200180831161027757829003601f168201915b5050505050908060020180546102a990612a2a565b80601f01602080910402602001604051908101604052809291908181526020018280546102d590612a2a565b80156103225780601f106102f757610100808354040283529160200191610322565b820191906000526020600020905b81548152906001019060200180831161030557829003601f168201915b5050505050908060030160009054906101000a900473ffffffffffffffffffffffffffffffffffffffff16908060030160149054906101000a900460ff16908060040154908060050154908060060154908060070154905089565b8060011515600260008373ffffffffffffffffffffffffffffffffffffffff1673ffffffffffffffffffffffffffffffffffffffff16815260200190815260200160002060030160149054906101000a900460ff16151514610414576040517f08c379a000000000000000000000000000000000000000000000000000000000815260040161040b9061276a565b60405180910390fd5b3373ffffffffffffffffffffffffffffffffffffffff16600260008373ffffffffffffffffffffffffffffffffffffffff1673ffffffffffffffffffffffffffffffffffffffff16815260200190815260200160002060000160009054906101000a900473ffffffffffffffffffffffffffffffffffffffff1673ffffffffffffffffffffffffffffffffffffffff16146104e4576040517f08c379a00000000000000000000000000000000000000000000000000000000081526004016104db9061272a565b60405180910390fd5b6000600260008473ffffffffffffffffffffffffffffffffffffffff1673ffffffffffffffffffffffffffffffffffffffff168152602001908152602001600020600501541480610584575062278d004261053f9190612948565b600260008473ffffffffffffffffffffffffffffffffffffffff1673ffffffffffffffffffffffffffffffffffffffff16815260200190815260200160002060050154105b6105c3576040517f08c379a00000000000000000000000000000000000000000000000000000000081526004016105ba9061270a565b60405180910390fd5b60008060009054906101000a900473ffffffffffffffffffffffffffffffffffffffff1673ffffffffffffffffffffffffffffffffffffffff1663dd62ed3e33306040518363ffffffff1660e01b815260040161062192919061254b565b60206040518083038186803b15801561063957600080fd5b505afa15801561064d573d6000803e3d6000fd5b505050506040513d601f19601f82011682018060405250810190610671919061217b565b9050600260008473ffffffffffffffffffffffffffffffffffffffff1673ffffffffffffffffffffffffffffffffffffffff168152602001908152602001600020600401548110156106f8576040517f08c379a00000000000000000000000000000000000000000000000000000000081526004016106ef906127ca565b60405180910390fd5b42600260008573ffffffffffffffffffffffffffffffffffffffff1673ffffffffffffffffffffffffffffffffffffffff16815260200190815260200160002060050181905550600260008473ffffffffffffffffffffffffffffffffffffffff1673ffffffffffffffffffffffffffffffffffffffff16815260200190815260200160002060040154600260008573ffffffffffffffffffffffffffffffffffffffff1673ffffffffffffffffffffffffffffffffffffffff16815260200190815260200160002060060160008282546107d39190612867565b9250508190555060008054906101000a900473ffffffffffffffffffffffffffffffffffffffff1673ffffffffffffffffffffffffffffffffffffffff166323b872dd3330600260008873ffffffffffffffffffffffffffffffffffffffff1673ffffffffffffffffffffffffffffffffffffffff168152602001908152602001600020600401546040518463ffffffff1660e01b815260040161087993929190612574565b602060405180830381600087803b15801561089357600080fd5b505af11580156108a7573d6000803e3d6000fd5b505050506040513d601f19601f820116820180604052508101906108cb9190612129565b50505050565b8360001515600260008373ffffffffffffffffffffffffffffffffffffffff1673ffffffffffffffffffffffffffffffffffffffff16815260200190815260200160002060030160149054906101000a900460ff16151514610968576040517f08c379a000000000000000000000000000000000000000000000000000000000815260040161095f906126aa565b60405180910390fd5b8473ffffffffffffffffffffffffffffffffffffffff163373ffffffffffffffffffffffffffffffffffffffff1614156109d7576040517f08c379a00000000000000000000000000000000000000000000000000000000081526004016109ce906126ca565b60405180910390fd5b33600160003373ffffffffffffffffffffffffffffffffffffffff1673ffffffffffffffffffffffffffffffffffffffff16815260200190815260200160002060000160006101000a81548173ffffffffffffffffffffffffffffffffffffffff021916908373ffffffffffffffffffffffffffffffffffffffff1602179055506001600260008773ffffffffffffffffffffffffffffffffffffffff1673ffffffffffffffffffffffffffffffffffffffff16815260200190815260200160002060030160146101000a81548160ff02191690831515021790555083600260008773ffffffffffffffffffffffffffffffffffffffff1673ffffffffffffffffffffffffffffffffffffffff1681526020019081526020016000206001019080519060200190610b09929190611e81565b5082600260008773ffffffffffffffffffffffffffffffffffffffff1673ffffffffffffffffffffffffffffffffffffffff1681526020019081526020016000206002019080519060200190610b60929190611e81565b5084600260008773ffffffffffffffffffffffffffffffffffffffff1673ffffffffffffffffffffffffffffffffffffffff16815260200190815260200160002060030160006101000a81548173ffffffffffffffffffffffffffffffffffffffff021916908373ffffffffffffffffffffffffffffffffffffffff16021790555033600260008773ffffffffffffffffffffffffffffffffffffffff1673ffffffffffffffffffffffffffffffffffffffff16815260200190815260200160002060000160006101000a81548173ffffffffffffffffffffffffffffffffffffffff021916908373ffffffffffffffffffffffffffffffffffffffff16021790555081600260008773ffffffffffffffffffffffffffffffffffffffff1673ffffffffffffffffffffffffffffffffffffffff16815260200190815260200160002060040181905550600160003373ffffffffffffffffffffffffffffffffffffffff1673ffffffffffffffffffffffffffffffffffffffff168152602001908152602001600020600101600260008773ffffffffffffffffffffffffffffffffffffffff1673ffffffffffffffffffffffffffffffffffffffff16815260200190815260200160002090806001815401808255809150506001900390600052602060002090600802016000909190919091506000820160009054906101000a900473ffffffffffffffffffffffffffffffffffffffff168160000160006101000a81548173ffffffffffffffffffffffffffffffffffffffff021916908373ffffffffffffffffffffffffffffffffffffffff1602179055506001820181600101908054610dcf90612a2a565b610dda929190611f07565b506002820181600201908054610def90612a2a565b610dfa929190611f07565b506003820160009054906101000a900473ffffffffffffffffffffffffffffffffffffffff168160030160006101000a81548173ffffffffffffffffffffffffffffffffffffffff021916908373ffffffffffffffffffffffffffffffffffffffff1602179055506003820160149054906101000a900460ff168160030160146101000a81548160ff0219169083151502179055506004820154816004015560058201548160050155600682015481600601556007820154816007015550505050505050565b8060011515600260008373ffffffffffffffffffffffffffffffffffffffff1673ffffffffffffffffffffffffffffffffffffffff16815260200190815260200160002060030160149054906101000a900460ff16151514610f57576040517f08c379a0000000000000000000000000000000000000000000000000000000008152600401610f4e9061276a565b60405180910390fd5b3373ffffffffffffffffffffffffffffffffffffffff16600260008373ffffffffffffffffffffffffffffffffffffffff1673ffffffffffffffffffffffffffffffffffffffff16815260200190815260200160002060000160009054906101000a900473ffffffffffffffffffffffffffffffffffffffff1673ffffffffffffffffffffffffffffffffffffffff1614611027576040517f08c379a000000000000000000000000000000000000000000000000000000000815260040161101e9061272a565b60405180910390fd5b8173ffffffffffffffffffffffffffffffffffffffff163373ffffffffffffffffffffffffffffffffffffffff161415611096576040517f08c379a000000000000000000000000000000000000000000000000000000000815260040161108d9061278a565b60405180910390fd5b600260008373ffffffffffffffffffffffffffffffffffffffff1673ffffffffffffffffffffffffffffffffffffffff16815260200190815260200160002060060154600260008473ffffffffffffffffffffffffffffffffffffffff1673ffffffffffffffffffffffffffffffffffffffff168152602001908152602001600020600701600082825461112a9190612867565b925050819055506000600260008473ffffffffffffffffffffffffffffffffffffffff1673ffffffffffffffffffffffffffffffffffffffff168152602001908152602001600020600601819055506000600260008473ffffffffffffffffffffffffffffffffffffffff1673ffffffffffffffffffffffffffffffffffffffff16815260200190815260200160002060030160146101000a81548160ff0219169083151502179055505050565b6000600260003373ffffffffffffffffffffffffffffffffffffffff1673ffffffffffffffffffffffffffffffffffffffff16815260200190815260200160002060060154600260003373ffffffffffffffffffffffffffffffffffffffff1673ffffffffffffffffffffffffffffffffffffffff1681526020019081526020016000206007015461126a9190612867565b9050600081116112af576040517f08c379a00000000000000000000000000000000000000000000000000000000081526004016112a6906126ea565b60405180910390fd5b6000600260003373ffffffffffffffffffffffffffffffffffffffff1673ffffffffffffffffffffffffffffffffffffffff168152602001908152602001600020600701819055506000600260003373ffffffffffffffffffffffffffffffffffffffff1673ffffffffffffffffffffffffffffffffffffffff1681526020019081526020016000206006018190555060008054906101000a900473ffffffffffffffffffffffffffffffffffffffff1673ffffffffffffffffffffffffffffffffffffffff1663a9059cbb33836040518363ffffffff1660e01b815260040161139a929190612646565b602060405180830381600087803b1580156113b457600080fd5b505af11580156113c8573d6000803e3d6000fd5b505050506040513d601f19601f820116820180604052508101906113ec9190612129565b5050565b600080600160003373ffffffffffffffffffffffffffffffffffffffff1673ffffffffffffffffffffffffffffffffffffffff16815260200190815260200160002060010180549050111561162d5760005b600160003373ffffffffffffffffffffffffffffffffffffffff1673ffffffffffffffffffffffffffffffffffffffff1681526020019081526020016000206001018054905081101561162b57600160003373ffffffffffffffffffffffffffffffffffffffff1673ffffffffffffffffffffffffffffffffffffffff1681526020019081526020016000206001018181548110611509577f4e487b7100000000000000000000000000000000000000000000000000000000600052603260045260246000fd5b906000526020600020906008020160030160149054906101000a900460ff16801561160a57503373ffffffffffffffffffffffffffffffffffffffff16600160003373ffffffffffffffffffffffffffffffffffffffff1673ffffffffffffffffffffffffffffffffffffffff16815260200190815260200160002060010182815481106115c0577f4e487b7100000000000000000000000000000000000000000000000000000000600052603260045260246000fd5b906000526020600020906008020160000160009054906101000a900473ffffffffffffffffffffffffffffffffffffffff1673ffffffffffffffffffffffffffffffffffffffff16145b15611618576001915061162b565b808061162390612a5c565b915050611442565b505b6001151581151514611674576040517f08c379a000000000000000000000000000000000000000000000000000000000815260040161166b9061268a565b60405180910390fd5b6000600160003373ffffffffffffffffffffffffffffffffffffffff1673ffffffffffffffffffffffffffffffffffffffff16815260200190815260200160002060010180549050116116fc576040517f08c379a00000000000000000000000000000000000000000000000000000000081526004016116f3906127aa565b60405180910390fd5b6000821161173f576040517f08c379a00000000000000000000000000000000000000000000000000000000081526004016117369061274a565b60405180910390fd5b60008060009054906101000a900473ffffffffffffffffffffffffffffffffffffffff1673ffffffffffffffffffffffffffffffffffffffff1663dd62ed3e33306040518363ffffffff1660e01b815260040161179d92919061254b565b60206040518083038186803b1580156117b557600080fd5b505afa1580156117c9573d6000803e3d6000fd5b505050506040513d601f19601f820116820180604052508101906117ed919061217b565b905082811015611832576040517f08c379a0000000000000000000000000000000000000000000000000000000008152600401611829906127ca565b60405180910390fd5b60008054906101000a900473ffffffffffffffffffffffffffffffffffffffff1673ffffffffffffffffffffffffffffffffffffffff166323b872dd3330866040518463ffffffff1660e01b815260040161188f93929190612574565b602060405180830381600087803b1580156118a957600080fd5b505af11580156118bd573d6000803e3d6000fd5b505050506040513d601f19601f820116820180604052508101906118e19190612129565b5060008060005b600160003373ffffffffffffffffffffffffffffffffffffffff1673ffffffffffffffffffffffffffffffffffffffff16815260200190815260200160002060010180549050811015611c0457600160003373ffffffffffffffffffffffffffffffffffffffff1673ffffffffffffffffffffffffffffffffffffffff16815260200190815260200160002060010181815481106119af577f4e487b7100000000000000000000000000000000000000000000000000000000600052603260045260246000fd5b906000526020600020906008020160030160149054906101000a900460ff168015611ab057503373ffffffffffffffffffffffffffffffffffffffff16600160003373ffffffffffffffffffffffffffffffffffffffff1673ffffffffffffffffffffffffffffffffffffffff1681526020019081526020016000206001018281548110611a66577f4e487b7100000000000000000000000000000000000000000000000000000000600052603260045260246000fd5b906000526020600020906008020160000160009054906101000a900473ffffffffffffffffffffffffffffffffffffffff1673ffffffffffffffffffffffffffffffffffffffff16145b15611bf157600160003373ffffffffffffffffffffffffffffffffffffffff1673ffffffffffffffffffffffffffffffffffffffff1681526020019081526020016000206001018181548110611b2f577f4e487b7100000000000000000000000000000000000000000000000000000000600052603260045260246000fd5b906000526020600020906008020160030160009054906101000a900473ffffffffffffffffffffffffffffffffffffffff16838381548110611b9a577f4e487b7100000000000000000000000000000000000000000000000000000000600052603260045260246000fd5b9060005260206000200160006101000a81548173ffffffffffffffffffffffffffffffffffffffff021916908373ffffffffffffffffffffffffffffffffffffffff1602179055508180611bed90612a5c565b9250505b8080611bfc90612a5c565b9150506118e8565b506000811115611dfc57600081600160003373ffffffffffffffffffffffffffffffffffffffff1673ffffffffffffffffffffffffffffffffffffffff1681526020019081526020016000206002015487611c5f9190612867565b611c6991906128bd565b905060008282611c7991906128ee565b600160003373ffffffffffffffffffffffffffffffffffffffff1673ffffffffffffffffffffffffffffffffffffffff1681526020019081526020016000206002015488611cc79190612867565b611cd19190612948565b905080600160003373ffffffffffffffffffffffffffffffffffffffff1673ffffffffffffffffffffffffffffffffffffffff1681526020019081526020016000206002018190555060005b83811015611df4578260026000878481548110611d63577f4e487b7100000000000000000000000000000000000000000000000000000000600052603260045260246000fd5b9060005260206000200160009054906101000a900473ffffffffffffffffffffffffffffffffffffffff1673ffffffffffffffffffffffffffffffffffffffff1673ffffffffffffffffffffffffffffffffffffffff1681526020019081526020016000206006016000828254611dda9190612867565b925050819055508080611dec90612a5c565b915050611d1d565b505050611e56565b84600160003373ffffffffffffffffffffffffffffffffffffffff1673ffffffffffffffffffffffffffffffffffffffff1681526020019081526020016000206002016000828254611e4e9190612867565b925050819055505b5050505050565b60008054906101000a900473ffffffffffffffffffffffffffffffffffffffff1681565b828054611e8d90612a2a565b90600052602060002090601f016020900481019282611eaf5760008555611ef6565b82601f10611ec857805160ff1916838001178555611ef6565b82800160010185558215611ef6579182015b82811115611ef5578251825591602001919060010190611eda565b5b509050611f039190611f94565b5090565b828054611f1390612a2a565b90600052602060002090601f016020900481019282611f355760008555611f83565b82601f10611f465780548555611f83565b82800160010185558215611f8357600052602060002091601f016020900482015b82811115611f82578254825591600101919060010190611f67565b5b509050611f909190611f94565b5090565b5b80821115611fad576000816000905550600101611f95565b5090565b6000611fc4611fbf8461281b565b6127ea565b905082815260208101848484011115611fdc57600080fd5b611fe78482856129e8565b509392505050565b600081359050611ffe81612b72565b92915050565b60008151905061201381612b89565b92915050565b600082601f83011261202a57600080fd5b813561203a848260208601611fb1565b91505092915050565b60008135905061205281612ba0565b92915050565b60008151905061206781612ba0565b92915050565b60006020828403121561207f57600080fd5b600061208d84828501611fef565b91505092915050565b600080600080608085870312156120ac57600080fd5b60006120ba87828801611fef565b945050602085013567ffffffffffffffff8111156120d757600080fd5b6120e387828801612019565b935050604085013567ffffffffffffffff81111561210057600080fd5b61210c87828801612019565b925050606061211d87828801612043565b91505092959194509250565b60006020828403121561213b57600080fd5b600061214984828501612004565b91505092915050565b60006020828403121561216457600080fd5b600061217284828501612043565b91505092915050565b60006020828403121561218d57600080fd5b600061219b84828501612058565b91505092915050565b6121ad8161297c565b82525050565b6121bc8161298e565b82525050565b6121cb816129c4565b82525050565b60006121dc8261284b565b6121e68185612856565b93506121f68185602086016129f7565b6121ff81612b61565b840191505092915050565b6000612217601c83612856565b91507f4e6f626f647920776f726b7320696e20796f757220636f6d70616e79000000006000830152602082019050919050565b6000612257601d83612856565b91507f7468697320706572736f6e20616c7265616479206861732061206a6f620000006000830152602082019050919050565b6000612297601883612856565b91507f596f752c2063616e2774206869726520796f757273656c6600000000000000006000830152602082019050919050565b60006122d7600e83612856565b91507f596f75206172652062726f6b65210000000000000000000000000000000000006000830152602082019050919050565b6000612317602383612856565b91507f596f7520616c72656164207061696420696e20746865206c617374203330206460008301527f61797300000000000000000000000000000000000000000000000000000000006020830152604082019050919050565b600061237d602083612856565b91507f7468697320706572736f6e20646f206e6f7420776f726b7320666f7220796f756000830152602082019050919050565b60006123bd601d83612856565b91507f616d6f756e74206d7573742062652067726561746572207468616e20300000006000830152602082019050919050565b60006123fd601b83612856565b91507f7468697320706572736f6e206973206e6f7420656d706c6f79656400000000006000830152602082019050919050565b600061243d603783612856565b91507f596f752c2063616e2774206669726520796f757273656c662c20776169742e2e60008301527f2e20686f7720646f20796f75206765742068697265643f0000000000000000006020830152604082019050919050565b60006124a3602383612856565b91507f4a6f62206d7573742068617665206174206c65617374206f6e6520656d706c6f60008301527f79656500000000000000000000000000000000000000000000000000000000006020830152604082019050919050565b6000612509601b83612856565b91507f596f75206e6f7420616c6c6f776564207468697320616d6f756e7400000000006000830152602082019050919050565b612545816129ba565b82525050565b600060408201905061256060008301856121a4565b61256d60208301846121a4565b9392505050565b600060608201905061258960008301866121a4565b61259660208301856121a4565b6125a3604083018461253c565b949350505050565b6000610120820190506125c1600083018c6121a4565b81810360208301526125d3818b6121d1565b905081810360408301526125e7818a6121d1565b90506125f660608301896121a4565b61260360808301886121b3565b61261060a083018761253c565b61261d60c083018661253c565b61262a60e083018561253c565b61263861010083018461253c565b9a9950505050505050505050565b600060408201905061265b60008301856121a4565b612668602083018461253c565b9392505050565b600060208201905061268460008301846121c2565b92915050565b600060208201905081810360008301526126a38161220a565b9050919050565b600060208201905081810360008301526126c38161224a565b9050919050565b600060208201905081810360008301526126e38161228a565b9050919050565b60006020820190508181036000830152612703816122ca565b9050919050565b600060208201905081810360008301526127238161230a565b9050919050565b6000602082019050818103600083015261274381612370565b9050919050565b60006020820190508181036000830152612763816123b0565b9050919050565b60006020820190508181036000830152612783816123f0565b9050919050565b600060208201905081810360008301526127a381612430565b9050919050565b600060208201905081810360008301526127c381612496565b9050919050565b600060208201905081810360008301526127e3816124fc565b9050919050565b6000604051905081810181811067ffffffffffffffff8211171561281157612810612b32565b5b8060405250919050565b600067ffffffffffffffff82111561283657612835612b32565b5b601f19601f8301169050602081019050919050565b600081519050919050565b600082825260208201905092915050565b6000612872826129ba565b915061287d836129ba565b9250827fffffffffffffffffffffffffffffffffffffffffffffffffffffffffffffffff038211156128b2576128b1612aa5565b5b828201905092915050565b60006128c8826129ba565b91506128d3836129ba565b9250826128e3576128e2612ad4565b5b828204905092915050565b60006128f9826129ba565b9150612904836129ba565b9250817fffffffffffffffffffffffffffffffffffffffffffffffffffffffffffffffff048311821515161561293d5761293c612aa5565b5b828202905092915050565b6000612953826129ba565b915061295e836129ba565b92508282101561297157612970612aa5565b5b828203905092915050565b60006129878261299a565b9050919050565b60008115159050919050565b600073ffffffffffffffffffffffffffffffffffffffff82169050919050565b6000819050919050565b60006129cf826129d6565b9050919050565b60006129e18261299a565b9050919050565b82818337600083830152505050565b60005b83811015612a155780820151818401526020810190506129fa565b83811115612a24576000848401525b50505050565b60006002820490506001821680612a4257607f821691505b60208210811415612a5657612a55612b03565b5b50919050565b6000612a67826129ba565b91507fffffffffffffffffffffffffffffffffffffffffffffffffffffffffffffffff821415612a9a57612a99612aa5565b5b600182019050919050565b7f4e487b7100000000000000000000000000000000000000000000000000000000600052601160045260246000fd5b7f4e487b7100000000000000000000000000000000000000000000000000000000600052601260045260246000fd5b7f4e487b7100000000000000000000000000000000000000000000000000000000600052602260045260246000fd5b7f4e487b7100000000000000000000000000000000000000000000000000000000600052604160045260246000fd5b6000601f19601f8301169050919050565b612b7b8161297c565b8114612b8657600080fd5b50565b612b928161298e565b8114612b9d57600080fd5b50565b612ba9816129ba565b8114612bb457600080fd5b5056fea264697066735822122031e4221ebfbd772c864b7b4f56a88c5aba8ba4d0c5e33589399269379af8218664736f6c63430008000033",
  "devdoc": {
    "kind": "dev",
    "methods": {},
    "version": 1
  },
  "userdoc": {
    "kind": "user",
    "methods": {},
    "version": 1
  },
  "storageLayout": {
    "storage": [
      {
        "astId": 83,
        "contract": "contracts/Allowance.sol:Allowance",
        "label": "currency",
        "offset": 0,
        "slot": "0",
        "type": "t_contract(IERC20)77"
      },
      {
        "astId": 127,
        "contract": "contracts/Allowance.sol:Allowance",
        "label": "job",
        "offset": 0,
        "slot": "1",
        "type": "t_mapping(t_address,t_struct(Job)103_storage)"
      },
      {
        "astId": 132,
        "contract": "contracts/Allowance.sol:Allowance",
        "label": "employee",
        "offset": 0,
        "slot": "2",
        "type": "t_mapping(t_address,t_struct(Employee)122_storage)"
      }
    ],
    "types": {
      "t_address": {
        "encoding": "inplace",
        "label": "address",
        "numberOfBytes": "20"
      },
      "t_array(t_struct(Employee)122_storage)dyn_storage": {
        "base": "t_struct(Employee)122_storage",
        "encoding": "dynamic_array",
        "label": "struct Allowance.Employee[]",
        "numberOfBytes": "32"
      },
      "t_bool": {
        "encoding": "inplace",
        "label": "bool",
        "numberOfBytes": "1"
      },
      "t_contract(IERC20)77": {
        "encoding": "inplace",
        "label": "contract IERC20",
        "numberOfBytes": "20"
      },
      "t_mapping(t_address,t_struct(Employee)122_storage)": {
        "encoding": "mapping",
        "key": "t_address",
        "label": "mapping(address => struct Allowance.Employee)",
        "numberOfBytes": "32",
        "value": "t_struct(Employee)122_storage"
      },
      "t_mapping(t_address,t_struct(Job)103_storage)": {
        "encoding": "mapping",
        "key": "t_address",
        "label": "mapping(address => struct Allowance.Job)",
        "numberOfBytes": "32",
        "value": "t_struct(Job)103_storage"
      },
      "t_string_storage": {
        "encoding": "bytes",
        "label": "string",
        "numberOfBytes": "32"
      },
      "t_struct(Employee)122_storage": {
        "encoding": "inplace",
        "label": "struct Allowance.Employee",
        "members": [
          {
            "astId": 105,
            "contract": "contracts/Allowance.sol:Allowance",
            "label": "boss",
            "offset": 0,
            "slot": "0",
            "type": "t_address"
          },
          {
            "astId": 107,
            "contract": "contracts/Allowance.sol:Allowance",
            "label": "name",
            "offset": 0,
            "slot": "1",
            "type": "t_string_storage"
          },
          {
            "astId": 109,
            "contract": "contracts/Allowance.sol:Allowance",
            "label": "position",
            "offset": 0,
            "slot": "2",
            "type": "t_string_storage"
          },
          {
            "astId": 111,
            "contract": "contracts/Allowance.sol:Allowance",
            "label": "_address",
            "offset": 0,
            "slot": "3",
            "type": "t_address"
          },
          {
            "astId": 113,
            "contract": "contracts/Allowance.sol:Allowance",
            "label": "employed",
            "offset": 20,
            "slot": "3",
            "type": "t_bool"
          },
          {
            "astId": 115,
            "contract": "contracts/Allowance.sol:Allowance",
            "label": "salary",
            "offset": 0,
            "slot": "4",
            "type": "t_uint256"
          },
          {
            "astId": 117,
            "contract": "contracts/Allowance.sol:Allowance",
            "label": "paymentDate",
            "offset": 0,
            "slot": "5",
            "type": "t_uint256"
          },
          {
            "astId": 119,
            "contract": "contracts/Allowance.sol:Allowance",
            "label": "balance",
            "offset": 0,
            "slot": "6",
            "type": "t_uint256"
          },
          {
            "astId": 121,
            "contract": "contracts/Allowance.sol:Allowance",
            "label": "oldBalance",
            "offset": 0,
            "slot": "7",
            "type": "t_uint256"
          }
        ],
        "numberOfBytes": "256"
      },
      "t_struct(Job)103_storage": {
        "encoding": "inplace",
        "label": "struct Allowance.Job",
        "members": [
          {
            "astId": 96,
            "contract": "contracts/Allowance.sol:Allowance",
            "label": "boss",
            "offset": 0,
            "slot": "0",
            "type": "t_address"
          },
          {
            "astId": 100,
            "contract": "contracts/Allowance.sol:Allowance",
            "label": "employees",
            "offset": 0,
            "slot": "1",
            "type": "t_array(t_struct(Employee)122_storage)dyn_storage"
          },
          {
            "astId": 102,
            "contract": "contracts/Allowance.sol:Allowance",
            "label": "balance",
            "offset": 0,
            "slot": "2",
            "type": "t_uint256"
          }
        ],
        "numberOfBytes": "96"
      },
      "t_uint256": {
        "encoding": "inplace",
        "label": "uint256",
        "numberOfBytes": "32"
      }
    }
  }
}