{
  "_format": "hh-sol-artifact-1",
  "contractName": "Allowance",
  "sourceName": "contracts/Allowance.sol",
  "abi": [
    {
      "inputs": [
        {
          "internalType": "contract FakeUSDToken",
          "name": "token",
          "type": "address"
        }
      ],
      "stateMutability": "nonpayable",
      "type": "constructor"
    },
    {
      "anonymous": false,
      "inputs": [
        {
          "indexed": true,
          "internalType": "address",
          "name": "_boss",
          "type": "address"
        },
        {
          "indexed": true,
          "internalType": "address",
          "name": "_employee",
          "type": "address"
        }
      ],
      "name": "fireEvent",
      "type": "event"
    },
    {
      "anonymous": false,
      "inputs": [
        {
          "indexed": true,
          "internalType": "address",
          "name": "_boss",
          "type": "address"
        },
        {
          "indexed": true,
          "internalType": "address",
          "name": "_employee",
          "type": "address"
        }
      ],
      "name": "hireEvent",
      "type": "event"
    },
    {
      "anonymous": false,
      "inputs": [
        {
          "indexed": true,
          "internalType": "address",
          "name": "_boss",
          "type": "address"
        },
        {
          "indexed": true,
          "internalType": "address",
          "name": "_employee",
          "type": "address"
        }
      ],
      "name": "payEmployeeEvent",
      "type": "event"
    },
    {
      "anonymous": false,
      "inputs": [
        {
          "indexed": true,
          "internalType": "address",
          "name": "_address",
          "type": "address"
        }
      ],
      "name": "quitJobAndWithDrawAllEvent",
      "type": "event"
    },
    {
      "anonymous": false,
      "inputs": [
        {
          "indexed": true,
          "internalType": "address",
          "name": "_boss",
          "type": "address"
        }
      ],
      "name": "sharedBonusDepositEvent",
      "type": "event"
    },
    {
      "anonymous": false,
      "inputs": [
        {
          "indexed": true,
          "internalType": "address",
          "name": "_address",
          "type": "address"
        }
      ],
      "name": "withDrawAllEvent",
      "type": "event"
    },
    {
      "inputs": [
        {
          "internalType": "address",
          "name": "_address",
          "type": "address"
        }
      ],
      "name": "alreadyPaid",
      "outputs": [
        {
          "internalType": "bool",
          "name": "",
          "type": "bool"
        }
      ],
      "stateMutability": "view",
      "type": "function"
    },
    {
      "inputs": [],
      "name": "currency",
      "outputs": [
        {
          "internalType": "contract FakeUSDToken",
          "name": "",
          "type": "address"
        }
      ],
      "stateMutability": "view",
      "type": "function"
    },
    {
      "inputs": [
        {
          "internalType": "address",
          "name": "",
          "type": "address"
        }
      ],
      "name": "employee",
      "outputs": [
        {
          "internalType": "address",
          "name": "boss",
          "type": "address"
        },
        {
          "internalType": "string",
          "name": "name",
          "type": "string"
        },
        {
          "internalType": "string",
          "name": "position",
          "type": "string"
        },
        {
          "internalType": "address",
          "name": "_address",
          "type": "address"
        },
        {
          "internalType": "bool",
          "name": "employed",
          "type": "bool"
        },
        {
          "internalType": "uint256",
          "name": "salary",
          "type": "uint256"
        },
        {
          "internalType": "uint256",
          "name": "paymentDate",
          "type": "uint256"
        },
        {
          "internalType": "uint256",
          "name": "balance",
          "type": "uint256"
        },
        {
          "internalType": "uint256",
          "name": "oldBalance",
          "type": "uint256"
        }
      ],
      "stateMutability": "view",
      "type": "function"
    },
    {
      "inputs": [
        {
          "internalType": "address",
          "name": "_address",
          "type": "address"
        }
      ],
      "name": "fire",
      "outputs": [],
      "stateMutability": "nonpayable",
      "type": "function"
    },
    {
      "inputs": [
        {
          "internalType": "address",
          "name": "_address",
          "type": "address"
        },
        {
          "internalType": "string",
          "name": "_name",
          "type": "string"
        },
        {
          "internalType": "string",
          "name": "_position",
          "type": "string"
        },
        {
          "internalType": "uint256",
          "name": "_salary",
          "type": "uint256"
        }
      ],
      "name": "hire",
      "outputs": [],
      "stateMutability": "nonpayable",
      "type": "function"
    },
    {
      "inputs": [
        {
          "internalType": "address",
          "name": "",
          "type": "address"
        }
      ],
      "name": "job",
      "outputs": [
        {
          "internalType": "address",
          "name": "boss",
          "type": "address"
        },
        {
          "internalType": "uint256",
          "name": "balance",
          "type": "uint256"
        }
      ],
      "stateMutability": "view",
      "type": "function"
    },
    {
      "inputs": [],
      "name": "myEmployees",
      "outputs": [
        {
          "components": [
            {
              "internalType": "address",
              "name": "boss",
              "type": "address"
            },
            {
              "internalType": "string",
              "name": "name",
              "type": "string"
            },
            {
              "internalType": "string",
              "name": "position",
              "type": "string"
            },
            {
              "internalType": "address",
              "name": "_address",
              "type": "address"
            },
            {
              "internalType": "bool",
              "name": "employed",
              "type": "bool"
            },
            {
              "internalType": "uint256",
              "name": "salary",
              "type": "uint256"
            },
            {
              "internalType": "uint256",
              "name": "paymentDate",
              "type": "uint256"
            },
            {
              "internalType": "uint256",
              "name": "balance",
              "type": "uint256"
            },
            {
              "internalType": "uint256",
              "name": "oldBalance",
              "type": "uint256"
            }
          ],
          "internalType": "struct Allowance.Employee[]",
          "name": "",
          "type": "tuple[]"
        }
      ],
      "stateMutability": "view",
      "type": "function"
    },
    {
      "inputs": [
        {
          "internalType": "address",
          "name": "_address",
          "type": "address"
        }
      ],
      "name": "payEmployee",
      "outputs": [],
      "stateMutability": "nonpayable",
      "type": "function"
    },
    {
      "inputs": [],
      "name": "quitJobAndWithDrawAll",
      "outputs": [],
      "stateMutability": "nonpayable",
      "type": "function"
    },
    {
      "inputs": [
        {
          "internalType": "uint256",
          "name": "_amount",
          "type": "uint256"
        }
      ],
      "name": "sharedBonusDeposit",
      "outputs": [],
      "stateMutability": "nonpayable",
      "type": "function"
    },
    {
      "inputs": [],
      "name": "withdrawAll",
      "outputs": [],
      "stateMutability": "nonpayable",
      "type": "function"
    }
  ],
  "bytecode": "0x60806040523480156200001157600080fd5b506040516200433238038062004332833981810160405281019062000037919062000095565b806000806101000a81548173ffffffffffffffffffffffffffffffffffffffff021916908373ffffffffffffffffffffffffffffffffffffffff1602179055505062000123565b6000815190506200008f8162000109565b92915050565b600060208284031215620000a857600080fd5b6000620000b8848285016200007e565b91505092915050565b6000620000ce82620000e9565b9050919050565b6000620000e282620000c1565b9050919050565b600073ffffffffffffffffffffffffffffffffffffffff82169050919050565b6200011481620000d5565b81146200012057600080fd5b50565b6141ff80620001336000396000f3fe608060405234801561001057600080fd5b50600436106100a95760003560e01c80637885c960116100715780637885c9601461017f57806384f6c6b01461019b578063853828b6146101b9578063a8fd99a7146101c3578063d83e6af6146101cd578063e5a6b10f146101e9576100a9565b80630947d0d0146100ae57806309d495fd146100df5780631f3d793e146101175780631f50ad1614610147578063657b53a914610163575b600080fd5b6100c860048036038101906100c391906132de565b610207565b6040516100d6929190613ac4565b60405180910390f35b6100f960048036038101906100f491906132de565b61024b565b60405161010e99989796959493929190613a29565b60405180910390f35b610131600480360381019061012c91906132de565b6103f6565b60405161013e9190613b0f565b60405180910390f35b610161600480360381019061015c91906132de565b610626565b005b61017d60048036038101906101789190613307565b610b46565b005b610199600480360381019061019491906132de565b6111fe565b005b6101a3611570565b6040516101b09190613aed565b60405180910390f35b6101c16119b1565b005b6101cb611c0c565b005b6101e760048036038101906101e291906133c3565b611f18565b005b6101f1612b2d565b6040516101fe9190613b2a565b60405180910390f35b60016020528060005260406000206000915090508060000160009054906101000a900473ffffffffffffffffffffffffffffffffffffffff16908060020154905082565b60026020528060005260406000206000915090508060000160009054906101000a900473ffffffffffffffffffffffffffffffffffffffff169080600101805461029490613fb0565b80601f01602080910402602001604051908101604052809291908181526020018280546102c090613fb0565b801561030d5780601f106102e25761010080835404028352916020019161030d565b820191906000526020600020905b8154815290600101906020018083116102f057829003601f168201915b50505050509080600201805461032290613fb0565b80601f016020809104026020016040519081016040528092919081815260200182805461034e90613fb0565b801561039b5780601f106103705761010080835404028352916020019161039b565b820191906000526020600020905b81548152906001019060200180831161037e57829003601f168201915b5050505050908060030160009054906101000a900473ffffffffffffffffffffffffffffffffffffffff16908060030160149054906101000a900460ff16908060040154908060050154908060060154908060070154905089565b60008160011515600260008373ffffffffffffffffffffffffffffffffffffffff1673ffffffffffffffffffffffffffffffffffffffff16815260200190815260200160002060030160149054906101000a900460ff1615151461048f576040517f08c379a000000000000000000000000000000000000000000000000000000000815260040161048690613c25565b60405180910390fd5b3373ffffffffffffffffffffffffffffffffffffffff16600260008373ffffffffffffffffffffffffffffffffffffffff1673ffffffffffffffffffffffffffffffffffffffff16815260200190815260200160002060000160009054906101000a900473ffffffffffffffffffffffffffffffffffffffff1673ffffffffffffffffffffffffffffffffffffffff161461055f576040517f08c379a000000000000000000000000000000000000000000000000000000000815260040161055690613be5565b60405180910390fd5b6000600260008573ffffffffffffffffffffffffffffffffffffffff1673ffffffffffffffffffffffffffffffffffffffff1681526020019081526020016000206005015414156105b35760009150610620565b6105bc42612b51565b60ff1661060a600260008673ffffffffffffffffffffffffffffffffffffffff1673ffffffffffffffffffffffffffffffffffffffff16815260200190815260200160002060050154612b51565b60ff161461061b5760009150610620565b600191505b50919050565b8060011515600260008373ffffffffffffffffffffffffffffffffffffffff1673ffffffffffffffffffffffffffffffffffffffff16815260200190815260200160002060030160149054906101000a900460ff161515146106bd576040517f08c379a00000000000000000000000000000000000000000000000000000000081526004016106b490613c25565b60405180910390fd5b3373ffffffffffffffffffffffffffffffffffffffff16600260008373ffffffffffffffffffffffffffffffffffffffff1673ffffffffffffffffffffffffffffffffffffffff16815260200190815260200160002060000160009054906101000a900473ffffffffffffffffffffffffffffffffffffffff1673ffffffffffffffffffffffffffffffffffffffff161461078d576040517f08c379a000000000000000000000000000000000000000000000000000000000815260040161078490613be5565b60405180910390fd5b816000151561079b826103f6565b1515146107dd576040517f08c379a00000000000000000000000000000000000000000000000000000000081526004016107d490613b45565b60405180910390fd5b60008060009054906101000a900473ffffffffffffffffffffffffffffffffffffffff1673ffffffffffffffffffffffffffffffffffffffff1663dd62ed3e33306040518363ffffffff1660e01b815260040161083b9291906139a0565b60206040518083038186803b15801561085357600080fd5b505afa158015610867573d6000803e3d6000fd5b505050506040513d601f19601f8201168201806040525081019061088b91906133ec565b9050600260008573ffffffffffffffffffffffffffffffffffffffff1673ffffffffffffffffffffffffffffffffffffffff16815260200190815260200160002060040154811015610912576040517f08c379a000000000000000000000000000000000000000000000000000000000815260040161090990613ca5565b60405180910390fd5b42600260008673ffffffffffffffffffffffffffffffffffffffff1673ffffffffffffffffffffffffffffffffffffffff16815260200190815260200160002060050181905550600260008573ffffffffffffffffffffffffffffffffffffffff1673ffffffffffffffffffffffffffffffffffffffff16815260200190815260200160002060040154600260008673ffffffffffffffffffffffffffffffffffffffff1673ffffffffffffffffffffffffffffffffffffffff16815260200190815260200160002060060160008282546109ed9190613d8c565b9250508190555060008054906101000a900473ffffffffffffffffffffffffffffffffffffffff1673ffffffffffffffffffffffffffffffffffffffff166323b872dd3330600260008973ffffffffffffffffffffffffffffffffffffffff1673ffffffffffffffffffffffffffffffffffffffff168152602001908152602001600020600401546040518463ffffffff1660e01b8152600401610a93939291906139c9565b602060405180830381600087803b158015610aad57600080fd5b505af1158015610ac1573d6000803e3d6000fd5b505050506040513d601f19601f82011682018060405250810190610ae5919061339a565b508373ffffffffffffffffffffffffffffffffffffffff163373ffffffffffffffffffffffffffffffffffffffff167f16c5f0bd1ec5ee2da1864c33fe61107acbb5e390898eb24526a5714eddc9cd5460405160405180910390a350505050565b8360001515600260008373ffffffffffffffffffffffffffffffffffffffff1673ffffffffffffffffffffffffffffffffffffffff16815260200190815260200160002060030160149054906101000a900460ff16151514610bdd576040517f08c379a0000000000000000000000000000000000000000000000000000000008152600401610bd490613b85565b60405180910390fd5b8473ffffffffffffffffffffffffffffffffffffffff163373ffffffffffffffffffffffffffffffffffffffff161415610c4c576040517f08c379a0000000000000000000000000000000000000000000000000000000008152600401610c4390613ba5565b60405180910390fd5b600073ffffffffffffffffffffffffffffffffffffffff16600160003373ffffffffffffffffffffffffffffffffffffffff1673ffffffffffffffffffffffffffffffffffffffff16815260200190815260200160002060000160009054906101000a900473ffffffffffffffffffffffffffffffffffffffff1673ffffffffffffffffffffffffffffffffffffffff161415610dfc5733600160003373ffffffffffffffffffffffffffffffffffffffff1673ffffffffffffffffffffffffffffffffffffffff16815260200190815260200160002060000160006101000a81548173ffffffffffffffffffffffffffffffffffffffff021916908373ffffffffffffffffffffffffffffffffffffffff16021790555060008054906101000a900473ffffffffffffffffffffffffffffffffffffffff1673ffffffffffffffffffffffffffffffffffffffff16636bdbc96a3369010f0cf064dd592000006040518363ffffffff1660e01b8152600401610dc9929190613a00565b600060405180830381600087803b158015610de357600080fd5b505af1158015610df7573d6000803e3d6000fd5b505050505b60008573ffffffffffffffffffffffffffffffffffffffff16600260008873ffffffffffffffffffffffffffffffffffffffff1673ffffffffffffffffffffffffffffffffffffffff16815260200190815260200160002060030160009054906101000a900473ffffffffffffffffffffffffffffffffffffffff1673ffffffffffffffffffffffffffffffffffffffff161415610e9957600190505b6001600260008873ffffffffffffffffffffffffffffffffffffffff1673ffffffffffffffffffffffffffffffffffffffff16815260200190815260200160002060030160146101000a81548160ff02191690831515021790555084600260008873ffffffffffffffffffffffffffffffffffffffff1673ffffffffffffffffffffffffffffffffffffffff1681526020019081526020016000206001019080519060200190610f4a9291906130b2565b5083600260008873ffffffffffffffffffffffffffffffffffffffff1673ffffffffffffffffffffffffffffffffffffffff1681526020019081526020016000206002019080519060200190610fa19291906130b2565b5085600260008873ffffffffffffffffffffffffffffffffffffffff1673ffffffffffffffffffffffffffffffffffffffff16815260200190815260200160002060030160006101000a81548173ffffffffffffffffffffffffffffffffffffffff021916908373ffffffffffffffffffffffffffffffffffffffff16021790555033600260008873ffffffffffffffffffffffffffffffffffffffff1673ffffffffffffffffffffffffffffffffffffffff16815260200190815260200160002060000160006101000a81548173ffffffffffffffffffffffffffffffffffffffff021916908373ffffffffffffffffffffffffffffffffffffffff16021790555082600260008873ffffffffffffffffffffffffffffffffffffffff1673ffffffffffffffffffffffffffffffffffffffff1681526020019081526020016000206004018190555060001515811515141561119c57600160003373ffffffffffffffffffffffffffffffffffffffff1673ffffffffffffffffffffffffffffffffffffffff168152602001908152602001600020600101869080600181540180825580915050600190039060005260206000200160009091909190916101000a81548173ffffffffffffffffffffffffffffffffffffffff021916908373ffffffffffffffffffffffffffffffffffffffff1602179055505b8573ffffffffffffffffffffffffffffffffffffffff163373ffffffffffffffffffffffffffffffffffffffff167f369b6e3c130f986c4a453dcd509e39a79917bd9fd9b097c659b5c9515f66065360405160405180910390a3505050505050565b8060011515600260008373ffffffffffffffffffffffffffffffffffffffff1673ffffffffffffffffffffffffffffffffffffffff16815260200190815260200160002060030160149054906101000a900460ff16151514611295576040517f08c379a000000000000000000000000000000000000000000000000000000000815260040161128c90613c25565b60405180910390fd5b3373ffffffffffffffffffffffffffffffffffffffff16600260008373ffffffffffffffffffffffffffffffffffffffff1673ffffffffffffffffffffffffffffffffffffffff16815260200190815260200160002060000160009054906101000a900473ffffffffffffffffffffffffffffffffffffffff1673ffffffffffffffffffffffffffffffffffffffff1614611365576040517f08c379a000000000000000000000000000000000000000000000000000000000815260040161135c90613be5565b60405180910390fd5b8173ffffffffffffffffffffffffffffffffffffffff163373ffffffffffffffffffffffffffffffffffffffff1614156113d4576040517f08c379a00000000000000000000000000000000000000000000000000000000081526004016113cb90613c45565b60405180910390fd5b600260008373ffffffffffffffffffffffffffffffffffffffff1673ffffffffffffffffffffffffffffffffffffffff16815260200190815260200160002060060154600260008473ffffffffffffffffffffffffffffffffffffffff1673ffffffffffffffffffffffffffffffffffffffff16815260200190815260200160002060070160008282546114689190613d8c565b925050819055506000600260008473ffffffffffffffffffffffffffffffffffffffff1673ffffffffffffffffffffffffffffffffffffffff168152602001908152602001600020600601819055506000600260008473ffffffffffffffffffffffffffffffffffffffff1673ffffffffffffffffffffffffffffffffffffffff16815260200190815260200160002060030160146101000a81548160ff0219169083151502179055508173ffffffffffffffffffffffffffffffffffffffff163373ffffffffffffffffffffffffffffffffffffffff167f9dcdfd5d58dcbea327218959fef04c5ab61baa5e136d3928d5fc5546258a106360405160405180910390a35050565b60606000600160003373ffffffffffffffffffffffffffffffffffffffff1673ffffffffffffffffffffffffffffffffffffffff16815260200190815260200160002060010180549050905060008167ffffffffffffffff8111156115fe577f4e487b7100000000000000000000000000000000000000000000000000000000600052604160045260246000fd5b60405190808252806020026020018201604052801561163757816020015b611624613138565b81526020019060019003908161161c5790505b50905060008211156119a95760005b828110156119a75760026000600160003373ffffffffffffffffffffffffffffffffffffffff1673ffffffffffffffffffffffffffffffffffffffff16815260200190815260200160002060010183815481106116cc577f4e487b7100000000000000000000000000000000000000000000000000000000600052603260045260246000fd5b9060005260206000200160009054906101000a900473ffffffffffffffffffffffffffffffffffffffff1673ffffffffffffffffffffffffffffffffffffffff1673ffffffffffffffffffffffffffffffffffffffff168152602001908152602001600020604051806101200160405290816000820160009054906101000a900473ffffffffffffffffffffffffffffffffffffffff1673ffffffffffffffffffffffffffffffffffffffff1673ffffffffffffffffffffffffffffffffffffffff1681526020016001820180546117a390613fb0565b80601f01602080910402602001604051908101604052809291908181526020018280546117cf90613fb0565b801561181c5780601f106117f15761010080835404028352916020019161181c565b820191906000526020600020905b8154815290600101906020018083116117ff57829003601f168201915b5050505050815260200160028201805461183590613fb0565b80601f016020809104026020016040519081016040528092919081815260200182805461186190613fb0565b80156118ae5780601f10611883576101008083540402835291602001916118ae565b820191906000526020600020905b81548152906001019060200180831161189157829003601f168201915b505050505081526020016003820160009054906101000a900473ffffffffffffffffffffffffffffffffffffffff1673ffffffffffffffffffffffffffffffffffffffff1673ffffffffffffffffffffffffffffffffffffffff1681526020016003820160149054906101000a900460ff16151515158152602001600482015481526020016005820154815260200160068201548152602001600782015481525050828281518110611989577f4e487b7100000000000000000000000000000000000000000000000000000000600052603260045260246000fd5b6020026020010181905250808061199f90613fe2565b915050611646565b505b809250505090565b6000600260003373ffffffffffffffffffffffffffffffffffffffff1673ffffffffffffffffffffffffffffffffffffffff16815260200190815260200160002060060154600260003373ffffffffffffffffffffffffffffffffffffffff1673ffffffffffffffffffffffffffffffffffffffff16815260200190815260200160002060070154611a439190613d8c565b905060008111611a88576040517f08c379a0000000000000000000000000000000000000000000000000000000008152600401611a7f90613bc5565b60405180910390fd5b6000600260003373ffffffffffffffffffffffffffffffffffffffff1673ffffffffffffffffffffffffffffffffffffffff168152602001908152602001600020600701819055506000600260003373ffffffffffffffffffffffffffffffffffffffff1673ffffffffffffffffffffffffffffffffffffffff1681526020019081526020016000206006018190555060008054906101000a900473ffffffffffffffffffffffffffffffffffffffff1673ffffffffffffffffffffffffffffffffffffffff1663a9059cbb33836040518363ffffffff1660e01b8152600401611b73929190613ac4565b602060405180830381600087803b158015611b8d57600080fd5b505af1158015611ba1573d6000803e3d6000fd5b505050506040513d601f19601f82011682018060405250810190611bc5919061339a565b503373ffffffffffffffffffffffffffffffffffffffff167f7ea33f99150e7ddbb680cea4d7fb86d3dba9a53072c763e7fe80f651e2325def60405160405180910390a250565b600260003373ffffffffffffffffffffffffffffffffffffffff1673ffffffffffffffffffffffffffffffffffffffff16815260200190815260200160002060030160149054906101000a900460ff16611c9b576040517f08c379a0000000000000000000000000000000000000000000000000000000008152600401611c9290613c85565b60405180910390fd5b6000600260003373ffffffffffffffffffffffffffffffffffffffff1673ffffffffffffffffffffffffffffffffffffffff16815260200190815260200160002060060154600260003373ffffffffffffffffffffffffffffffffffffffff1673ffffffffffffffffffffffffffffffffffffffff16815260200190815260200160002060070154611d2d9190613d8c565b90506000600260003373ffffffffffffffffffffffffffffffffffffffff1673ffffffffffffffffffffffffffffffffffffffff168152602001908152602001600020600701819055506000600260003373ffffffffffffffffffffffffffffffffffffffff1673ffffffffffffffffffffffffffffffffffffffff168152602001908152602001600020600601819055506000600260003373ffffffffffffffffffffffffffffffffffffffff1673ffffffffffffffffffffffffffffffffffffffff16815260200190815260200160002060030160146101000a81548160ff0219169083151502179055506000811115611ed25760008054906101000a900473ffffffffffffffffffffffffffffffffffffffff1673ffffffffffffffffffffffffffffffffffffffff1663a9059cbb33836040518363ffffffff1660e01b8152600401611e7e929190613ac4565b602060405180830381600087803b158015611e9857600080fd5b505af1158015611eac573d6000803e3d6000fd5b505050506040513d601f19601f82011682018060405250810190611ed0919061339a565b505b3373ffffffffffffffffffffffffffffffffffffffff167fe46f5cd247d06a7a5e6ae0d7d02d2b9102b68f4cb5749c36bcf7938d21488c1960405160405180910390a250565b600080600160003373ffffffffffffffffffffffffffffffffffffffff1673ffffffffffffffffffffffffffffffffffffffff16815260200190815260200160002060010180549050111561220b5760005b600160003373ffffffffffffffffffffffffffffffffffffffff1673ffffffffffffffffffffffffffffffffffffffff168152602001908152602001600020600101805490508110156122095760026000600160003373ffffffffffffffffffffffffffffffffffffffff1673ffffffffffffffffffffffffffffffffffffffff1681526020019081526020016000206001018381548110612035577f4e487b7100000000000000000000000000000000000000000000000000000000600052603260045260246000fd5b9060005260206000200160009054906101000a900473ffffffffffffffffffffffffffffffffffffffff1673ffffffffffffffffffffffffffffffffffffffff1673ffffffffffffffffffffffffffffffffffffffff16815260200190815260200160002060030160149054906101000a900460ff1680156121e857503373ffffffffffffffffffffffffffffffffffffffff1660026000600160003373ffffffffffffffffffffffffffffffffffffffff1673ffffffffffffffffffffffffffffffffffffffff1681526020019081526020016000206001018481548110612147577f4e487b7100000000000000000000000000000000000000000000000000000000600052603260045260246000fd5b9060005260206000200160009054906101000a900473ffffffffffffffffffffffffffffffffffffffff1673ffffffffffffffffffffffffffffffffffffffff1673ffffffffffffffffffffffffffffffffffffffff16815260200190815260200160002060000160009054906101000a900473ffffffffffffffffffffffffffffffffffffffff1673ffffffffffffffffffffffffffffffffffffffff16145b156121f65760019150612209565b808061220190613fe2565b915050611f6a565b505b6001151581151514612252576040517f08c379a000000000000000000000000000000000000000000000000000000000815260040161224990613b65565b60405180910390fd5b6000600160003373ffffffffffffffffffffffffffffffffffffffff1673ffffffffffffffffffffffffffffffffffffffff16815260200190815260200160002060010180549050116122da576040517f08c379a00000000000000000000000000000000000000000000000000000000081526004016122d190613c65565b60405180910390fd5b6000821161231d576040517f08c379a000000000000000000000000000000000000000000000000000000000815260040161231490613c05565b60405180910390fd5b60008060009054906101000a900473ffffffffffffffffffffffffffffffffffffffff1673ffffffffffffffffffffffffffffffffffffffff1663dd62ed3e33306040518363ffffffff1660e01b815260040161237b9291906139a0565b60206040518083038186803b15801561239357600080fd5b505afa1580156123a7573d6000803e3d6000fd5b505050506040513d601f19601f820116820180604052508101906123cb91906133ec565b905082811015612410576040517f08c379a000000000000000000000000000000000000000000000000000000000815260040161240790613ca5565b60405180910390fd5b60008054906101000a900473ffffffffffffffffffffffffffffffffffffffff1673ffffffffffffffffffffffffffffffffffffffff166323b872dd3330866040518463ffffffff1660e01b815260040161246d939291906139c9565b602060405180830381600087803b15801561248757600080fd5b505af115801561249b573d6000803e3d6000fd5b505050506040513d601f19601f820116820180604052508101906124bf919061339a565b5060008060005b600160003373ffffffffffffffffffffffffffffffffffffffff1673ffffffffffffffffffffffffffffffffffffffff168152602001908152602001600020600101805490508110156128915760026000600160003373ffffffffffffffffffffffffffffffffffffffff1673ffffffffffffffffffffffffffffffffffffffff1681526020019081526020016000206001018381548110612591577f4e487b7100000000000000000000000000000000000000000000000000000000600052603260045260246000fd5b9060005260206000200160009054906101000a900473ffffffffffffffffffffffffffffffffffffffff1673ffffffffffffffffffffffffffffffffffffffff1673ffffffffffffffffffffffffffffffffffffffff16815260200190815260200160002060030160149054906101000a900460ff16801561274457503373ffffffffffffffffffffffffffffffffffffffff1660026000600160003373ffffffffffffffffffffffffffffffffffffffff1673ffffffffffffffffffffffffffffffffffffffff16815260200190815260200160002060010184815481106126a3577f4e487b7100000000000000000000000000000000000000000000000000000000600052603260045260246000fd5b9060005260206000200160009054906101000a900473ffffffffffffffffffffffffffffffffffffffff1673ffffffffffffffffffffffffffffffffffffffff1673ffffffffffffffffffffffffffffffffffffffff16815260200190815260200160002060000160009054906101000a900473ffffffffffffffffffffffffffffffffffffffff1673ffffffffffffffffffffffffffffffffffffffff16145b1561287e57600160003373ffffffffffffffffffffffffffffffffffffffff1673ffffffffffffffffffffffffffffffffffffffff16815260200190815260200160002060010181815481106127c3577f4e487b7100000000000000000000000000000000000000000000000000000000600052603260045260246000fd5b9060005260206000200160009054906101000a900473ffffffffffffffffffffffffffffffffffffffff16838381548110612827577f4e487b7100000000000000000000000000000000000000000000000000000000600052603260045260246000fd5b9060005260206000200160006101000a81548173ffffffffffffffffffffffffffffffffffffffff021916908373ffffffffffffffffffffffffffffffffffffffff160217905550818061287a90613fe2565b9250505b808061288990613fe2565b9150506124c6565b506000811115612a8957600081600160003373ffffffffffffffffffffffffffffffffffffffff1673ffffffffffffffffffffffffffffffffffffffff16815260200190815260200160002060020154876128ec9190613d8c565b6128f69190613de2565b9050600082826129069190613e13565b600160003373ffffffffffffffffffffffffffffffffffffffff1673ffffffffffffffffffffffffffffffffffffffff16815260200190815260200160002060020154886129549190613d8c565b61295e9190613ea1565b905080600160003373ffffffffffffffffffffffffffffffffffffffff1673ffffffffffffffffffffffffffffffffffffffff1681526020019081526020016000206002018190555060005b83811015612a815782600260008784815481106129f0577f4e487b7100000000000000000000000000000000000000000000000000000000600052603260045260246000fd5b9060005260206000200160009054906101000a900473ffffffffffffffffffffffffffffffffffffffff1673ffffffffffffffffffffffffffffffffffffffff1673ffffffffffffffffffffffffffffffffffffffff1681526020019081526020016000206006016000828254612a679190613d8c565b925050819055508080612a7990613fe2565b9150506129aa565b505050612ae3565b84600160003373ffffffffffffffffffffffffffffffffffffffff1673ffffffffffffffffffffffffffffffffffffffff1681526020019081526020016000206002016000828254612adb9190613d8c565b925050819055505b3373ffffffffffffffffffffffffffffffffffffffff167fad35e0b2d33866883fc5e5ceaa195ca1bcffd4e48a81323065c77288c9529a6260405160405180910390a25050505050565b60008054906101000a900473ffffffffffffffffffffffffffffffffffffffff1681565b6000612b5c82612b67565b602001519050919050565b612b6f6131b2565b60008080612b7c85612d78565b846000019061ffff16908161ffff1681525050612b9e6107b261ffff16612e8f565b612baf856000015161ffff16612e8f565b612bb99190613ea1565b9150816301e28500612bcb9190613e13565b83612bd69190613d8c565b9250816107b28560000151612beb9190613e6d565b61ffff16612bf99190613ea1565b6301e13380612c089190613e13565b83612c139190613d8c565b92506000600191505b600c8260ff1611612c9357612c35828660000151612ee3565b60ff1662015180612c469190613e13565b9050858482612c559190613d8c565b1115612c725781856020019060ff16908160ff1681525050612c93565b8084612c7e9190613d8c565b93508180612c8b9061402b565b925050612c1c565b600191505b612caa85602001518660000151612ee3565b60ff168260ff1611612d0757858462015180612cc69190613d8c565b1115612ce35781856040019060ff16908160ff1681525050612d07565b6201518084612cf29190613d8c565b93508180612cff9061402b565b925050612c98565b612d1086612faf565b856060019060ff16908160ff1681525050612d2a86612fdc565b856080019060ff16908160ff1681525050612d4486612ffd565b8560a0019060ff16908160ff1681525050612d5e86613013565b8560c0019060ff16908160ff168152505050505050919050565b600080600090506000806301e1338085612d929190613de2565b6107b261ffff16612da39190613d8c565b9150612db46107b261ffff16612e8f565b612dc18361ffff16612e8f565b612dcb9190613ea1565b9050806301e28500612ddd9190613e13565b83612de89190613d8c565b9250806107b283612df99190613e6d565b61ffff16612e079190613ea1565b6301e13380612e169190613e13565b83612e219190613d8c565b92505b84831115612e8457612e41600183612e3c9190613e6d565b613043565b15612e5d576301e2850083612e569190613ea1565b9250612e70565b6301e1338083612e6d9190613ea1565b92505b600182612e7d9190613e6d565b9150612e24565b819350505050919050565b6000600182612e9e9190613ea1565b915061019082612eae9190613de2565b606483612ebb9190613de2565b600484612ec89190613de2565b612ed29190613ea1565b612edc9190613d8c565b9050919050565b600060018360ff161480612efa575060038360ff16145b80612f08575060058360ff16145b80612f16575060078360ff16145b80612f24575060088360ff16145b80612f325750600a8360ff16145b80612f405750600c8360ff16145b15612f4e57601f9050612fa9565b60048360ff161480612f63575060068360ff16145b80612f71575060098360ff16145b80612f7f5750600b8360ff16145b15612f8d57601e9050612fa9565b612f9682613043565b15612fa457601d9050612fa9565b601c90505b92915050565b60006018603c8084612fc19190613de2565b612fcb9190613de2565b612fd59190614086565b9050919050565b6000603c8083612fec9190613de2565b612ff69190614086565b9050919050565b6000603c8261300c9190614086565b9050919050565b60006007600462015180846130289190613de2565b6130329190613d8c565b61303c9190614086565b9050919050565b6000806004836130539190614055565b61ffff161461306557600090506130ad565b60006064836130749190614055565b61ffff161461308657600190506130ad565b6000610190836130969190614055565b61ffff16146130a857600090506130ad565b600190505b919050565b8280546130be90613fb0565b90600052602060002090601f0160209004810192826130e05760008555613127565b82601f106130f957805160ff1916838001178555613127565b82800160010185558215613127579182015b8281111561312657825182559160200191906001019061310b565b5b5090506131349190613205565b5090565b604051806101200160405280600073ffffffffffffffffffffffffffffffffffffffff1681526020016060815260200160608152602001600073ffffffffffffffffffffffffffffffffffffffff168152602001600015158152602001600081526020016000815260200160008152602001600081525090565b6040518060e00160405280600061ffff168152602001600060ff168152602001600060ff168152602001600060ff168152602001600060ff168152602001600060ff168152602001600060ff1681525090565b5b8082111561321e576000816000905550600101613206565b5090565b600061323561323084613cf6565b613cc5565b90508281526020810184848401111561324d57600080fd5b613258848285613f6e565b509392505050565b60008135905061326f81614184565b92915050565b6000815190506132848161419b565b92915050565b600082601f83011261329b57600080fd5b81356132ab848260208601613222565b91505092915050565b6000813590506132c3816141b2565b92915050565b6000815190506132d8816141b2565b92915050565b6000602082840312156132f057600080fd5b60006132fe84828501613260565b91505092915050565b6000806000806080858703121561331d57600080fd5b600061332b87828801613260565b945050602085013567ffffffffffffffff81111561334857600080fd5b6133548782880161328a565b935050604085013567ffffffffffffffff81111561337157600080fd5b61337d8782880161328a565b925050606061338e878288016132b4565b91505092959194509250565b6000602082840312156133ac57600080fd5b60006133ba84828501613275565b91505092915050565b6000602082840312156133d557600080fd5b60006133e3848285016132b4565b91505092915050565b6000602082840312156133fe57600080fd5b600061340c848285016132c9565b91505092915050565b600061342183836138b6565b905092915050565b61343281613ed5565b82525050565b61344181613ed5565b82525050565b600061345282613d36565b61345c8185613d59565b93508360208202850161346e85613d26565b8060005b858110156134aa578484038952815161348b8582613415565b945061349683613d4c565b925060208a01995050600181019050613472565b50829750879550505050505092915050565b6134c581613ee7565b82525050565b6134d481613ee7565b82525050565b6134e381613f38565b82525050565b6134f281613f5c565b82525050565b600061350382613d41565b61350d8185613d6a565b935061351d818560208601613f7d565b61352681614173565b840191505092915050565b600061353c82613d41565b6135468185613d7b565b9350613556818560208601613f7d565b61355f81614173565b840191505092915050565b6000613577601a83613d7b565b91507f596f7520616c7265616420706169642074686973206d6f6e74680000000000006000830152602082019050919050565b60006135b7601c83613d7b565b91507f4e6f626f647920776f726b7320696e20796f757220636f6d70616e79000000006000830152602082019050919050565b60006135f7601d83613d7b565b91507f7468697320706572736f6e20616c7265616479206861732061206a6f620000006000830152602082019050919050565b6000613637601883613d7b565b91507f596f752c2063616e2774206869726520796f757273656c6600000000000000006000830152602082019050919050565b6000613677600e83613d7b565b91507f596f75206172652062726f6b65210000000000000000000000000000000000006000830152602082019050919050565b60006136b7602083613d7b565b91507f7468697320706572736f6e20646f206e6f7420776f726b7320666f7220796f756000830152602082019050919050565b60006136f7601d83613d7b565b91507f616d6f756e74206d7573742062652067726561746572207468616e20300000006000830152602082019050919050565b6000613737601b83613d7b565b91507f7468697320706572736f6e206973206e6f7420656d706c6f79656400000000006000830152602082019050919050565b6000613777603783613d7b565b91507f596f752c2063616e2774206669726520796f757273656c662c20776169742e2e60008301527f2e20686f7720646f20796f75206765742068697265643f0000000000000000006020830152604082019050919050565b60006137dd602383613d7b565b91507f4a6f62206d7573742068617665206174206c65617374206f6e6520656d706c6f60008301527f79656500000000000000000000000000000000000000000000000000000000006020830152604082019050919050565b6000613843601883613d7b565b91507f596f7520646f206e6f7420686176652061204a6f622e2e2e00000000000000006000830152602082019050919050565b6000613883601b83613d7b565b91507f596f75206e6f7420616c6c6f776564207468697320616d6f756e7400000000006000830152602082019050919050565b6000610120830160008301516138cf6000860182613429565b50602083015184820360208601526138e782826134f8565b9150506040830151848203604086015261390182826134f8565b91505060608301516139166060860182613429565b50608083015161392960808601826134bc565b5060a083015161393c60a0860182613982565b5060c083015161394f60c0860182613982565b5060e083015161396260e0860182613982565b50610100830151613977610100860182613982565b508091505092915050565b61398b81613f21565b82525050565b61399a81613f21565b82525050565b60006040820190506139b56000830185613438565b6139c26020830184613438565b9392505050565b60006060820190506139de6000830186613438565b6139eb6020830185613438565b6139f86040830184613991565b949350505050565b6000604082019050613a156000830185613438565b613a2260208301846134e9565b9392505050565b600061012082019050613a3f600083018c613438565b8181036020830152613a51818b613531565b90508181036040830152613a65818a613531565b9050613a746060830189613438565b613a8160808301886134cb565b613a8e60a0830187613991565b613a9b60c0830186613991565b613aa860e0830185613991565b613ab6610100830184613991565b9a9950505050505050505050565b6000604082019050613ad96000830185613438565b613ae66020830184613991565b9392505050565b60006020820190508181036000830152613b078184613447565b905092915050565b6000602082019050613b2460008301846134cb565b92915050565b6000602082019050613b3f60008301846134da565b92915050565b60006020820190508181036000830152613b5e8161356a565b9050919050565b60006020820190508181036000830152613b7e816135aa565b9050919050565b60006020820190508181036000830152613b9e816135ea565b9050919050565b60006020820190508181036000830152613bbe8161362a565b9050919050565b60006020820190508181036000830152613bde8161366a565b9050919050565b60006020820190508181036000830152613bfe816136aa565b9050919050565b60006020820190508181036000830152613c1e816136ea565b9050919050565b60006020820190508181036000830152613c3e8161372a565b9050919050565b60006020820190508181036000830152613c5e8161376a565b9050919050565b60006020820190508181036000830152613c7e816137d0565b9050919050565b60006020820190508181036000830152613c9e81613836565b9050919050565b60006020820190508181036000830152613cbe81613876565b9050919050565b6000604051905081810181811067ffffffffffffffff82111715613cec57613ceb614144565b5b8060405250919050565b600067ffffffffffffffff821115613d1157613d10614144565b5b601f19601f8301169050602081019050919050565b6000819050602082019050919050565b600081519050919050565b600081519050919050565b6000602082019050919050565b600082825260208201905092915050565b600082825260208201905092915050565b600082825260208201905092915050565b6000613d9782613f21565b9150613da283613f21565b9250827fffffffffffffffffffffffffffffffffffffffffffffffffffffffffffffffff03821115613dd757613dd66140b7565b5b828201905092915050565b6000613ded82613f21565b9150613df883613f21565b925082613e0857613e076140e6565b5b828204905092915050565b6000613e1e82613f21565b9150613e2983613f21565b9250817fffffffffffffffffffffffffffffffffffffffffffffffffffffffffffffffff0483118215151615613e6257613e616140b7565b5b828202905092915050565b6000613e7882613ef3565b9150613e8383613ef3565b925082821015613e9657613e956140b7565b5b828203905092915050565b6000613eac82613f21565b9150613eb783613f21565b925082821015613eca57613ec96140b7565b5b828203905092915050565b6000613ee082613f01565b9050919050565b60008115159050919050565b600061ffff82169050919050565b600073ffffffffffffffffffffffffffffffffffffffff82169050919050565b6000819050919050565b600060ff82169050919050565b6000613f4382613f4a565b9050919050565b6000613f5582613f01565b9050919050565b6000613f6782613f21565b9050919050565b82818337600083830152505050565b60005b83811015613f9b578082015181840152602081019050613f80565b83811115613faa576000848401525b50505050565b60006002820490506001821680613fc857607f821691505b60208210811415613fdc57613fdb614115565b5b50919050565b6000613fed82613f21565b91507fffffffffffffffffffffffffffffffffffffffffffffffffffffffffffffffff8214156140205761401f6140b7565b5b600182019050919050565b600061403682613f2b565b915060ff82141561404a576140496140b7565b5b600182019050919050565b600061406082613ef3565b915061406b83613ef3565b92508261407b5761407a6140e6565b5b828206905092915050565b600061409182613f21565b915061409c83613f21565b9250826140ac576140ab6140e6565b5b828206905092915050565b7f4e487b7100000000000000000000000000000000000000000000000000000000600052601160045260246000fd5b7f4e487b7100000000000000000000000000000000000000000000000000000000600052601260045260246000fd5b7f4e487b7100000000000000000000000000000000000000000000000000000000600052602260045260246000fd5b7f4e487b7100000000000000000000000000000000000000000000000000000000600052604160045260246000fd5b6000601f19601f8301169050919050565b61418d81613ed5565b811461419857600080fd5b50565b6141a481613ee7565b81146141af57600080fd5b50565b6141bb81613f21565b81146141c657600080fd5b5056fea264697066735822122040d468a557356fc4dc2a18379ceeb577478a0027551a3b456b249b704a27f11f64736f6c63430008000033",
  "linkReferences": {},
  "deployedLinkReferences": {}
}