{
  "address": "0x1a93F66623DF5302bF45a2f947AF56d39F2f1293",
  "abi": [
    {
      "inputs": [
        {
          "internalType": "address",
          "name": "",
          "type": "address"
        }
      ],
      "name": "employee",
      "outputs": [
        {
          "internalType": "address",
          "name": "boss",
          "type": "address"
        },
        {
          "internalType": "string",
          "name": "name",
          "type": "string"
        },
        {
          "internalType": "address",
          "name": "_address",
          "type": "address"
        },
        {
          "internalType": "bool",
          "name": "employed",
          "type": "bool"
        },
        {
          "internalType": "uint256",
          "name": "balance",
          "type": "uint256"
        },
        {
          "internalType": "uint256",
          "name": "oldBalance",
          "type": "uint256"
        }
      ],
      "stateMutability": "view",
      "type": "function"
    },
    {
      "inputs": [
        {
          "internalType": "address",
          "name": "_address",
          "type": "address"
        }
      ],
      "name": "fire",
      "outputs": [],
      "stateMutability": "nonpayable",
      "type": "function"
    },
    {
      "inputs": [
        {
          "internalType": "address",
          "name": "_address",
          "type": "address"
        },
        {
          "internalType": "string",
          "name": "_name",
          "type": "string"
        }
      ],
      "name": "hire",
      "outputs": [],
      "stateMutability": "nonpayable",
      "type": "function"
    },
    {
      "inputs": [
        {
          "internalType": "address",
          "name": "",
          "type": "address"
        }
      ],
      "name": "job",
      "outputs": [
        {
          "internalType": "address",
          "name": "boss",
          "type": "address"
        },
        {
          "internalType": "uint256",
          "name": "balance",
          "type": "uint256"
        }
      ],
      "stateMutability": "view",
      "type": "function"
    },
    {
      "inputs": [
        {
          "internalType": "address",
          "name": "_address",
          "type": "address"
        }
      ],
      "name": "payEmployee",
      "outputs": [],
      "stateMutability": "payable",
      "type": "function"
    },
    {
      "inputs": [],
      "name": "sharedDeposit",
      "outputs": [],
      "stateMutability": "payable",
      "type": "function"
    },
    {
      "inputs": [],
      "name": "withdrawAll",
      "outputs": [],
      "stateMutability": "nonpayable",
      "type": "function"
    }
  ],
  "transactionHash": "0x64fa69f2d7af08c678cfb4e0f87c3f6ecd0b4cec4ec81e55dea15639d7be7b1c",
  "args": [],
  "solcInputHash": "f58cf50c9a5bc5c85838ad255a3c7456",
  "bytecode": "0x608060405234801561001057600080fd5b50611efe806100206000396000f3fe6080604052600436106100705760003560e01c80637885c9601161004e5780637885c96014610111578063796b7c681461013a578063853828b614610163578063a8a0ec591461017a57610070565b80630947d0d01461007557806309d495fd146100b35780631f50ad16146100f5575b600080fd5b34801561008157600080fd5b5061009c60048036038101906100979190611713565b610184565b6040516100aa929190611a44565b60405180910390f35b3480156100bf57600080fd5b506100da60048036038101906100d59190611713565b6101c8565b6040516100ec969594939291906119dc565b60405180910390f35b61010f600480360381019061010a9190611713565b6102d9565b005b34801561011d57600080fd5b5061013860048036038101906101339190611713565b61049d565b005b34801561014657600080fd5b50610161600480360381019061015c919061173c565b6107b5565b005b34801561016f57600080fd5b50610178610c4c565b005b610182610dfd565b005b60006020528060005260406000206000915090508060000160009054906101000a900473ffffffffffffffffffffffffffffffffffffffff16908060020154905082565b60016020528060005260406000206000915090508060000160009054906101000a900473ffffffffffffffffffffffffffffffffffffffff169080600101805461021190611d69565b80601f016020809104026020016040519081016040528092919081815260200182805461023d90611d69565b801561028a5780601f1061025f5761010080835404028352916020019161028a565b820191906000526020600020905b81548152906001019060200180831161026d57829003601f168201915b5050505050908060020160009054906101000a900473ffffffffffffffffffffffffffffffffffffffff16908060020160149054906101000a900460ff16908060030154908060040154905086565b8060011515600160008373ffffffffffffffffffffffffffffffffffffffff1673ffffffffffffffffffffffffffffffffffffffff16815260200190815260200160002060020160149054906101000a900460ff16151514610370576040517f08c379a000000000000000000000000000000000000000000000000000000000815260040161036790611b0d565b60405180910390fd5b3373ffffffffffffffffffffffffffffffffffffffff16600160008373ffffffffffffffffffffffffffffffffffffffff1673ffffffffffffffffffffffffffffffffffffffff16815260200190815260200160002060000160009054906101000a900473ffffffffffffffffffffffffffffffffffffffff1673ffffffffffffffffffffffffffffffffffffffff1614610440576040517f08c379a000000000000000000000000000000000000000000000000000000000815260040161043790611aed565b60405180910390fd5b34600160008473ffffffffffffffffffffffffffffffffffffffff1673ffffffffffffffffffffffffffffffffffffffff16815260200190815260200160002060030160008282546104929190611bca565b925050819055505050565b8060011515600160008373ffffffffffffffffffffffffffffffffffffffff1673ffffffffffffffffffffffffffffffffffffffff16815260200190815260200160002060020160149054906101000a900460ff16151514610534576040517f08c379a000000000000000000000000000000000000000000000000000000000815260040161052b90611b0d565b60405180910390fd5b3373ffffffffffffffffffffffffffffffffffffffff16600160008373ffffffffffffffffffffffffffffffffffffffff1673ffffffffffffffffffffffffffffffffffffffff16815260200190815260200160002060000160009054906101000a900473ffffffffffffffffffffffffffffffffffffffff1673ffffffffffffffffffffffffffffffffffffffff1614610604576040517f08c379a00000000000000000000000000000000000000000000000000000000081526004016105fb90611aed565b60405180910390fd5b8173ffffffffffffffffffffffffffffffffffffffff163373ffffffffffffffffffffffffffffffffffffffff161415610673576040517f08c379a000000000000000000000000000000000000000000000000000000000815260040161066a90611b2d565b60405180910390fd5b600160008373ffffffffffffffffffffffffffffffffffffffff1673ffffffffffffffffffffffffffffffffffffffff16815260200190815260200160002060030154600160008473ffffffffffffffffffffffffffffffffffffffff1673ffffffffffffffffffffffffffffffffffffffff16815260200190815260200160002060040160008282546107079190611bca565b925050819055506000600160008473ffffffffffffffffffffffffffffffffffffffff1673ffffffffffffffffffffffffffffffffffffffff168152602001908152602001600020600301819055506000600160008473ffffffffffffffffffffffffffffffffffffffff1673ffffffffffffffffffffffffffffffffffffffff16815260200190815260200160002060020160146101000a81548160ff0219169083151502179055505050565b8160001515600160008373ffffffffffffffffffffffffffffffffffffffff1673ffffffffffffffffffffffffffffffffffffffff16815260200190815260200160002060020160149054906101000a900460ff1615151461084c576040517f08c379a000000000000000000000000000000000000000000000000000000000815260040161084390611a8d565b60405180910390fd5b8273ffffffffffffffffffffffffffffffffffffffff163373ffffffffffffffffffffffffffffffffffffffff1614156108bb576040517f08c379a00000000000000000000000000000000000000000000000000000000081526004016108b290611aad565b60405180910390fd5b336000803373ffffffffffffffffffffffffffffffffffffffff1673ffffffffffffffffffffffffffffffffffffffff16815260200190815260200160002060000160006101000a81548173ffffffffffffffffffffffffffffffffffffffff021916908373ffffffffffffffffffffffffffffffffffffffff16021790555060018060008573ffffffffffffffffffffffffffffffffffffffff1673ffffffffffffffffffffffffffffffffffffffff16815260200190815260200160002060020160146101000a81548160ff02191690831515021790555081600160008573ffffffffffffffffffffffffffffffffffffffff1673ffffffffffffffffffffffffffffffffffffffff16815260200190815260200160002060010190805190602001906109eb929190611566565b5033600160008573ffffffffffffffffffffffffffffffffffffffff1673ffffffffffffffffffffffffffffffffffffffff16815260200190815260200160002060000160006101000a81548173ffffffffffffffffffffffffffffffffffffffff021916908373ffffffffffffffffffffffffffffffffffffffff1602179055506000803373ffffffffffffffffffffffffffffffffffffffff1673ffffffffffffffffffffffffffffffffffffffff168152602001908152602001600020600101600160008573ffffffffffffffffffffffffffffffffffffffff1673ffffffffffffffffffffffffffffffffffffffff16815260200190815260200160002090806001815401808255809150506001900390600052602060002090600502016000909190919091506000820160009054906101000a900473ffffffffffffffffffffffffffffffffffffffff168160000160006101000a81548173ffffffffffffffffffffffffffffffffffffffff021916908373ffffffffffffffffffffffffffffffffffffffff1602179055506001820181600101908054610b9190611d69565b610b9c9291906115ec565b506002820160009054906101000a900473ffffffffffffffffffffffffffffffffffffffff168160020160006101000a81548173ffffffffffffffffffffffffffffffffffffffff021916908373ffffffffffffffffffffffffffffffffffffffff1602179055506002820160149054906101000a900460ff168160020160146101000a81548160ff02191690831515021790555060038201548160030155600482015481600401555050505050565b6000600160003373ffffffffffffffffffffffffffffffffffffffff1673ffffffffffffffffffffffffffffffffffffffff16815260200190815260200160002060030154600160003373ffffffffffffffffffffffffffffffffffffffff1673ffffffffffffffffffffffffffffffffffffffff16815260200190815260200160002060040154610cde9190611bca565b905060008111610d23576040517f08c379a0000000000000000000000000000000000000000000000000000000008152600401610d1a90611acd565b60405180910390fd5b6000600160003373ffffffffffffffffffffffffffffffffffffffff1673ffffffffffffffffffffffffffffffffffffffff168152602001908152602001600020600401819055506000600160003373ffffffffffffffffffffffffffffffffffffffff1673ffffffffffffffffffffffffffffffffffffffff168152602001908152602001600020600301819055503373ffffffffffffffffffffffffffffffffffffffff166108fc829081150290604051600060405180830381858888f19350505050158015610df9573d6000803e3d6000fd5b5050565b6000808060003373ffffffffffffffffffffffffffffffffffffffff1673ffffffffffffffffffffffffffffffffffffffff1681526020019081526020016000206001018054905011156110365760005b6000803373ffffffffffffffffffffffffffffffffffffffff1673ffffffffffffffffffffffffffffffffffffffff16815260200190815260200160002060010180549050811015611034576000803373ffffffffffffffffffffffffffffffffffffffff1673ffffffffffffffffffffffffffffffffffffffff1681526020019081526020016000206001018181548110610f13577f4e487b7100000000000000000000000000000000000000000000000000000000600052603260045260246000fd5b906000526020600020906005020160020160149054906101000a900460ff16801561101357503373ffffffffffffffffffffffffffffffffffffffff166000803373ffffffffffffffffffffffffffffffffffffffff1673ffffffffffffffffffffffffffffffffffffffff1681526020019081526020016000206001018281548110610fc9577f4e487b7100000000000000000000000000000000000000000000000000000000600052603260045260246000fd5b906000526020600020906005020160000160009054906101000a900473ffffffffffffffffffffffffffffffffffffffff1673ffffffffffffffffffffffffffffffffffffffff16145b156110215760019150611034565b808061102c90611d9b565b915050610e4e565b505b600115158115151461107d576040517f08c379a000000000000000000000000000000000000000000000000000000000815260040161107490611a6d565b60405180910390fd5b600080600090505b6000803373ffffffffffffffffffffffffffffffffffffffff1673ffffffffffffffffffffffffffffffffffffffff1681526020019081526020016000206001018054905081101561136f576000803373ffffffffffffffffffffffffffffffffffffffff1673ffffffffffffffffffffffffffffffffffffffff168152602001908152602001600020600101818154811061114a577f4e487b7100000000000000000000000000000000000000000000000000000000600052603260045260246000fd5b906000526020600020906005020160020160149054906101000a900460ff16801561124a57503373ffffffffffffffffffffffffffffffffffffffff166000803373ffffffffffffffffffffffffffffffffffffffff1673ffffffffffffffffffffffffffffffffffffffff1681526020019081526020016000206001018281548110611200577f4e487b7100000000000000000000000000000000000000000000000000000000600052603260045260246000fd5b906000526020600020906005020160000160009054906101000a900473ffffffffffffffffffffffffffffffffffffffff1673ffffffffffffffffffffffffffffffffffffffff16145b1561135c57816000803373ffffffffffffffffffffffffffffffffffffffff1673ffffffffffffffffffffffffffffffffffffffff16815260200190815260200160002060010182815481106112c9577f4e487b7100000000000000000000000000000000000000000000000000000000600052603260045260246000fd5b906000526020600020906005020160020160009054906101000a900473ffffffffffffffffffffffffffffffffffffffff169080600181540180825580915050600190039060005260206000200160009091909190916101000a81548173ffffffffffffffffffffffffffffffffffffffff021916908373ffffffffffffffffffffffffffffffffffffffff1602179055505b808061136790611d9b565b915050611085565b50600081805490506000803373ffffffffffffffffffffffffffffffffffffffff1673ffffffffffffffffffffffffffffffffffffffff16815260200190815260200160002060020154346113c49190611bca565b6113ce9190611c20565b905060008280549050826113e29190611c51565b6000803373ffffffffffffffffffffffffffffffffffffffff1673ffffffffffffffffffffffffffffffffffffffff168152602001908152602001600020600201543461142f9190611bca565b6114399190611cab565b9050806000803373ffffffffffffffffffffffffffffffffffffffff1673ffffffffffffffffffffffffffffffffffffffff1681526020019081526020016000206002018190555060005b838054905081101561155f5782600160008684815481106114ce577f4e487b7100000000000000000000000000000000000000000000000000000000600052603260045260246000fd5b9060005260206000200160009054906101000a900473ffffffffffffffffffffffffffffffffffffffff1673ffffffffffffffffffffffffffffffffffffffff1673ffffffffffffffffffffffffffffffffffffffff16815260200190815260200160002060030160008282546115459190611bca565b92505081905550808061155790611d9b565b915050611484565b5050505050565b82805461157290611d69565b90600052602060002090601f01602090048101928261159457600085556115db565b82601f106115ad57805160ff19168380011785556115db565b828001600101855582156115db579182015b828111156115da5782518255916020019190600101906115bf565b5b5090506115e89190611679565b5090565b8280546115f890611d69565b90600052602060002090601f01602090048101928261161a5760008555611668565b82601f1061162b5780548555611668565b8280016001018555821561166857600052602060002091601f016020900482015b8281111561166757825482559160010191906001019061164c565b5b5090506116759190611679565b5090565b5b8082111561169257600081600090555060010161167a565b5090565b60006116a96116a484611b7e565b611b4d565b9050828152602081018484840111156116c157600080fd5b6116cc848285611d27565b509392505050565b6000813590506116e381611eb1565b92915050565b600082601f8301126116fa57600080fd5b813561170a848260208601611696565b91505092915050565b60006020828403121561172557600080fd5b6000611733848285016116d4565b91505092915050565b6000806040838503121561174f57600080fd5b600061175d858286016116d4565b925050602083013567ffffffffffffffff81111561177a57600080fd5b611786858286016116e9565b9150509250929050565b61179981611cdf565b82525050565b6117a881611cf1565b82525050565b60006117b982611bae565b6117c38185611bb9565b93506117d3818560208601611d36565b6117dc81611ea0565b840191505092915050565b60006117f4601c83611bb9565b91507f4e6f626f647920776f726b7320696e20796f757220636f6d70616e79000000006000830152602082019050919050565b6000611834601d83611bb9565b91507f7468697320706572736f6e20616c7265616479206861732061206a6f620000006000830152602082019050919050565b6000611874601883611bb9565b91507f596f752c2063616e2774206869726520796f757273656c6600000000000000006000830152602082019050919050565b60006118b4600e83611bb9565b91507f596f75206172652062726f6b65210000000000000000000000000000000000006000830152602082019050919050565b60006118f4602083611bb9565b91507f7468697320706572736f6e20646f206e6f7420776f726b7320666f7220796f756000830152602082019050919050565b6000611934601b83611bb9565b91507f7468697320706572736f6e206973206e6f7420656d706c6f79656400000000006000830152602082019050919050565b6000611974603783611bb9565b91507f596f752c2063616e2774206669726520796f757273656c662c20776169742e2e60008301527f2e20686f7720646f20796f75206765742068697265643f0000000000000000006020830152604082019050919050565b6119d681611d1d565b82525050565b600060c0820190506119f16000830189611790565b8181036020830152611a0381886117ae565b9050611a126040830187611790565b611a1f606083018661179f565b611a2c60808301856119cd565b611a3960a08301846119cd565b979650505050505050565b6000604082019050611a596000830185611790565b611a6660208301846119cd565b9392505050565b60006020820190508181036000830152611a86816117e7565b9050919050565b60006020820190508181036000830152611aa681611827565b9050919050565b60006020820190508181036000830152611ac681611867565b9050919050565b60006020820190508181036000830152611ae6816118a7565b9050919050565b60006020820190508181036000830152611b06816118e7565b9050919050565b60006020820190508181036000830152611b2681611927565b9050919050565b60006020820190508181036000830152611b4681611967565b9050919050565b6000604051905081810181811067ffffffffffffffff82111715611b7457611b73611e71565b5b8060405250919050565b600067ffffffffffffffff821115611b9957611b98611e71565b5b601f19601f8301169050602081019050919050565b600081519050919050565b600082825260208201905092915050565b6000611bd582611d1d565b9150611be083611d1d565b9250827fffffffffffffffffffffffffffffffffffffffffffffffffffffffffffffffff03821115611c1557611c14611de4565b5b828201905092915050565b6000611c2b82611d1d565b9150611c3683611d1d565b925082611c4657611c45611e13565b5b828204905092915050565b6000611c5c82611d1d565b9150611c6783611d1d565b9250817fffffffffffffffffffffffffffffffffffffffffffffffffffffffffffffffff0483118215151615611ca057611c9f611de4565b5b828202905092915050565b6000611cb682611d1d565b9150611cc183611d1d565b925082821015611cd457611cd3611de4565b5b828203905092915050565b6000611cea82611cfd565b9050919050565b60008115159050919050565b600073ffffffffffffffffffffffffffffffffffffffff82169050919050565b6000819050919050565b82818337600083830152505050565b60005b83811015611d54578082015181840152602081019050611d39565b83811115611d63576000848401525b50505050565b60006002820490506001821680611d8157607f821691505b60208210811415611d9557611d94611e42565b5b50919050565b6000611da682611d1d565b91507fffffffffffffffffffffffffffffffffffffffffffffffffffffffffffffffff821415611dd957611dd8611de4565b5b600182019050919050565b7f4e487b7100000000000000000000000000000000000000000000000000000000600052601160045260246000fd5b7f4e487b7100000000000000000000000000000000000000000000000000000000600052601260045260246000fd5b7f4e487b7100000000000000000000000000000000000000000000000000000000600052602260045260246000fd5b7f4e487b7100000000000000000000000000000000000000000000000000000000600052604160045260246000fd5b6000601f19601f8301169050919050565b611eba81611cdf565b8114611ec557600080fd5b5056fea26469706673582212203568aeeef1ab16d393fd6185969e59e3e50f61cd251950fe82812c45652616fe64736f6c63430008000033",
  "devdoc": {
    "kind": "dev",
    "methods": {},
    "version": 1
  },
  "userdoc": {
    "kind": "user",
    "methods": {},
    "version": 1
  },
  "storageLayout": {
    "storage": [
      {
        "astId": 28,
        "contract": "contracts/Allowance.sol:Allowance",
        "label": "job",
        "offset": 0,
        "slot": "0",
        "type": "t_mapping(t_address,t_struct(Job)10_storage)"
      },
      {
        "astId": 33,
        "contract": "contracts/Allowance.sol:Allowance",
        "label": "employee",
        "offset": 0,
        "slot": "1",
        "type": "t_mapping(t_address,t_struct(Employee)23_storage)"
      }
    ],
    "types": {
      "t_address": {
        "encoding": "inplace",
        "label": "address",
        "numberOfBytes": "20"
      },
      "t_array(t_struct(Employee)23_storage)dyn_storage": {
        "base": "t_struct(Employee)23_storage",
        "encoding": "dynamic_array",
        "label": "struct Allowance.Employee[]",
        "numberOfBytes": "32"
      },
      "t_bool": {
        "encoding": "inplace",
        "label": "bool",
        "numberOfBytes": "1"
      },
      "t_mapping(t_address,t_struct(Employee)23_storage)": {
        "encoding": "mapping",
        "key": "t_address",
        "label": "mapping(address => struct Allowance.Employee)",
        "numberOfBytes": "32",
        "value": "t_struct(Employee)23_storage"
      },
      "t_mapping(t_address,t_struct(Job)10_storage)": {
        "encoding": "mapping",
        "key": "t_address",
        "label": "mapping(address => struct Allowance.Job)",
        "numberOfBytes": "32",
        "value": "t_struct(Job)10_storage"
      },
      "t_string_storage": {
        "encoding": "bytes",
        "label": "string",
        "numberOfBytes": "32"
      },
      "t_struct(Employee)23_storage": {
        "encoding": "inplace",
        "label": "struct Allowance.Employee",
        "members": [
          {
            "astId": 12,
            "contract": "contracts/Allowance.sol:Allowance",
            "label": "boss",
            "offset": 0,
            "slot": "0",
            "type": "t_address"
          },
          {
            "astId": 14,
            "contract": "contracts/Allowance.sol:Allowance",
            "label": "name",
            "offset": 0,
            "slot": "1",
            "type": "t_string_storage"
          },
          {
            "astId": 16,
            "contract": "contracts/Allowance.sol:Allowance",
            "label": "_address",
            "offset": 0,
            "slot": "2",
            "type": "t_address"
          },
          {
            "astId": 18,
            "contract": "contracts/Allowance.sol:Allowance",
            "label": "employed",
            "offset": 20,
            "slot": "2",
            "type": "t_bool"
          },
          {
            "astId": 20,
            "contract": "contracts/Allowance.sol:Allowance",
            "label": "balance",
            "offset": 0,
            "slot": "3",
            "type": "t_uint256"
          },
          {
            "astId": 22,
            "contract": "contracts/Allowance.sol:Allowance",
            "label": "oldBalance",
            "offset": 0,
            "slot": "4",
            "type": "t_uint256"
          }
        ],
        "numberOfBytes": "160"
      },
      "t_struct(Job)10_storage": {
        "encoding": "inplace",
        "label": "struct Allowance.Job",
        "members": [
          {
            "astId": 3,
            "contract": "contracts/Allowance.sol:Allowance",
            "label": "boss",
            "offset": 0,
            "slot": "0",
            "type": "t_address"
          },
          {
            "astId": 7,
            "contract": "contracts/Allowance.sol:Allowance",
            "label": "employees",
            "offset": 0,
            "slot": "1",
            "type": "t_array(t_struct(Employee)23_storage)dyn_storage"
          },
          {
            "astId": 9,
            "contract": "contracts/Allowance.sol:Allowance",
            "label": "balance",
            "offset": 0,
            "slot": "2",
            "type": "t_uint256"
          }
        ],
        "numberOfBytes": "96"
      },
      "t_uint256": {
        "encoding": "inplace",
        "label": "uint256",
        "numberOfBytes": "32"
      }
    }
  }
}